S010000041544D65676131362E737265639E
S113000029C0000042C0000012C100003EC0000030
S11300103CC000007BC30000A3C3000036C0000046
S113002034C000007BC5000030C000002EC00000BA
S11300302CC000002AC0000028C0000026C0000018
S113004024C0000022C0000020C000001EC0000028
S11300501CC0000011241FBECFE5D4E0DEBFCDBF1D
S113006010E0A0E6B0E0E0E9FDE002C005900D92EA
S1130070A636B107D9F721E0A6E6B0E001C01D928B
S1130080AE3AB207E1F71ED281C6BACF839B03C052
S113009085B78B7F02C085B7846085BF8AB78068C7
S11300A08ABF8BB780688BBF80E00895109266008A
S11300B080E0089586B38F7390916200891799F058
S11300C090916B00916090936B008093620090918B
S11300D06700907C909367009091670080958F7380
S11300E0892B8093670080B3807290916100891797
S11300F091F090916B00916090936B0080936100FC
S1130100882321F0809167008F7B03C08091670072
S113011080648093670020916C008EEF820F8230A0
S1130120D8F483B3827090916000891791F0909114
S11301306B00916090936B0080936000882321F0A2
S1130140809167008F7703C08091670080688093F7
S11301506700233009F492D28AE00895D89808956C
S1130160D9980895D89A08950F9380916C0083309C
S113017011F479D22CC075D21092660000E020E010
S113018030E046E550E060E08BE291E007D581B3D2
S1130190837F81BB82B38C6082BB01E020E030E0CE
S11301A046E450E060E087E890E0F8D485B78860E2
S11301B085BF839B03C085B78B7F02C085B78460EE
S11301C085BF8AB780688ABF8BB780688BBFA798C2
S11301D0B898BC98D2988B988C988D988E98AF9A32
S11301E0C09AC49ADA9A939A949A959A969A809114
S11301F06C008250823040F4A098D398A198A298C1
S1130200A89ADB9AA99AAA9A01E020E030E04AE58C
S113021050E06AE086E990E0C1D4D09AD89AD19AA5
S1130220D99AA39AAB9AA49AAC980F9108951F9265
S11302300F920FB60F9211248F938BB78F778BBFCA
S113024005B602FE03C0829B03C006C0829B04C0A5
S1130250809168008F5F03C0809168008150809313
S113026068008F910F900FBE0F901F901895809388
S113027065008631A9F160F48C3038F48A3080F559
S1130280882399F08130A9F02DC0843149F12AC026
S1130290803259F028F4883119F18E3131F022C0BE
S11302A08436E1F08536E1F01DC0AA98AB98AC9A8B
S11302B012C0FB01868185FF03C0AA98AB9A02C0D5
S11302C0AB98AA9AAC9880916C00833021F4809109
S11302D06300882329F01092640007C084E003C0FF
S11302E081E001C08AE080936400609164008EE83C
S11302F090E077C41F93CF93DF93CDB7DEB76697B3
S11303000FB6F894DEBF0FBECDBF80916500843177
S113031001F148F4813079F008F45AC08A508230EF
S113032008F056C016C08831A1F08E3141F18631F3
S113033009F04EC00EC0E091690086E1E802F001C8
S11303401124E85BFE4F4581628180EAF1D48AEF93
S113035042C06091690016E16103B0011124685B39
S11303607E4F84E184DF209169002103F001112490
S1130370E85BFE4F448161858FEBDAD425C08FEEB4
S113038089838EE08A83E091690086E1E802F001C6
S11303901124E85BFE4F82818B8383818C8384816B
S11303A08D8385818E8386818F83878188878085ED
S11303B0898781858A8782858B8783858C878485D5
S11303C08D87CE01019685D4833021F484E103C066
S11303D080E001C083E066960FB6F894DEBF0FBEDE
S11303E0CDBFDF91CF911F910895FC019FEE9083C3
S11303F08EE0818312821382148215821682178200
S1130400108611861286118A128A27E0268717869B
S1130410108A148A2BB3258B968B878B108E118EA2
S1130420128E138E148E158E168E178E10A233E034
S113043037A310A614A215A216A221E022A74BB33B
S113044043A794A785A716A617A610AA11AA12AAAD
S113045013AA14AA15AA16AA25AF16AE24E022AF31
S113046013AE14AEDF01A05CBF4F3C9335B31196BD
S11304703C93EE5BFF4F908381831282138214823C
S113048015821682178210861186128682E0818B6D
S1130490128A86871786108A248B85B3858B0895E4
S11304A0FC01448161858FEB43D4833011F063E018
S11304B001C064E18FE790E094C3482F4F776AE26C
S11304C088EA36C414BE83E080936C0010926A00FC
S11304D088E491E08ADF85E090E043D4853551F1EA
S11304E068E471E084E6C3DE60E083E090E041D438
S11304F060E082E090E03DD460E084E090E039D4B4
S113050061E087E090E035D466E088E090E031D4A3
S113051066E089E090E02DD464E08AE090E029D49C
S113052060E18BE090E025D460916C0086E090E07F
S113053020D440C087E090E014D48130A1F488E056
S113054090E00FD4863079F489E090E00AD48630C4
S113055051F48AE090E005D4843029F48BE090E0F3
S113056000D48031A1F061E087E090E002D466E03D
S113057088E090E0FED366E089E090E0FAD364E09E
S11305808AE090E0F6D360E18BE090E0F2D368E497
S113059071E080E06CDE83E090E0E3D380934C0173
S11305A082E090E0DED38093510184E090E0D9D3DF
S11305B080934B0181E090E0D4D38093530180E099
S11305C090E0CFD3809354018FE990E07DD3CCDDCC
S11305D0D8D200E020E030E04AE751E060E08FE765
S11305E090E0DCD2789480916500843668F580913F
S11305F04C0168E471E0811104C0809151018823A9
S113060011F084E101C080E232DE459902C0F7D2E4
S1130610FCCFC2E38AE090E0E7D2F1D2C150D1F737
S113062080914C01882311F090E0DED28091510139
S1130630882311F090E0D8D280916500843131F4A0
S113064088E491E02DDF02C080E037DF85B380913C
S113065073008E3711F482DD01C084DD81DDCFD2D9
S1130660F6CF16B8089586EC86B984E487B936992E
S1130670FECF85B110927300369A0895369945C01D
S113068084B195B19093720080937100369A209151
S113069071003091720080916F0090917000821B04
S11306A0930B97FF03C0919581959109039724F0CB
S11306B03093700020936F0020916F003091700090
S11306C083E0369527958A95E1F7822F222329F036
S11306D081E0820F8F3708F08EE790916E009923A6
S11306E019F0915090936E0090916E00911109C091
S11306F090916D00891729F080936D008AE08093B2
S11307006E0080916D008093730008951F920F9284
S11307100FB60F9211248F939F9389B78F7D89BF52
S113072086B597B589569D4F9093A7018093A601EE
S11307308091A6019091A7019BBD8ABD88B7806175
S113074088BF89B7806189BF84E08093AA01109231
S1130750AB019F918F910F900FBE0F901F90189532
S11307601F920F920FB60F9211240F931F932F9382
S11307703F934F935F936F937F938F939F93AF9325
S1130780BF93CF93DF93EF93FF938091A601909152
S1130790A70186549E4F9093A7018093A601809150
S11307A0A6019091A7019BBD8ABD8091AB018F5F8B
S11307B08093AB018091AA018430C1F58091AB0193
S11307C0893068F48091A50186958093A501459BA5
S11307D0DBC08091A50180688093A501D5C088B74E
S11307E0806288BF89B7806289BF8091A801909197
S11307F0A901459907C0FC01E957FF4F80818F5F2C
S113080080830FC04091A501FC01E058FF4F308167
S113081021E0230F2083DC01A30FB11D4C9327FD9E
S113082010821092AB0181E08093AA018091AA0109
S1130830833009F075C082B398B1929596959770FC
S113084082958F70892780FD04C01092AB0182E0ED
S113085065C08091AB01893068F48091A50180FF67
S113086002C0949801C0949A8091A50186958093C2
S1130870A50156C08091AB01893011F4949850C001
S11308808091A3018F5F8093A3019091A4018917A4
S1130890E8F41092AB01E091AC01F091AD018091CC
S11308A0A301E80FF11D80818093A501949A8CB572
S11308B09DB5885A9E4F9093A7018093A60180917D
S11308C0A6019091A7019BBD8ABD2AC081E08093B7
S11308D0A201C091AC01D091AD010091A801109189
S11308E0A901CE01E4D120E030E0F801E058FF4F47
S11308F0281788F4DE01A20FB31F5C91408191E0B8
S1130900940F9083D801A40FB11D5C9397FD1082BE
S11309102F5F3F4FEDCF1092AB0181E08093AA018E
S11309208091AA018230C9F48091AB01811102C087
S1130930949A13C08091AB018F3078F09498109200
S1130940AB0181E08093AA01E091A801F091A90193
S1130950E557FF4F80818F5F80838091AA018130AA
S113096099F48091AB01811106C088B7806288BF79
S113097089B7806208C08091AB01883328F0109257
S1130980AA0189B78F7E89BFFF91EF91DF91CF9143
S1130990BF91AF919F918F917F916F915F914F9193
S11309A03F912F911F910F910F900FBE0F901F90A9
S11309B018959093A9018093A80194988C9A87E143
S11309C088B91092AA0188B7806288BF89B780620B
S11309D089BF8EB5887F81608EBD08950F931F9364
S11309E0CF93DF931F92CDB7DEB78C0169835FD1BC
S11309F08093A4018091A40181501092A3019FEFE0
S1130A0069812091A301281768F42091A301F801BA
S1130A10E20FF11D208192272091A3012F5F2093E3
S1130A20A301EFCFF801E80FF11D9083F8948091B2
S1130A30AA01813061F48091AB01693308F068E365
S1130A40861728F01092AA0189B78F7E89BF7894FF
S1130A508091AA01813039F49091AB01943108F06E
S1130A6057C080E055C08091AA0181114EC0F8940E
S1130A7089B78F7D89BF08B605FE05C089B7806236
S1130A8089BF789442C0949A8CB59DB5885A9E4F7C
S1130A909093A7018093A6018091A6019091A7014C
S1130AA09BBD8ABD78941093AD010093AC01109264
S1130AB0A3011092A201F80180818093A50183E033
S1130AC08093AA011092AB0188B7806188BF89B76F
S1130AD0806189BF8091AA018330E1F38091A201F2
S1130AE0882369F0E091A801F091A901E857FF4F2C
S1130AF08081918101969183808383E009C08091F4
S1130B00AA01823021F085E003C082E001C084E0C4
S1130B100F90DF91CF911F910F9108951F920F9223
S1130B200FB60F9211248F939F9384EE82BF80910E
S1130B3076008F5F80937600809178008F5F843693
S1130B4018F48093780007C01092780080917700A1
S1130B508F5F809377008091740090917500892B4A
S1130B6049F08091740090917500019790937500FD
S1130B70809374009F918F910F900FBE0F901F90E0
S1130B80189584EE82BF88B7816088BF89B7816079
S1130B9089BF83B7887F846083BF08950F93FC0166
S1130BA08FB7F894002359F0A0917900B0917A009E
S1130BB0B683A583F0937A00E09379000AC0A091EC
S1130BC07B00B0917C00B683A583F0937C00E09316
S1130BD07B00608354834383328321838FBF0F91CF
S1130BE00895FC01608308959093750080937400C8
S1130BF08091740090917500892BD1F708950F931B
S1130C001F93CF93DF938FB7F894009176001092DF
S1130C10760010917700109277008FBF011103C006
S1130C20111121C03FC08091790090917A00892BE5
S1130C30B9F3C0917900D0917A00209789F0888126
S1130C40882351F081508883811106C0EB81FC8197
S1130C5089819A81099588830D80DE81C02DEDCF2D
S1130C60015039F7DDCF80917B0090917C00892B76
S1130C70C9F0C0917B00D0917C00209789F08881D5
S1130C80882351F081508883811106C0EB81FC8157
S1130C9089819A81099588830D80DE81C02DEDCFED
S1130CA0115039F7DF91CF911F910F910895FC01F5
S1130CB080818076803611F48181089580818076E8
S1130CC082958F708E5F089590937E0080937D004F
S1130CD070CEEF92FF921F93CF93DF937C0119E1C3
S1130CE0CEE2D1E06C2FC70179DE8330D1F08130C0
S1130CF011F4D0E0F7CF8230A8F3823011F4D1118F
S1130D00F0CFCB3108F0C150115059F7E0917D007C
S1130D10F0917E00E657FF4F80818F5F808386E0ED
S1130D2001C083E0DF91CF911F91FF90EF90089570
S1130D30CF93DF93CDB7DEB766970FB6F894DEBFD7
S1130D400FBECDBF89836A834B83CE010196C1DF79
S1130D5066960FB6F894DEBF0FBECDBFDF91CF917C
S1130D600895E199FECF9FBB8EBBE09A99278DB37E
S1130D700895262FE199FECF9FBB8EBB2DBB0FB6E6
S1130D80F894E29AE19A0FBE01960895F894FFCF81
S1090D90010101010164F0
S9030000FC
