:1000000029C0000043C0000042C100003FC0000002
:100010003DC000000C941D080C94470837C0000038
:1000200035C000000C94240A31C000002FC000002D
:100030002DC000002BC0000029C0000027C0000018
:1000400025C0000023C0000021C000001FC0000028
:100050001DC0000011241FBECFE5D4E0DEBFCDBF20
:1000600010E0A0E6B0E0E4E0F9E102C005900D92F6
:10007000AC38B107D9F722E0ACE8B0E001C01D927E
:10008000A330B207E1F70FD60C94800CB9CF839B55
:1000900003C085B78B7F02C085B7846085BF8AB7F0
:1000A00080688ABF8BB780688BBF80E0089510920C
:1000B0008C0080E0089586B38F7390916200891759
:1000C00099F09091930091609093930080936200D7
:1000D00090918D00907C90938D0090918D008095F3
:1000E0008F73892B80938D0080B380729091610013
:1000F000891791F090919300916090939300809371
:100100006100882321F080918D008F7B03C0809156
:100110008D00806480938D00209194008EEF820F7B
:100120008230D8F483B3827090916000891791F087
:100130009091930091609093930080936000882346
:1001400021F080918D008F7703C080918D008068B1
:1001500080938D00233009F428D78AE0089521E2A6
:1001600020939200FC019581E6E6F0E080E0219189
:10017000921728F02081921710F4809392008F5FDD
:100180008132A9F70895D09AD19AA39AA49A089592
:10019000D89A0895D8980895AC980895D89B02C02D
:1001A000D8980895D89A0895D99B02C0D9980895EF
:1001B000D99A0895AB9B02C0AB980895AB9A089565
:1001C000AC9B02C0AC980895AC9A08950F938091AF
:1001D0009400833011F4DED62EC0DAD610928C0053
:1001E00000E020E030E047E550E060E08BE691E0A1
:1001F0000E94640A81B3837F81BB82B38C6082BB1F
:1002000001E020E030E047E450E060E085EC90E081
:100210000E94640A85B7886085BF839B03C085B749
:100220008B7F02C085B7846085BF8AB780688ABF2C
:100230008BB780688BBF8D98959A8D98959AA79863
:10024000B898BD98D2988B988D988E9888B38F6304
:1002500088BB809194008250823028F4A098D39873
:10026000A298A198A99A01E020E030E04BE550E087
:100270006AE086ED90E00E94640AD09AD898D19AFC
:10028000D998A39AAB98A49AAC980F9108951F920D
:100290000F920FB60F9211248F938BB78F778BBF6E
:1002A00005B602FE03C0829B03C006C0829B04C049
:1002B00080918E008F5F03C080918E00815080936B
:1002C0008E008F910F900FBE0F901F901895809306
:1002D00065008631A9F160F48C3038F48A3080F5FD
:1002E000882399F08130A9F02DC0843149F12AC0CA
:1002F000803259F028F4883119F18E3131F022C062
:100300008436E1F08536E1F01DC0AA98AB98AC9A2E
:1003100012C0FB01868185FF03C0AA98AB9A02C078
:10032000AB98AA9AAC9880919400833021F4809184
:100330006300882329F01092640007C084E003C0A2
:1003400081E001C08AE080936400609164008CECDD
:1003500090E00C94870A1F93CF93DF93CDB7DEB75D
:1003600069970FB6F894DEBF0FBECDBF80916500D0
:10037000843109F148F4813079F008F45DC08A5085
:10038000823008F059C017C08831A9F08E3151F180
:10039000863109F051C00FC0E091910089E1E80277
:1003A000F0011124E357FE4F4581628180EA0E94EB
:1003B0002F0C8AEF44C06091910019E16103B001F4
:1003C000112463577E4F84E182DF20919100210345
:1003D000F0011124E357FE4F448164858FEB0E94A6
:1003E0002F0C26C08FEE89838EE08A83E0919100E6
:1003F00089E1E802F0011124E357FE4F82818B83EB
:1004000083818C8384818D8385818E8386818F8394
:1004100082858B8783858C8784858D8785858E876C
:1004200086858F878785888BCE0101960E94000C78
:10043000833021F484E103C080E001C083E0699649
:100440000FB6F894DEBF0FBECDBFDF91CF911F91E5
:100450000895FC019FEE90838EE0818312821382C7
:100460001482158216821286138614861586148AC3
:10047000158A27E0218B128A138A178A2BB3208FC3
:10048000918F828F138E148E158E168E178E13A257
:1004900014A215A216A243E045A716A612A613A6FB
:1004A00014A631E030AB2BB321AB92AB83AB14AAD3
:1004B00015AA16AA17AA10AE14AE15AE16AE17AE30
:1004C000DF01AA5BBF4F22E02C9311961C92149778
:1004D00055E05C9311961C9211961C9214964C93C5
:1004E00045B311964C93E55BFF4F90838183128255
:1004F000138214821582168212861386148615863C
:10050000348B158A218B128A138A84E0878B85B3FA
:10051000808F0895CF93DF93EC0120918F00822F7D
:1005200090E0062E02C0959587950A94E2F780FF29
:100530000EC08091B700833051F481E090E001C09B
:10054000880F6A95EAF78095822380938F004E8109
:10055000842F8F7129F49F81842F8072891769F00D
:100560002AE16A8181EA0E94480C8093B7008330B7
:1005700021F48E8180728E838F834D85442351F0C8
:100580002AE16A8182EA0E94480C8093B700833096
:1005900009F41D86DF91CF91089590919000969572
:1005A00081119058909390000895CF92DF92EF922E
:1005B000FF921F93CF93DF9300D0CDB7DEB789832F
:1005C000790111E001C0110F6A95EAF788E0C82EA1
:1005D000D12C898181234A83E0DF81E0C81AD108C8
:1005E0004A81C114D104A9F7E42F440FFF0BEF5047
:1005F000FE4F808190919000863028F49F3F19F43F
:100600008F5F80830EC091110CC0853050F0108236
:10061000F7019681892F8072878380E289278683FC
:10062000C3DD0F900F90DF91CF911F91FF90EF905E
:10063000DF90CF900895EF92FF921F93CF93DF93B7
:1006400000D0CDB7DEB7898311E001C0110F6A95E4
:10065000EAF788E0E82EF12C898181234A839DDF27
:1006600081E0E81AF1084A81E114F104A9F7E42FC6
:10067000042E000CFF0BE054FF4F808190919000FE
:10068000853028F49F3F19F48F5F808315C0911146
:1006900013C0853088F010828091D300841307C086
:1006A0009091D40081E089278093D40002C01092F9
:1006B000D4004093D30072DD0F900F90DF91CF9163
:1006C0001F91FF90EF900895CF92DF92FF920F93CA
:1006D0001F93CF93DF9300D0CDB7DEB78983890115
:1006E00081E0F82E01C0FF0C6A95EAF788E0C82E79
:1006F000D12C89818F214A8350DF51E0C51AD1085E
:100700004A81C114D104A9F7842F042E000C990B3F
:10071000FC01E955FF4F208130919000253030F4E5
:100720003F3F09F046C02F5F208343C0311141C0D5
:1007300010822091D400211114C0F801568141305B
:1007400019F4852F806123C0029721E030E0B901C0
:1007500002C0660F771F8A95E2F7CB01852BF8015F
:1007600016C02130A9F4413079F0029721E030E041
:10077000A90102C0440F551F8A95E2F7CA01F8018A
:100780009585892B858704C0F801868188608683DA
:100790008091D300813011F401DD0BC0823011F45F
:1007A00003DD07C0833011F405DD03C0843009F494
:1007B00007DD0F900F90DF91CF911F910F91FF9068
:1007C000DF90CF900895AF9AC09AAD9ADA9AA89A1E
:1007D000DB9AAA9AA99A939A949A959A969A0895C6
:1007E00084E690E0EFE5FAEE3197F1F700C0000003
:1007F0000197C1F70895FC014581628180EA0E945A
:100800002F0C8093B7006AEF8CEA90E080C636998F
:1008100067C020919500222309F130E02150310971
:1008200044B155B163E0569547956A95E1F7F901F2
:10083000EE0FFF1FE754FF4F5183408369E1629F32
:10084000C001639F900D112483579E4FFC012581A9
:1008500030E042175307C1F0458315C084B195B10C
:1008600023E0969587952A95E1F79093C0008093B1
:10087000BF002091DD0130E08217930729F08093BB
:10088000DD0188ED91E0B7DF80919500811108C00E
:100890003898399A3A9A3B983C98369A81E009C040
:1008A000813051F4389A399A3A9A3B983C98369A62
:1008B00082E0809395000895823041F4389A399807
:1008C0003A9A3B983C98369A83E0F3CF833041F4D0
:1008D000389839983A9A3B983C98369A10929500F5
:1008E0000895FC014681628181EAB9D78093B700FF
:1008F00008950F931F93CF93DF93CDB7DEB769971A
:100900000FB6F894DEBF0FBECDBF8C018FEE89838A
:100910008EE08A83F80182818B8383818C8384813A
:100920008D8385818E8386818F8382858B87838566
:100930008C8784858D8785858E8786858F8787853B
:10094000888BCE0101965CD7833099F063E08CEA06
:1009500090E0DDD580916500883121F08E3129F05D
:100960008B3059F4B80184E102C0B80181E0AFDCFA
:1009700004C064E18CEA90E0CAD569960FB6F89499
:10098000DEBF0FBECDBFDF91CF911F910F910895B4
:10099000CF93DF93EA01462F682F8AEB60D783302D
:1009A00079F063E08CEA90E0B2D580916500BE01F9
:1009B000863111F484E101C080E2DF91CF9187CCD0
:1009C00064E18CEA90E0DF91CF91A1C5FC01448104
:1009D00064858FEB44D7833011F063E001C064E19C
:1009E0008CEA90E094C5482F4F776AE288EA37C7CF
:1009F000FC0180916500A091DD00B091DE008A309D
:100A000069F413968C911397838314968C911497A1
:100A1000848319968C911997848707C013968C91BB
:100A20001397887F9381892B838312968C911297D9
:100A30008283909194008EEF890F823008F516968C
:100A40008C9116978F7D868320918D0027FF02C0A1
:100A50008062868316962C9116978681822785FF61
:100A600005C081E085831092630012C0933019F4B1
:100A700080919C0003C015968C911597858308C0C2
:100A800015968C911597858316968C91169786836B
:100A900017968C911797828718968C911897838751
:100AA0001A968C918587CF015ACBCF93DF93EC01B7
:100AB0001C821C8660E083E090E015D76C8582E0A4
:100AC00090E011D760E084E090E00DD7BE0180E2B5
:100AD000DF91CF91FCCBCF93DF93EC018CD6FC015F
:100AE0009093DE008093DD00892B09F4D9C08081CA
:100AF000823A09F4C7C038F4803A09F480C0813AD8
:100B000009F48BC0C9C0843B09F44FC0873E09F08B
:100B1000C3C080916500843171F0863109F438C01A
:100B20008A3009F0B9C0838185FFB6C0CE0160DF8D
:100B3000BE018BE01DC09C8184819813ADC09C8553
:100B400081859813A9C0838180738033A9F483853C
:100B50009E85981304C02F859485291729F081114B
:100B60004BC08485811148C0CE0142DFBE0188E1BF
:100B7000AEDBCE01BEDE90C0BE0186E1A8DBE09117
:100B8000DD00F091DE008281AE01682F01DF84C0BC
:100B90009C818481981380C09C85818598137CC03A
:100BA00083818073803341F5DFCF809165008B3086
:100BB00071F018F48A3001F16FC0883141F08E3144
:100BC00009F06AC081818F3609F066C015C0818145
:100BD0008F3609F061C06C8183E090E084D66C852B
:100BE00082E090E080D66B81677084E090E07BD6F5
:100BF000BE0181E06CDB50C0CE0157DF4DC080915B
:100C00006500813009F048C091818A81981344C001
:100C100082818D83CE01A3DA3FC08091650081304F
:100C2000D9F591818A81981337C0809194008250C0
:100C30009281823070F48E81292F282725FF09C0E8
:100C400080728E8392819F7D892B8E83CE0149DEB7
:100C500001C09E838E815F89488D85FF0AC081E037
:100C600090E001C0880F5A95EAF780958423888F19
:100C700013C021E030E001C0220F5A95EAF7242B7F
:100C8000288F0AC080916500813031F491818A817A
:100C9000981302C082818D871092DE001092DD00D1
:100CA000DF91CF91089514BE83E0809394008BDD93
:100CB000109292008DE891E0CCDB85E090E00BD6BD
:100CC000853551F16DE871E084E601DB60E083E099
:100CD00090E009D660E082E090E005D660E084E034
:100CE00090E001D661E087E090E0FDD566E088E025
:100CF00090E0F9D566E089E090E0F5D564E08AE01F
:100D000090E0F1D560E18BE090E0EDD5609194004A
:100D100086E090E0E8D540C087E090E0DCD5813007
:100D2000A1F488E090E0D7D5863079F489E090E0AE
:100D3000D2D5863051F48AE090E0CDD5843029F4C4
:100D40008BE090E0C8D58031A1F061E087E090E0D1
:100D5000CAD566E088E090E0C6D566E089E090E01C
:100D6000C2D564E08AE090E0BED560E18BE090E01F
:100D7000BAD56DE871E080E0AADA83E090E0ABD507
:100D80008093910182E090E0A6D58093990184E060
:100D900090E0A1D58093900181E090E09CD5809374
:100DA0009B0180E090E097D580939C018FED90E0CF
:100DB0001DD50CDA7CD300E020E030E04BEA51E0B6
:100DC00060E08CEA90E080D378948091650084366E
:100DD00068F5809191016DE871E0811104C0809106
:100DE0009901882311F084E101C080E270DA45990D
:100DF00002C09BD3FCCFC2E38AE090E08BD395D3B3
:100E0000C150D1F780919101882311F090E082D3F5
:100E100080919901882311F090E07CD38091650046
:100E2000843131F48DE891E0D1DD02C080E0DBDD7A
:100E3000AAD9D89AD99AAB9AAFD916B885B3AAD9F4
:100E4000CFDCA6D9CDDCAF9A1092D4008FE090E031
:100E50009093BA008093B90086B1876C86B93898B0
:100E600039983A9A3B983C98369A2FEF39E688E1C0
:100E7000215030408040E1F700C0000089E1D82EC9
:100E80000DE811E0C0E0D0E083B32DE831E041E0AF
:100E900060E08BDB89B326EA31E042E063E085DB8A
:100EA00083B32FEB31E043E062E07FDB83B328EDD7
:100EB00031E044E061E079DB83B341E067E0BBDB34
:100EC00086B342E060E0B7DB83B343E065E0B3DBC9
:100ED00089B344E062E0AFDB8091D300082E000CC0
:100EE000990B01978C179D07E9F4DC9EC001DD9EEC
:100EF000900D1124FC01E357FE4F7F0180B39F0149
:100F000041E063E0E1DB80B3970142E064E0DCDBD9
:100F100080B3970143E065E0D7DB80B3970144E0FD
:100F200066E0D2DB74DCC801D6DD8091D300082EE8
:100F3000000C990B01978C179D07F9F4DC9EF001CA
:100F4000DD9EF00D1124E357FE4F7F0124E0E20EF9
:100F5000F11C8481811111C0158216821586B80199
:100F60008AE0B5D9A80160E080E012DDF701808158
:100F7000811106C0C801AFDDF9CF6C2FC801CADAF4
:100F80002196075E1F4FC430D10509F07DCF78CF81
:100F900016B8089586E487B987EC86B93699FECFEE
:100FA00085B110929C00369A0895369945C084B157
:100FB00095B190939B0080939A00369A20919A0065
:100FC00030919B008091980090919900821B930B27
:100FD00097FF03C0919581959109039724F0309371
:100FE000990020939800209198003091990083E017
:100FF000369527958A95E1F7822F222329F081E003
:10100000820F8F3708F08EE790919700992319F09F
:1010100091509093970090919700911109C09091F1
:101020009600891729F0809396008AE080939700B4
:101030008091960080939C0008951F920F920FB6A6
:101040000F9211248F939F9389B78F7D89BF86B5A7
:1010500097B580569A4F9093FC018093FB01809145
:10106000FB019091FC019BBD8ABD88B7806188BF60
:1010700089B7806189BF84E08093FF0110920002EC
:101080009F918F910F900FBE0F901F9018951F92F8
:101090000F920FB60F9211240F931F932F933F932C
:1010A0004F935F936F937F938F939F93AF93BF9370
:1010B000CF93DF93EF93FF938091FB019091FC011D
:1010C00080549C4F9093FC018093FB018091FB0125
:1010D0009091FC019BBD8ABD809100028F5F80933F
:1010E00000028091FF018430C1F5809100028930B7
:1010F00068F48091FA0186958093FA01459BDAC0E5
:101100008091FA0180688093FA01D4C088B7806228
:1011100088BF89B7806289BF8091FD019091FE01EF
:10112000459907C0FC01E957FF4F80818F5F80839D
:101130000FC04091FA01FC01E058FF4F308121E0DF
:10114000230F2083DC01A30FB11D4C9327FD1082D8
:101150001092000281E08093FF018091FF018330B3
:1011600009F074C088B398B192959695977086955A
:10117000892780FD04C01092000282E065C0809142
:101180000002893068F48091FA0180FF02C0C198A2
:1011900001C0C19A8091FA0186958093FA0156C0E8
:1011A00080910002893011F4C19850C08091F801FB
:1011B0008F5F8093F8019091F9018917E8F41092FC
:1011C0000002E0910102F09102028091F801E80F23
:1011D000F11D80818093FA01C19A8CB59DB5805430
:1011E0009C4F9093FC018093FB018091FB019091B7
:1011F000FC019BBD8ABD2AC081E08093F701C091AC
:101200000102D09102020091FD011091FE01CE0178
:10121000E0D220E030E0F801E058FF4F281788F4D2
:10122000DE01A20FB31F5C91408191E0940F908387
:10123000D801A40FB11D5C9397FD10822F5F3F4F23
:10124000EDCF1092000281E08093FF018091FF01B9
:101250008230C9F480910002811102C0C19A13C08A
:10126000809100028F3078F0C1981092000281E0E6
:101270008093FF01E091FD01F091FE01E557FF4FE2
:1012800080818F5F80838091FF01813099F480910C
:101290000002811106C088B7806288BF89B780626A
:1012A00008C080910002883328F01092FF0189B7AE
:1012B0008F7E89BFFF91EF91DF91CF91BF91AF9169
:1012C0009F918F917F916F915F914F913F912F915E
:1012D0001F910F910F900FBE0F901F901895909334
:1012E000FE018093FD01C198B99A87E188B91092F7
:1012F000FF0188B7806288BF89B7806289BF8EB5D9
:10130000887F81608EBD08950F931F93CF93DF93E5
:101310001F92CDB7DEB78C0169835BD28093F90150
:101320008091F90181501092F8019FEF698120911D
:10133000F801281768F42091F801F801E20FF11D77
:10134000208192272091F8012F5F2093F801EFCFA1
:10135000F801E80FF11D9083F8948091FF0181302E
:1013600061F480910002693308F068E3861728F081
:101370001092FF0189B78F7E89BF78948091FF0119
:10138000813039F490910002943108F057C080E028
:1013900055C08091FF0181114EC0F89489B78F7DAF
:1013A00089BF08B605FE05C089B7806289BF7894F9
:1013B00042C0C19A8CB59DB580549C4F9093FC015E
:1013C0008093FB018091FB019091FC019BBD8ABD44
:1013D000789410930202009301021092F801109287
:1013E000F701F80180818093FA0183E08093FF0187
:1013F0001092000288B7806188BF89B7806189BF79
:101400008091FF018330E1F38091F701882369F037
:10141000E091FD01F091FE01E857FF4F808191813D
:1014200001969183808383E009C08091FF0182301F
:1014300021F085E003C082E001C084E00F90DF91DD
:10144000CF911F910F9108951F920F920FB60F9297
:1014500011248F939F9382EC82BF80919F008F5FB6
:1014600080939F008091A1008F5F843618F4809351
:10147000A10007C01092A1008091A0008F5F80930F
:10148000A00080919D0090919E00892B49F0809151
:101490009D0090919E00019790939E0080939D00E7
:1014A0009F918F910F900FBE0F901F90189582EC17
:1014B00082BF88B7816088BF89B7816089BF83B7E1
:1014C000887F846083BF08950F93FC018FB7F894E1
:1014D000002359F0A091A200B091A300B683A58388
:1014E000F093A300E093A2000AC0A091A400B091E1
:1014F000A500B683A583F093A500E093A4006083C4
:1015000054834383328321838FBF0F910895FC015D
:101510006083089590939E0080939D0080919D002C
:1015200090919E00892BD1F708950F931F93CF932D
:10153000DF938FB7F89400919F0010929F00109155
:10154000A0001092A0008FBF011103C0111121C093
:101550003FC08091A2009091A300892BB9F3C09164
:10156000A200D091A300209789F08881882351F0B0
:1015700081508883811106C0EB81FC8189819A8129
:10158000099588830D80DE81C02DEDCF015039F79C
:10159000DDCF8091A4009091A500892BC9F0C09166
:1015A000A400D091A500209789F08881882351F06C
:1015B00081508883811106C0EB81FC8189819A81E9
:1015C000099588830D80DE81C02DEDCF115039F74C
:1015D000DF91CF911F910F9108952F923F924F92DB
:1015E0005F926F927F928F929F92AF92BF92CF92B3
:1015F000DF92EF92FF920F931F93CF93DF9300D070
:101600001F92CDB7DEB73C018C010F571F4F6C0105
:1016100080E8C80ED11CF301EE57FF4FFB83EA832D
:10162000C3018D579F4F5C0132967F014301F7E85C
:101630008F0E911C130185E8280E311CF801808162
:10164000F6019081891709F49BC0F301E80FF11DA1
:10165000208127FF1DC0EA81FB819081981721F02E
:10166000F40190819F5F9083EA81FB8180838FEFFB
:10167000F5018083822F8076803621F082958F70ED
:101680008E5F01C080E0F7018083811106C046C0F3
:10169000F7018081811142C02083EA81FB81308182
:1016A000F701808190E0830F911D81389105B4F19D
:1016B00080E8482E431AF894F6014081F8018081B1
:1016C000841708F062C0EA81FB818081F42FF81B47
:1016D0008F2FF60180837894F8018081481708F0F5
:1016E00057C0512C50E0B301C301840D951D2983CF
:1016F000E9D0EA81FB818081B301680F711DA201ED
:10170000C301E0D02981F8018081EA81FB819081C9
:10171000891BF8018083EA81FB811082F8018081B6
:101720008F5F8083EA81FB819081382F391B87FF8F
:1017300002C0F8011082F701808138131CC0F50146
:10174000808182130AC0A301490F511DF1018081DC
:10175000918101969183808306C0F40180818F5F1F
:10176000808340E050E0F8018081EA81FB81808342
:101770004115510541F4F5018081282720835ECF72
:1017800080E090E010C0CA010EC0842D840FA1CF6C
:10179000EA81FB818081481B50E0B301680F711D15
:1017A000C3012983AECF0F900F900F90DF91CF919F
:1017B0001F910F91FF90EF90DF90CF90BF90AF906F
:1017C0009F908F907F906F905F904F903F902F9061
:1017D0000895FC0180818076803611F4818108951E
:1017E0008081807682958F708E5F08959093A70098
:1017F0008093A60074CD8091A6009091A700EDCEB5
:10180000EF92FF921F93CF93DF937C0119E1CEE219
:10181000D1E06C2FC70178DD8330D1F0813011F435
:10182000D0E0F7CF8230A8F3823011F4D111F0CF9D
:10183000CB3108F0C150115059F7E091A600F0915A
:10184000A700E657FF4F80818F5F808386E001C04D
:1018500083E0DF91CF911F91FF90EF900895CF9398
:10186000DF93CDB7DEB769970FB6F894DEBF0FBE32
:10187000CDBF89836A834B83CE010196C1DF699610
:101880000FB6F894DEBF0FBECDBFDF91CF910895A4
:10189000CF93DF93CDB7DEB769970FB6F894DEBF6D
:1018A0000FBECDBF89836A834B83622FCE01019621
:1018B0002BDD69960FB6F894DEBF0FBECDBFDF916A
:1018C000CF910895FB01DC0102C001900D924150BF
:1018D0005040D8F70895E199FECF9FBB8EBBE09AA8
:1018E00099278DB30895262FE199FECF9FBB8EBB1C
:1018F0002DBB0FB6F894E29AE19A0FBE01960895B7
:04190000F894FFCF89
:10190400010101010164000305070B0F13171B1FDD
:1019140023272B2F33373B3F43474B4F53575B5FB3
:0C19240063676B6F73777B7F7F7F7F00B2
:00000001FF
