S010000041544D65676131362E737265639E
S113000029C0000042C000000EC100003EC0000034
S11300103CC00000ACC30000D4C3000036C00000E4
S113002034C00000ACC5000030C000002EC0000089
S11300302CC000002AC0000028C0000026C0000018
S113004024C0000022C0000020C000001EC0000028
S11300501CC0000011241FBECFE5D4E0DEBFCDBF1D
S113006010E0A0E6B0E0E2EFFDE002C005900D92E2
S1130070A636B107D9F721E0A6E6B0E001C01D928B
S1130080A13BB207E1F72DD2B2C6BACF839B03C01E
S113009085B78B7F02C085B7846085BF8AB78068C7
S11300A08ABF8BB780688BBF80E00895109266008A
S11300B080E0089586B38F7390916200891799F058
S11300C090916E00916090936E0080936200909185
S11300D06700907C909367009091670080958F7380
S11300E0892B8093670080B3807290916100891797
S11300F091F090916E00916090936E0080936100F6
S1130100882321F0809167008F7B03C08091670072
S113011080648093670020916F008EEF820F82309D
S1130120D8F483B3827090916000891791F0909114
S11301306E00916090936E0080936000882321F09C
S1130140809167008F7703C08091670080688093F7
S11301506700233009F4C3D28AE00895D09AD19A73
S1130160A39AA49A0895AC9808950F9380916F0070
S1130170833011F4A9D22CC0A5D21092660000E0FD
S113018020E030E046E550E060E08EE291E037D5D3
S113019081B3837F81BB82B38C6082BB01E020E0AA
S11301A030E046E450E060E08AE890E028D585B786
S11301B0886085BF839B03C085B78B7F02C085B7EA
S11301C0846085BF8AB780688ABF8BB780688BBF1D
S11301D08D98959A8D98959AA798B898BC98D29826
S11301E08B988D988E9888B38F6388BB80916F00AD
S11301F08250823028F4A098D398A198A298A99A02
S113020001E020E030E04AE550E06AE089E990E06E
S1130210F6D4D09AD898D19AD998A39AAB98A49A9C
S1130220AC980F9108951F920F920FB60F9211245C
S11302308F938BB78F778BBF05B602FE03C0829B6B
S113024003C006C0829B04C0809168008F5F03C016
S1130250809168008150809368008F910F900FBE49
S11302600F901F901895809365008631A9F160F472
S11302708C3038F48A3080F5882399F08130A9F0E5
S11302802DC0843149F12AC0803259F028F48831D4
S113029019F18E3131F022C08436E1F08536E1F077
S11302A01DC0AA98AB98AC9A12C0FB01868185FF49
S11302B003C0AA98AB9A02C0AB98AA9AAC98809152
S11302C06F00833021F480916300882329F0109219
S11302D0640007C084E003C081E001C08AE0809329
S11302E064006091640081E990E0ACC41F93CF93F3
S11302F0DF93CDB7DEB766970FB6F894DEBF0FBEB7
S1130300CDBF80916500843101F148F4813079F0EA
S113031008F45AC08A50823008F056C016C088319A
S1130320A1F08E3141F1863109F04EC00EC0E0914A
S11303306C0086E1E802F0011124E55BFE4F458183
S1130340628180EA26D58AEF42C060916C0016E192
S11303506103B0011124655B7E4F84E184DF209149
S11303606C002103F0011124E55BFE4F448161859B
S11303708FEB0FD525C08FEE89838EE08A83E091C1
S11303806C0086E1E802F0011124E55BFE4F8281F6
S11303908B8383818C8384818D8385818E83868105
S11303A08F83878188878085898781858A878285ED
S11303B08B8783858C8784858D87CE010196BAD4FB
S11303C0833021F484E103C080E001C083E06696B9
S11303D00FB6F894DEBF0FBECDBFDF91CF911F9152
S11303E00895FC019FEE90838EE081831282138234
S11303F01482158216821782108611861286118A3B
S1130400128A27E026871786108A148A2BB3258B35
S1130410968B878B108E118E128E138E148E158EE2
S1130420168E178E10A233E037A310A614A215A2BD
S113043016A221E022A74BB343A794A785A716A62B
S113044017A610AA11AA12AA13AA14AA15AA16AAC0
S113045025AF16AE24E022AF13AE14AEDF01A05CCC
S1130460BF4F3C9335B311963C93EE5BFF4F9083A3
S11304708183128213821482158216821782108657
S11304801186128682E0818B128A86871786108AEB
S1130490248B85B3858B0895861741F0909169006C
S11304A09C3320F49F5F9093690008951092690033
S11304B080936B00813011F480936A000895FC01ED
S11304C0448161858FEB65D4833011F063E001C012
S11304D064E182E890E0B6C3482F4F776AE288EA85
S11304E058C414BE83E080936F0010926D008BE4B7
S11304F091E077DF85E090E065D4853551F16BE4D8
S113050071E084E6B0DE60E083E090E063D460E014
S113051082E090E05FD460E084E090E05BD461E04E
S113052087E090E057D466E088E090E053D466E03A
S113053089E090E04FD464E08AE090E04BD460E13D
S11305408BE090E047D460916F0086E090E042D465
S113055040C087E090E036D48130A1F488E090E098
S113056031D4863079F489E090E02CD4863051F48B
S11305708AE090E027D4843029F48BE090E022D400
S11305808031A1F061E087E090E024D466E088E067
S113059090E020D466E089E090E01CD464E08AE036
S11305A090E018D460E18BE090E014D46BE471E047
S11305B080E059DE83E090E005D480934F0182E02F
S11305C090E000D48093540184E090E0FBD38093C6
S11305D04E0181E090E0F6D38093560180E090E0F4
S11305E0F1D38093570182EA90E09FD3BEDDFAD223
S11305F000E020E030E046E751E060E082E890E08F
S1130600FED2789480916500843668F580914F011C
S11306106BE471E0811104C080915401882311F0CE
S113062084E101C080E21FDE459902C019D3FCCFEA
S1130630C2E38AE090E009D313D3C150D1F780918B
S11306404F01882311F090E000D380915401882356
S113065011F090E0FAD280916500843131F48BE49A
S113066091E02DDF02C080E037DF78DDD89AD99A97
S1130670AB9A79DD16B885B3C0E0CB9B05C089B3CE
S113068083FB882780F901C080E060916B0004DF60
S113069080916B00811108C080916A00813021F43F
S11306A0D99A10926A00C1E080916B008111E5CF64
S11306B080916A00813009F7C130F1F6D99810921F
S11306C06A00DACF16B8089586E487B986EC86B94D
S11306D03699FECF85B110927600369A08953699F0
S11306E045C084B195B19093750080937400369A97
S11306F02091740030917500809172009091730084
S1130700821B930B97FF03C09195819591090397E1
S113071024F0309373002093720020917200309182
S1130720730083E0369527958A95E1F7822F22237B
S113073029F081E0820F8F3708F08EE790917100E5
S1130740992319F091509093710090917100911137
S113075009C090917000891729F0809370008AE095
S113076080937100809170008093760008951F92A9
S11307700F920FB60F9211248F939F9389B78F7D99
S113078089BF86B597B589569D4F9093AA018093EA
S1130790A9018091A9019091AA019BBD8ABD88B746
S11307A0806188BF89B7806189BF84E08093AD018F
S11307B01092AE019F918F910F900FBE0F901F90DA
S11307C018951F920F920FB60F9211240F931F9337
S11307D02F933F934F935F936F937F938F939F9345
S11307E0AF93BF93CF93DF93EF93FF938091A901CE
S11307F09091AA0186549E4F9093AA018093A901D7
S11308008091A9019091AA019BBD8ABD8091AE01FE
S11308108F5F8093AE018091AD018430C1F58091EA
S1130820AE01893068F48091A80186958093A8016F
S1130830459BDBC08091A80180688093A801D5C046
S113084088B7806288BF89B7806289BF8091AB0115
S11308509091AC01459907C0FC01E957FF4F808195
S11308608F5F80830FC04091A801FC01E058FF4FC7
S1130870308121E0230F2083DC01A30FB11D4C93B1
S113088027FD10821092AE0181E08093AD0180912A
S1130890AD01833009F075C082B398B192959695F5
S11308A0977082958F70892780FD04C01092AE01E5
S11308B082E065C08091AE01893068F48091A8011E
S11308C080FF02C0949801C0949A8091A8018695F3
S11308D08093A80156C08091AE01893011F4949898
S11308E050C08091A6018F5F8093A6019091A701CB
S11308F08917E8F41092AE01E091AF01F091B001D4
S11309008091A601E80FF11D80818093A801949A3B
S11309108CB59DB5885A9E4F9093AA018093A901E6
S11309208091A9019091AA019BBD8ABD2AC081E052
S11309308093A501C091AF01D091B0010091AB01AA
S11309401091AC01CE01E4D120E030E0F801E05890
S1130950FF4F281788F4DE01A20FB31F5C9140817A
S113096091E0940F9083D801A40FB11D5C9397FD7F
S113097010822F5F3F4FEDCF1092AE0181E0809344
S1130980AD018091AD018230C9F48091AE01811135
S113099002C0949A13C08091AE018F3078F094987D
S11309A01092AE0181E08093AD01E091AB01F09132
S11309B0AC01E557FF4F80818F5F80838091AD014B
S11309C0813099F48091AE01811106C088B78062AC
S11309D088BF89B7806208C08091AE01883328F04F
S11309E01092AD0189B78F7E89BFFF91EF91DF919E
S11309F0CF91BF91AF919F918F917F916F915F91B3
S1130A004F913F912F911F910F910F900FBE0F9017
S1130A101F9018959093AC018093AB0194988C9A95
S1130A2087E188B91092AD0188B7806288BF89B721
S1130A30806289BF8EB5887F81608EBD08950F93D3
S1130A401F93CF93DF931F92CDB7DEB78C016983D9
S1130A505FD18093A7018091A70181501092A601D4
S1130A609FEF69812091A601281768F42091A601BF
S1130A70F801E20FF11D208192272091A6012F5F3A
S1130A802093A601EFCFF801E80FF11D9083F894AD
S1130A908091AD01813061F48091AE01693308F039
S1130AA068E3861728F01092AD0189B78F7E89BF5D
S1130AB078948091AD01813039F49091AE019431F4
S1130AC008F057C080E055C08091AD0181114EC03F
S1130AD0F89489B78F7D89BF08B605FE05C089B72C
S1130AE0806289BF789442C0949A8CB59DB5885A27
S1130AF09E4F9093AA018093A9018091A90190919E
S1130B00AA019BBD8ABD78941093B0010093AF01F4
S1130B101092A6011092A501F80180818093A8018A
S1130B2083E08093AD011092AE0188B7806188BFE5
S1130B3089B7806189BF8091AD018330E1F38091F1
S1130B40A501882369F0E091AB01F091AC01E8576D
S1130B50FF4F8081918101969183808383E009C056
S1130B608091AD01823021F085E003C082E001C0B4
S1130B7084E00F90DF91CF911F910F9108951F9200
S1130B800F920FB60F9211248F939F9384EE82BF1E
S1130B90809179008F5F8093790080917B008F5FD3
S1130BA0843618F480937B0007C010927B008091F8
S1130BB07A008F5F80937A0080917700909178001B
S1130BC0892B49F080917700909178000197909358
S1130BD07800809377009F918F910F900FBE0F90B4
S1130BE01F90189584EE82BF88B7816088BF89B74B
S1130BF0816089BF83B7887F846083BF08950F9322
S1130C00FC018FB7F894002359F0A0917C00B091B7
S1130C107D00B683A583F0937D00E0937C000AC039
S1130C20A0917E00B0917F00B683A583F0937F00EE
S1130C30E0937E00608354834383328321838FBF98
S1130C400F910895FC016083089590937800809338
S1130C5077008091770090917800892BD1F70895DF
S1130C600F931F93CF93DF938FB7F894009179007C
S1130C701092790010917A0010927A008FBF0111BE
S1130C8003C0111121C03FC080917C0090917D0070
S1130C90892BB9F3C0917C00D0917D00209789F015
S1130CA08881882351F081508883811106C0EB81AB
S1130CB0FC8189819A81099588830D80DE81C02D0C
S1130CC0EDCF015039F7DDCF80917E0090917F0008
S1130CD0892BC9F0C0917E00D0917F00209789F0C4
S1130CE08881882351F081508883811106C0EB816B
S1130CF0FC8189819A81099588830D80DE81C02DCC
S1130D00EDCF115039F7DF91CF911F910F910895D5
S1130D10FC0180818076803611F481810895808180
S1130D20807682958F708E5F089590938100809372
S1130D30800070CEEF92FF921F93CF93DF937C01DC
S1130D4019E1CEE2D1E06C2FC70179DE8330D1F016
S1130D50813011F4D0E0F7CF8230A8F3823011F45F
S1130D60D111F0CFCB3108F0C150115059F7E091B7
S1130D708000F0918100E657FF4F80818F5F808370
S1130D8086E001C083E0DF91CF911F91FF90EF9047
S1130D900895CF93DF93CDB7DEB766970FB6F89477
S1130DA0DEBF0FBECDBF89836A834B83CE0101961C
S1130DB0C1DF66960FB6F894DEBF0FBECDBFDF91DC
S1130DC0CF910895E199FECF9FBB8EBBE09A9927FE
S1130DD08DB30895262FE199FECF9FBB8EBB2DBB0B
S1130DE00FB6F894E29AE19A0FBE01960895F8942A
S1050DF0FFCF2F
S1090DF20101010101648E
S9030000FC
