:1000000029C0000042C0000007C100003EC000003F
:100010003CC00000B9C30000E1C3000036C00000CE
:1000200034C00000B9C5000030C000002EC0000080
:100030002CC000002AC0000028C0000026C000001C
:1000400024C0000022C0000020C000001EC000002C
:100050001CC0000011241FBECFE5D4E0DEBFCDBF21
:1000600010E0A0E6B0E0ECE0FEE002C005900D92EA
:10007000A636B107D9F721E0A6E6B0E001C01D928F
:10008000A93AB207E1F73DD2BFC6BACF839B03C0FE
:1000900085B78B7F02C085B7846085BF8AB78068CB
:1000A0008ABF8BB780688BBF80E00895109266008E
:1000B00080E0089586B38F7390916200891799F05C
:1000C00090916B00916090936B008093620090918F
:1000D0006700907C909367009091670080958F7384
:1000E000892B8093670080B380729091610089179B
:1000F00091F090916B00916090936B008093610000
:10010000882321F0809167008F7B03C08091670076
:1001100080648093670020916C008EEF820F8230A4
:10012000D8F483B3827090916000891791F0909118
:100130006B00916090936B0080936000882321F0A6
:10014000809167008F7703C08091670080688093FB
:100150006700233009F4D0D28AE008950F9380918C
:100160006C00833011F4BDD22CC0B9D2109266005D
:1001700000E020E030E046E550E060E08BE291E016
:100180004BD581B3837F81BB82B38C6082BB01E09E
:1001900020E030E046E450E060E087E890E03CD5C5
:1001A00085B7886085BF839B03C085B78B7F02C0FE
:1001B00085B7846085BF8AB780688ABF8BB780683F
:1001C0008BBF8D98959A8D98959AA798B898BC985A
:1001D000D2988B988D988E9888B38F6388BB8091C6
:1001E0006C008250823028F4A098D398A198A298ED
:1001F000A99A01E020E030E04AE550E06AE086E9B3
:1002000090E00AD5D09AD898D19AD998A39AAB9869
:10021000A49AAC980F9108951F920F920FB60F9267
:1002200011248F938BB78F778BBF05B602FE03C067
:10023000829B03C006C0829B04C0809168008F5FD0
:1002400003C0809168008150809368008F910F9067
:100250000FBE0F901F901895809365008631A9F10D
:1002600060F48C3038F48A3080F5882399F081303E
:10027000A9F02DC0843149F12AC0803259F028F408
:10028000883119F18E3131F022C08436E1F08536A3
:10029000E1F01DC0AA98AB98AC9A12C0FB01868110
:1002A00085FF03C0AA98AB9A02C0AB98AA9AAC98F3
:1002B00080916C00833021F480916300882329F0C1
:1002C0001092640007C084E003C081E001C08AE0AE
:1002D00080936400609164008EE890E0C0C41F9336
:1002E000CF93DF93CDB7DEB765970FB6F894DEBF37
:1002F0000FBECDBF80916500843101F148F481309B
:1003000079F008F45AC08A50823008F056C016C0FE
:100310008831A1F08E3141F1863109F04EC00EC016
:10032000E091690085E1E802F0011124E95BFE4FEC
:100330004581628180EA3AD58AEF42C060916900C6
:1003400015E16103B0011124695B7E4F84E184DF14
:10035000209169002103F0011124E95BFE4F4481E3
:1003600061858FEB23D525C08FEE89838EE08A834C
:10037000E091690085E1E802F0011124E95BFE4F9C
:1003800082818B8383818C8384818D8385818E831D
:1003900086818F83878188878085898781858A8701
:1003A00082858B8783858C8784858D87CE01019696
:1003B000CED4833021F484E103C080E001C083E027
:1003C00065960FB6F894DEBF0FBECDBFDF91CF911B
:1003D0001F910895FC019FEE90838EE0818312822D
:1003E0001382148215821682178210861186128655
:1003F000108A118A27E026871786138A2BB3248B4D
:10040000958B868B178A108E118E128E138E148EFA
:10041000158E168E178E33E035A316A213A214A2E2
:1004200021E020A74BB341A792A783A714A615A646
:1004300016A617A610AA11AA12AA13AA14AA22AFC6
:1004400013AE24E020AF11AE35AF35B336AF97AF62
:10045000DF01A05CBF4F8C9311961C9211961C92E9
:1004600011961C9211961C9211961C9211961C9238
:1004700011961C9211961C9211961C92169682E06F
:100480008C9311961C9213978C9311961C92149630
:100490002C9385B3ED5AFF4F80830895FA01859B15
:1004A00003C081E0808308958081882331F0D901E1
:1004B0008C91811102C01082D89A0895FA012115F9
:1004C000310561F0B09B03C081E080830895808195
:1004D000882321F0D9011C921082D8980895FC013C
:1004E000448161858FEB62D4833011F063E001C0F9
:1004F00064E18FE790E0B3C3482F4F776AE288EA60
:1005000055C4CF93DF9300D0CDB7DEB714BE83E0E0
:1005100080936C0010926A0087E491E05BDF85E0D5
:1005200090E05DD4853551F167E471E084E694DEB6
:1005300060E083E090E05BD460E082E090E057D43C
:1005400060E084E090E053D461E087E090E04FD435
:1005500066E088E090E04BD466E089E090E047D424
:1005600064E08AE090E043D460E18BE090E03FD427
:1005700060916C0086E090E03AD440C087E090E063
:100580002ED48130A1F488E090E029D4863079F42B
:1005900089E090E024D4863051F48AE090E01FD4C2
:1005A000843029F48BE090E01AD48031A1F061E02E
:1005B00087E090E01CD466E088E090E018D466E024
:1005C00089E090E014D464E08AE090E010D460E127
:1005D0008BE090E00CD467E471E080E03DDE83E0E6
:1005E00090E0FDD380934B0182E090E0F8D38093BC
:1005F000500184E090E0F3D380934A0181E090E0E1
:10060000EED38093520180E090E0E9D380935301D0
:100610008FE990E097D3A2DDF2D200E020E030E055
:100620004FE651E060E08FE790E0F6D27894809159
:100630006500843668F580914B0167E471E08111B3
:1006400004C080915001882311F084E101C080E250
:1006500003DE459902C011D3FCCF12E38AE090E09B
:1006600001D30BD31150D1F780914B01882311F0A6
:1006700090E0F8D280915001882311F090E0F2D2FE
:1006800080916500843131F487E491E028DF02C075
:1006900080E032DFA49AA39AD09AD19AD89AD99AB4
:1006A000AB9AAC9A16B885B38A8319820DE411E02F
:1006B0009E012F5F3F4F46E551E0BE016E5F7F4FC9
:1006C00085E591E0EBDE26E531E0AE014F5F5F4F5F
:1006D000BE016E5F7F4F85E591E0F0DEE7CF16B893
:1006E000089586E487B986EC86B93699FECF85B140
:1006F00010927300369A0895369945C084B195B129
:100700009093720080937100369A2091710030911D
:10071000720080916F0090917000821B930B97FF85
:1007200003C0919581959109039724F0309370004F
:1007300020936F0020916F003091700083E0369518
:1007400027958A95E1F7822F222329F081E0820FF5
:100750008F3708F08EE790916E00992319F0915031
:1007600090936E0090916E00911109C090916D0070
:10077000891729F080936D008AE080936E00809144
:100780006D008093730008951F920F920FB60F9221
:1007900011248F939F9389B78F7D89BF86B597B5B5
:1007A00089569D4F9093A2018093A1018091A10150
:1007B0009091A2019BBD8ABD88B7806188BF89B72F
:1007C000806189BF84E08093A5011092A6019F916A
:1007D0008F910F900FBE0F901F9018951F920F9240
:1007E0000FB60F9211240F931F932F933F934F93A4
:1007F0005F936F937F938F939F93AF93BF93CF93A9
:10080000DF93EF93FF938091A1019091A201865411
:100810009E4F9093A2018093A1018091A10190919C
:10082000A2019BBD8ABD8091A6018F5F8093A60126
:100830008091A5018430C1F58091A601893068F4CA
:100840008091A00186958093A001459BDBC080919B
:10085000A00180688093A001D5C088B7806288BF5E
:1008600089B7806289BF8091A3019091A4014599C5
:1008700007C0FC01E957FF4F80818F5F80830FC065
:100880004091A001FC01E058FF4F308121E0230F8F
:100890002083DC01A30FB11D4C9327FD1082109221
:1008A000A60181E08093A5018091A501833009F024
:1008B00075C082B398B192959695977082958F7016
:1008C000892780FD04C01092A60182E065C0809156
:1008D000A601893068F48091A00180FF02C094983D
:1008E00001C0949A8091A00186958093A00156C082
:1008F0008091A601893011F4949850C080919E0196
:100900008F5F80939E0190919F018917E8F4109268
:10091000A601E091A701F091A80180919E01E80F46
:10092000F11D80818093A001949A8CB59DB5885A61
:100930009E4F9093A2018093A1018091A10190917B
:10094000A2019BBD8ABD2AC081E080939D01C09118
:10095000A701D091A8010091A3011091A401CE019B
:10096000E4D120E030E0F801E058FF4F281788F488
:10097000DE01A20FB31F5C91408191E0940F908340
:10098000D801A40FB11D5C9397FD10822F5F3F4FDC
:10099000EDCF1092A60181E08093A5018091A50181
:1009A0008230C9F48091A601811102C0949A13C0CB
:1009B0008091A6018F3078F094981092A60181E082
:1009C0008093A501E091A301F091A401E557FF4FA9
:1009D00080818F5F80838091A501813099F480911F
:1009E000A601811106C088B7806288BF89B780627E
:1009F00008C08091A601883328F01092A50189B71C
:100A00008F7E89BFFF91EF91DF91CF91BF91AF9121
:100A10009F918F917F916F915F914F913F912F9116
:100A20001F910F910F900FBE0F901F9018959093EC
:100A3000A4018093A30194988C9A87E188B91092BD
:100A4000A50188B7806288BF89B7806289BF8EB5EB
:100A5000887F81608EBD08950F931F93CF93DF939E
:100A60001F92CDB7DEB78C0169835FD180939F0160
:100A700080919F01815010929E019FEF698120918A
:100A80009E01281768F420919E01F801E20FF11DE4
:100A90002081922720919E012F5F20939E01EFCF0E
:100AA000F801E80FF11D9083F8948091A501813041
:100AB00061F48091A601693308F068E3861728F095
:100AC0001092A50189B78F7E89BF78948091A50186
:100AD000813039F49091A601943108F057C080E03C
:100AE00055C08091A50181114EC0F89489B78F7DC2
:100AF00089BF08B605FE05C089B7806289BF7894B2
:100B000042C0949A8CB59DB5885A9E4F9093A2018D
:100B10008093A1018091A1019091A2019BBD8ABD0A
:100B200078941093A8010093A70110929E0110924F
:100B30009D01F80180818093A00183E08093A5014D
:100B40001092A60188B7806188BF89B7806189BF8C
:100B50008091A5018330E1F380919D01882369F0A4
:100B6000E091A301F091A401E857FF4F80819181AA
:100B700001969183808383E009C08091A501823032
:100B800021F085E003C082E001C084E00F90DF9196
:100B9000CF911F910F9108951F920F920FB60F9250
:100BA00011248F939F9384EE82BF809176008F5F94
:100BB00080937600809178008F5F843618F480935C
:100BC000780007C010927800809177008F5F809343
:100BD00077008091740090917500892B49F0809185
:100BE0007400909175000197909375008093740044
:100BF0009F918F910F900FBE0F901F90189584EECC
:100C000082BF88B7816088BF89B7816089BF83B799
:100C1000887F846083BF08950F93FC018FB7F89499
:100C2000002359F0A0917900B0917A00B683A58392
:100C3000F0937A00E09379000AC0A0917B00B09114
:100C40007C00B683A583F0937C00E0937B006083F7
:100C500054834383328321838FBF0F910895FC0116
:100C60006083089590937500809374008091740060
:100C700090917500892BD1F708950F931F93CF930F
:100C8000DF938FB7F8940091760010927600109160
:100C90007700109277008FBF011103C0111121C09E
:100CA0003FC08091790090917A00892BB9F3C0916F
:100CB0007900D0917A00209789F08881882351F0BB
:100CC00081508883811106C0EB81FC8189819A81E2
:100CD000099588830D80DE81C02DEDCF015039F755
:100CE000DDCF80917B0090917C00892BC9F0C09171
:100CF0007B00D0917C00209789F08881882351F077
:100D000081508883811106C0EB81FC8189819A81A1
:100D1000099588830D80DE81C02DEDCF115039F704
:100D2000DF91CF911F910F910895FC018081807612
:100D3000803611F4818108958081807682958F704C
:100D40008E5F089590937E0080937D0070CEEF9229
:100D5000FF921F93CF93DF937C0119E1CEE2D1E0A4
:100D60006C2FC70179DE8330D1F0813011F4D0E0EF
:100D7000F7CF8230A8F3823011F4D111F0CFCB310C
:100D800008F0C150115059F7E0917D00F0917E00BC
:100D9000E657FF4F80818F5F808386E001C083E04C
:100DA000DF91CF911F91FF90EF900895CF93DF9344
:100DB000CDB7DEB765970FB6F894DEBF0FBECDBFD7
:100DC00089836A834B83CE010196C1DF65960FB696
:100DD000F894DEBF0FBECDBFDF91CF910895E199AA
:100DE000FECF9FBB8EBBE09A99278DB30895262F27
:100DF000E199FECF9FBB8EBB2DBB0FB6F894E29A54
:0C0E0000E19A0FBE01960895F894FFCF10
:060E0C0001010101016477
:00000001FF
