:1000000029C0000043C0000058C100003FC00000EC
:100010003DC000000C9431080C945B0837C0000010
:1000200035C000000C94310A31C000002FC0000020
:100030002DC000002BC0000029C0000027C0000018
:1000400025C0000023C0000021C000001FC0000028
:100050001DC0000011241FBECFE5D4E0DEBFCDBF20
:1000600010E0A0E6B0E0E8E2F9E102C005900D92F0
:10007000AC38B107D9F722E0ACE8B0E001C01D927E
:10008000AD31B207E1F724D60C94920CB9CF839B23
:1000900003C085B78B7F02C085B7846085BF8AB7F0
:1000A00080688ABF8BB780688BBF80E0089510920C
:1000B0008C0080E0089586B38F7390916200891759
:1000C00099F09091920091609093920080936200D9
:1000D00090918D00907C90938D0090918D008095F3
:1000E0008F73892B80938D0080B380729091610013
:1000F000891791F090919200916090939200809373
:100100006100882321F080918D008F7B03C0809156
:100110008D00806480938D00209193008EEF820F7C
:100120008230D8F483B3827090916000891791F087
:100130009091920091609093920080936000882348
:1001400021F080918D008F7703C080918D008068B1
:1001500080938D00233009F43CD78AE0089521E292
:1001600020939100FC019581E6E6F0E080E021918A
:10017000921728F02081921710F4809391008F5FDE
:100180008132A9F70895D09AD19AA39AA49A089592
:10019000D8980895D9980895AB980895AC9A089581
:1001A000D89A0895D99A0895AB9A0895AC9808956D
:1001B000823051F01CF4813031F00895833029F001
:1001C000843021F00895ECCFEDCFEECFEFCF823029
:1001D00051F01CF4813031F00895833029F08430DF
:1001E00021F00895D5CFD6CFD7CFD8CFAC9B02C0C2
:1001F000AC980895AC9A08950F9380919300833042
:1002000011F4DCD62EC0D8D610928C0000E020E08D
:1002100030E047E550E060E086E791E00E94710A37
:1002200081B3837F81BB82B38C6082BB01E020E01D
:1002300030E047E450E060E080ED90E00E94710A19
:1002400085B7886085BF839B03C085B78B7F02C05D
:1002500085B7846085BF8AB780688ABF8BB780689E
:100260008BBF8D98959A8D98959AA798B898BD98B8
:10027000D2988B988D988E9888B38F6388BB809125
:1002800093008250823028F4A098D398A298A19825
:10029000A99A01E020E030E04BE550E06AE081EE11
:1002A00090E00E94710AD09AD898D19AD998A39ACE
:1002B000AB98A49AAC980F9108951F920F920FB625
:1002C0000F9211248F938BB78F778BBF05B602FEE9
:1002D00003C0829B03C006C0829B04C080918E0035
:1002E0008F5F03C080918E00815080938E008F912C
:1002F0000F900FBE0F901F90189580936500863168
:10030000A9F160F48C3038F48A3080F5882399F0B4
:100310008130A9F02DC0843149F12AC0803259F0D2
:1003200028F4883119F18E3131F022C08436E1F0A1
:100330008536E1F01DC0AA98AB98AC9A12C0FB01BB
:10034000878185FF03C0AA98AB9A02C0AB98AA9A8E
:10035000AC9880919300833021F4809163008823CE
:1003600029F01092640007C084E003C081E001C05E
:100370008AE0809364006091640087ED90E00C94C3
:10038000940A1F93CF93DF93CDB7DEB76C970FB668
:10039000F894DEBF0FBECDBF80916500843109F1B6
:1003A00048F4813079F008F45DC08A50823008F05A
:1003B00059C017C08831A9F08E3151F1863109F04A
:1003C00051C00FC0E09190008CE1E802F0011124CF
:1003D000E556FE4F4581628180EA0E94410C8AEF1A
:1003E00044C0609190001CE16103B0011124655686
:1003F0007E4F84E182DF209190002103F0011124DF
:10040000E556FE4F448165858FEB0E94410C26C066
:100410008FEE89838EE08A83E09190008CE1E80280
:10042000F0011124E556FE4F82818B8383818C83FA
:1004300084818D8385818E838781888783858C875E
:1004400084858D8785858E8786858F878785888B30
:100450008089898BCE0101960E94120C833021F491
:1004600084E103C080E001C083E06C960FB6F8948D
:10047000DEBF0FBECDBFDF91CF911F910895FC016C
:100480009FEE90838EE08183128213821482158204
:1004900017821386148615861686158A168A27E013
:1004A000228B138A148A31E0338F948F858F168EB6
:1004B000178E10A211A213A217A210A611A612A69F
:1004C00043E041AB12AA16A617A610AA22E027AB5A
:1004D00090AF81AF12AE13AE14AE15AE17AEDF0102
:1004E000AD5BBF4F1C9211961C9211961C921196F7
:1004F0001C9217962C9311961C92149755E05C93BE
:1005000011961C9211961C9217964C93EC5AFF4F21
:10051000908381831282138214821582178213863C
:10052000148615861686358B168A228B138A148AB2
:1005300084E0838F0895FC0189B38083118281E078
:10054000828399B393838483858393B3968393E063
:100550009783808783B3818784E082871386089599
:10056000369973C020919400222399F1422F50E0D4
:100570004150510984B195B133E0969587953A95EC
:10058000E1F7FA01EE0FFF1FEC53FF4F91838083D9
:100590003CE1349FF001359FF00D1124E556FE4FEC
:1005A0003581BC01631B710977FF03C071956195AB
:1005B0007109633071051CF48230910538F59CE1B6
:1005C000949FF001959FF00D1124E556FE4F858311
:1005D0001DC084B195B123E0969587952A95E1F7E2
:1005E0009093CB008093CA002091F40130E08217F1
:1005F000930711F08093F4013898399A3A9A3B980E
:100600003C98369A81E0809394000895213041F41B
:10061000389A399A3A9A3B983C98369A82E0F3CFC6
:10062000223041F4389A39983A9A3B983C98369A55
:1006300083E0E9CF233049F4389839983A9A3B98C7
:100640003C98369A109294000895089590918F00E6
:1006500096958111905890938F000895CF92DF92D4
:10066000EF92FF920F931F93CF93DF931F92CDB71B
:10067000DEB78983142F790101E001C0000F6A956C
:10068000EAF788E0C82ED12C89818023DFDF81E062
:10069000C81AD108C9F7E12F110FFF0BE55FFD4F15
:1006A000808190918F00863028F49F3F19F48F5FEE
:1006B00080830CC091110AC0853040F01082F70190
:1006C000978180E28927878381E086830F90DF917D
:1006D000CF911F910F91FF90EF90DF90CF900895F1
:1006E000EF92FF920F931F93CF93DF931F92CDB79B
:1006F000DEB78983042F11E001C0110F6A95EAF774
:1007000088E0E82EF12C89818123A0DF81E0E81ABE
:10071000F108C9F7E02F002E000CFF0BE553FF4F47
:10072000808190918F00853028F49F3F19F48F5F6E
:10073000808314C0911112C0853080F010828091A6
:10074000DE00081307C09091DF0081E089278093C5
:10075000DF0002C01092DF000093DE000F90DF91F7
:10076000CF911F910F91FF90EF900895CF92DF925C
:10077000EF92FF920F931F93CF93DF931F92CDB70A
:10078000DEB78983E42E890181E0F82E01C0FF0CD9
:100790006A95EAF788E0C82ED12C89818F2156DF2F
:1007A00021E0C21AD108C9F78E2D0E2C000C990B2E
:1007B000FC01EE54FF4F208130918F00253030F442
:1007C0003F3F09F042C02F5F20833FC031113DC041
:1007D00010822091DF00211120C0F8014781F1E053
:1007E000EF1203C020E124270BC00297F4E021E0C0
:1007F00030E0EF1641F001C0220F8A95EAF7242B72
:10080000F801278322C0B90102C0660F771F8A95BD
:10081000E2F7CB018427F80117C02130B1F4F1E0F1
:10082000EF1679F0029721E030E0A90102C0440FF1
:10083000551F8A95E2F7CA01F8019685892B8687AC
:1008400004C0F8018781886087830F90DF91CF9182
:100850001F910F91FF90EF90DF90CF900895AF9A86
:10086000C09AAD9ADA9AA89ADB9AAA9AA99A939A08
:10087000949A959A969A089584E690E0EFE5FAEEB8
:100880003197F1F700C000000197C1F70895FC010E
:100890004581628180EAF5D78093C2006AEF87EBD9
:1008A00090E042C6CF93DF9300D0CDB7DEB79A83F6
:1008B0008983FC018681811104C0CE010196E7DFA6
:1008C00004C08581811101C01682E981FA814781C6
:1008D000842F8B7041F49085842F8473891303C017
:1008E00086818823B1F02AE1628181EAE3D780938F
:1008F000C200E981FA81833021F487818473878380
:1009000080878681882329F02AE140E0628180EA9D
:10091000D1D7E981FA814685442359F02AE16281E1
:1009200082EAC8D78093C200833019F4E981FA8142
:1009300016860F900F90DF91CF910895FC014781AB
:10094000628181EA9ED78093C20008950F931F931E
:10095000CF93DF93CDB7DEB76C970FB6F894DEBFB9
:100960000FBECDBF8C018FEE89838EE08A83F801A4
:1009700082818B8383818C8384818D8385818E8327
:100980008781888783858C8784858D8785858E87F9
:1009900086858F878785888B8089898BCE01019694
:1009A00041D7833099F063E087EB90E0BDD580912B
:1009B0006500883121F08E3129F08B3059F4B8016F
:1009C00084E102C0B80181E098DC04C064E187EBF7
:1009D00090E0AAD56C960FB6F894DEBF0FBECDBFDF
:1009E000DF91CF911F910F910895CF93DF93EA018B
:1009F000462F682F8AEB45D7833079F063E087EB89
:100A000090E092D580916500BE01863111F484E1B9
:100A100001C080E2DF91CF9170CC64E187EB90E080
:100A2000DF91CF9181C5FC01448165858FEB29D78A
:100A3000833011F063E001C064E187EB90E074C59E
:100A4000482F4F776AE288EA1CC7FC018091650055
:100A5000A091E800B091E9008A3069F413968C9176
:100A60001397838314968C911497848319968C9191
:100A70001997858707C013968C911397887F938168
:100A8000892B838312968C91129782839091930085
:100A90008EEF890F823008F516968C9116978F7D10
:100AA000878320918D0027FF02C080628783278182
:100AB00016968C911697822785FF05C081E0858365
:100AC0001092630012C0933019F480919B0003C010
:100AD00015968C911597858308C015968C9115975E
:100AE000858316968C911697878317968C91179706
:100AF000838718968C91189784871A968C9186878D
:100B0000CF012DCBCF93DF93EC011C821D8660E0DB
:100B100083E090E0FAD66D8582E090E0F6D660E062
:100B200084E090E0F2D6BE0180E2DF91CF91E5CB88
:100B3000CF93DF93EC0171D6FC019093E900809391
:100B4000E800892B09F4C1C08081823A09F4AFC062
:100B500038F4803A09F480C0813A09F48AC0B1C0FF
:100B6000843B09F44FC0873E09F0ABC0809165001B
:100B7000843171F0863109F438C08A3009F0A1C09F
:100B8000838185FF9EC0CE0160DFBE018BE01DC06A
:100B90009C818481981395C09D858185981391C00F
:100BA000838180738033A9F483859F85981304C063
:100BB00028899485291729F081114BC084858111DA
:100BC00048C0CE0142DFBE0188E197DBCE01BEDE28
:100BD00078C0BE0186E191DBE091E800F091E90088
:100BE0008281AE01682F01DF6CC09C8184819813E3
:100BF00068C09D858185981364C08381807380332C
:100C000041F5DFCF809165008B3071F018F48A30A8
:100C100001F157C0883141F08E3109F052C0818115
:100C20008F3609F04EC015C081818F3609F049C05A
:100C30006C8183E090E069D66D8582E090E065D6B6
:100C40006B81677084E090E060D6BE0181E055DB87
:100C500038C0CE0157DF35C080916500813089F5FD
:100C600091818A8198132DC082818D83CE0177DA9C
:100C700028C080916500813021F591818A81981387
:100C800020C08091930082509281823070F48F81D5
:100C9000282F292725FF09C080728F8392819F7D8D
:100CA000892B8F83CE014ADE0CC09F830AC08091BE
:100CB0006500813031F491818A81981302C082816C
:100CC0008E871092E9001092E800DF91CF9108958D
:100CD00014BE83E080939300C2DD1092910087EAF6
:100CE00090E029DC67EA70E08BE991E0C8DB85E001
:100CF00090E003D6853551F16BE971E084E6FDDAC9
:100D000060E083E090E001D660E082E090E0FDD515
:100D100060E084E090E0F9D561E087E090E0F5D50F
:100D200066E088E090E0F1D566E089E090E0EDD5FE
:100D300064E08AE090E0E9D560E18BE090E0E5D501
:100D40006091930086E090E0E0D540C087E090E0BD
:100D5000D4D58130A1F488E090E0CFD5863079F405
:100D600089E090E0CAD5863051F48AE090E0C5D59C
:100D7000843029F48BE090E0C0D58031A1F061E0AF
:100D800087E090E0C2D566E088E090E0BED566E0FE
:100D900089E090E0BAD564E08AE090E0B6D560E101
:100DA0008BE090E0B2D56BE971E080E0A6DA83E0F9
:100DB00090E0A3D580939F0182E090E09ED5809340
:100DC000A80184E090E099D580939E0181E090E0B5
:100DD00094D58093AA0180E090E08FD58093AB01F9
:100DE0008AEE90E015D508DA6FD300E020E030E01D
:100DF00041EC51E060E087EB90E073D37894809110
:100E00006500843668F580919F016BE971E081117E
:100E100004C08091A801882311F084E101C080E220
:100E20006CDA459902C08ED3FCCFC2E38AE090E031
:100E30007ED388D3C150D1F780919F01882311F0D0
:100E400090E075D38091A801882311F090E06FD3D2
:100E500080916500843131F48BE991E0E4DD02C0DA
:100E600080E0EEDD90D9D89AD99AAB9A9FD916B87E
:100E700085B396D901DD8CD9FFDCAF9A1092DF00E3
:100E80008FE090E09093C5008093C40086B1876C9A
:100E900086B9389839983A9A3B983C98369A2FEF09
:100EA00089E698E1215080409040E1F700C00000C1
:100EB000CBE9D1E011E0E12CF12C8F81847388879C
:100EC00083B32BE931E041E060E0C8DB89B327EB75
:100ED00031E042E063E0C2DB83B323ED31E043E085
:100EE00062E0BCDB83B32FEE31E044E061E0B6DBCF
:100EF00083B341E067E0F4DB86B342E060E0F0DB1F
:100F000083B343E065E0ECDB89B344E062E0E8DB17
:100F10008091DE00082E000C990B01978E159F051D
:100F2000A1F480B39E0141E063E020DC80B39E0128
:100F300042E064E01BDC80B39E0143E065E016DC28
:100F400080B39E0144E066E011DC0ADBCE01F0DDF7
:100F50008091DE00082E000C990B01978E159F05DD
:100F6000A1F48C81811111C01D821F821E86BE01D9
:100F70008AE0C3D9AE0160E080E037DD8C81811169
:100F800007C0CE01D5DD32D9F9CF6E2DCE018ADC76
:100F90008F8185FD03C08A81811103C0812F08D90B
:100FA00002C0812F14D92FEFE21AF20A6C961F5F4C
:100FB000153009F082CF7CCF16B8089586E487B942
:100FC00087EC86B93699FECF85B110929B00369A90
:100FD0000895369945C084B195B190939A00809355
:100FE0009900369A2091990030919A00809197004B
:100FF00090919800821B930B97FF03C09195819568
:101000009109039724F03093980020939700209142
:1010100097003091980083E0369527958A95E1F7FF
:10102000822F222329F081E0820F8F3708F08EE78C
:1010300090919600992319F0915090939600909179
:101040009600911109C090919500981729F080930E
:1010500095008AE0809396008091950080939B0094
:1010600008951F920F920FB60F9211248F939F93A2
:1010700089B78F7D89BF86B597B580569A4F909373
:1010800016028093150280911502909116029BBD65
:101090008ABD88B7806188BF89B7806189BF84E0D5
:1010A0008093190210921A029F918F910F900FBE98
:1010B0000F901F9018951F920F920FB60F92112448
:1010C0000F931F932F933F934F935F936F937F9350
:1010D0008F939F93AF93BF93CF93DF93EF93FF9340
:1010E000809115029091160280549C4F90931602A5
:1010F0008093150280911502909116029BBD8ABDC6
:1011000080911A028F5F80931A02809119028430B5
:10111000C1F580911A02893068F480911402869595
:1011200080931402459BDAC08091140280688093FA
:101130001402D4C088B7806288BF89B7806289BF33
:101140008091170290911802459907C0FC01E95758
:10115000FF4F80818F5F80830FC040911402FC019C
:10116000E058FF4F308121E0230F2083DC01A30FE3
:10117000B11D4C9327FD108210921A0281E08093DA
:10118000190280911902833009F074C098B388B1B4
:101190009695829586958770892780FD04C0109268
:1011A0001A0282E065C080911A02893068F4809149
:1011B000140280FF02C0C19801C0C19A809114023C
:1011C00086958093140256C080911A02893011F4DA
:1011D000C19850C0809112028F5F8093120290914B
:1011E00013028917E8F410921A02E0911B02F091A1
:1011F0001C0280911202E80FF11D8081809314027D
:10120000C19A8CB59DB580549C4F909316028093E3
:10121000150280911502909116029BBD8ABD2AC0CD
:1012200081E080931102C0911B02D0911C020091B9
:10123000170210911802CE01DED220E030E0F80152
:10124000E058FF4F281788F4DE01A20FB31F5C910E
:10125000408191E0940F9083D801A40FB11D5C935D
:1012600097FD10822F5F3F4FEDCF10921A0281E061
:1012700080931902809119028230C9F480911A0278
:10128000811102C0C19A13C080911A028F3078F088
:10129000C19810921A0281E080931902E09117021E
:1012A000F0911802E557FF4F80818F5F8083809116
:1012B0001902813099F480911A02811106C088B711
:1012C000806288BF89B7806208C080911A02883323
:1012D00028F01092190289B78F7E89BFFF91EF9194
:1012E000DF91CF91BF91AF919F918F917F916F913E
:1012F0005F914F913F912F911F910F910F900FBED2
:101300000F901F9018959093180280931702C19820
:10131000B99A87E188B91092190288B7806288BFAC
:1013200089B7806289BF8EB5887F81608EBD089540
:101330001F93CF93DF93EC01162F5DD2809313029E
:10134000809113028150109212029FEF209112029D
:10135000281768F420911202FE01E20FF11D20818E
:101360009227209112022F5F20931202EFCFFE01ED
:10137000E80FF11D9083F89480911902813069F48F
:1013800080911A02612F193308F068E3861728F05C
:101390001092190289B78F7E89BF789480911902C3
:1013A000813039F490911A02943108F056C080E0EF
:1013B00054C08091190281114DC0F89489B78F7D76
:1013C00089BF08B605FE05C089B7806289BF7894D9
:1013D00041C0C19A8CB59DB580549C4F9093160224
:1013E0008093150280911502909116029BBD8ABDD3
:1013F0007894D0931C02C0931B0210921202109298
:10140000110288818093140283E080931902109264
:101410001A0288B7806188BF89B7806189BF8091CF
:1014200019028330E1F380911102882369F0E09181
:101430001702F0911802E857FF4F808191810196C1
:101440009183808383E009C080911902823021F06A
:1014500085E003C082E001C084E0DF91CF911F915D
:1014600008951F920F920FB60F9211248F939F939E
:1014700082EC82BF80919E008F5F80939E0080915E
:10148000A0008F5F843618F48093A00007C01092EC
:10149000A00080919F008F5F80939F0080919C00AF
:1014A00090919D00892B49F080919C0090919D0026
:1014B000019790939D0080939C009F918F910F9036
:1014C0000FBE0F901F90189582EC82BF88B7816085
:1014D00088BF89B7816089BF83B7887F846083BFF5
:1014E00008950F93FC018FB7F894002359F0A09151
:1014F000A100B091A200B683A583F093A200E0936F
:10150000A1000AC0A091A300B091A400B683A58356
:10151000F093A400E093A300608354834383328359
:1015200021838FBF0F910895FC01608308959093EC
:101530009D0080939C0080919C0090919D00892B40
:10154000D1F708950F931F93CF93DF938FB7F8943C
:1015500000919E0010929E0010919F0010929F009B
:101560008FBF011103C0111121C03FC08091A100A4
:101570009091A200892BB9F3C091A100D091A20053
:10158000209789F08881882351F0815088838111C8
:1015900006C0EB81FC8189819A81099588830D8041
:1015A000DE81C02DEDCF015039F7DDCF8091A30052
:1015B0009091A400892BC9F0C091A300D091A40000
:1015C000209789F08881882351F081508883811188
:1015D00006C0EB81FC8189819A81099588830D8001
:1015E000DE81C02DEDCF115039F7DF91CF911F91E2
:1015F0000F9108952F923F924F925F926F927F9238
:101600008F929F92AF92BF92CF92DF92EF92FF9212
:101610000F931F93CF93DF9300D000D0CDB7DEB7E9
:101620009C838B837C0181E8E80EF11C6B807C80BD
:1016300090E8690E711C0B811C810E571F4FEB81C6
:10164000FC81ED57FF4F6F018B819C818C579F4F21
:101650004C0180E8282EAB80BC8097E8A90EB11C15
:10166000EB81FC81EB57FF4FFA83E983F70180811F
:10167000F3019081891709F498C0EB81FC81E80F90
:10168000F11D308037FE1BC0F8019081891721F0D1
:10169000F50190819F5F9083F80180838FEFF601C1
:1016A0008083832D8076803621F082958F708E5FC7
:1016B00001C080E0F4018083811106C042C0F401C2
:1016C000808181113EC03082F8012081F401308197
:1016D000822F90E0830F911D8138910594F1422C67
:1016E000421AF894F3014081F7018081841708F0D1
:1016F0005FC0F8018081F42FF81B8F2FF3018083E6
:101700007894F7018081481708F055C0512C50E0BB
:101710006B817C81CB01840D951DE6D0F801808121
:101720006B817C81680F711DA2018B819C81DCD053
:10173000F7018081F8019081891BF7018083F8010E
:101740001082F70180818F5F8083F8019081282FBC
:10175000291B87FF02C0F7011082F401808128173E
:1017600029F0F60180818325808380CFF601808176
:1017700038120CC02B813C81290F311DE981FA817F
:101780008081918101969183808306C0F5018081DB
:101790008F5F808320E030E0F7018081F801808353
:1017A00021153105F1F2C9010FC080E090E00CC0B5
:1017B000842D840FA3CFF8018081481B50E06B81FA
:1017C0007C81680F711DB1CF0F900F900F900F901B
:1017D000DF91CF911F910F91FF90EF90DF90CF900D
:1017E000BF90AF909F908F907F906F905F904F9041
:1017F0003F902F900895FC0180818076803611F40F
:10180000818108958081807682958F708E5F0895A2
:101810009093A6008093A50076CD8091A50090912D
:10182000A600E8CEEF92FF921F93CF93DF937C0147
:1018300019E1CEE2D1E06C2FC7017ADD8330D1F01F
:10184000813011F4D0E0F7CF8230A8F3823011F468
:10185000D111F0CFCB3108F0C150115059F7E091C0
:10186000A500F091A600E657FF4F80818F5F80832F
:1018700086E001C083E0DF91CF911F91FF90EF9050
:101880000895CF93DF93CDB7DEB76C970FB6F8947A
:10189000DEBF0FBECDBF89836A834B83CE01019625
:1018A000C1DF6C960FB6F894DEBF0FBECDBFDF91DF
:1018B000CF910895CF93DF93CDB7DEB76C970FB676
:1018C000F894DEBF0FBECDBF89836A834B83622F3E
:1018D000CE0101962DDD6C960FB6F894DEBF0FBEDB
:1018E000CDBFDF91CF910895FB01DC0102C00190D3
:1018F0000D9241505040D8F70895E199FECF9FBB1B
:101900008EBBE09A99278DB30895262FE199FECFDB
:101910009FBB8EBB2DBB0FB6F894E29AE19A0FBE27
:0819200001960895F894FFCF31
:10192800010101010164000305070B0F13171B1FB9
:1019380023272B2F33373B3F43474B4F53575B5F8F
:0C19480063676B6F73777B7F7F7F7F008E
:00000001FF
