:1000000029C0000043C0000058C100003FC00000EC
:100010003DC000000C941E080C94480837C0000036
:1000200035C000000C941E0A31C000002FC0000033
:100030002DC000002BC0000029C0000027C0000018
:1000400025C0000023C0000021C000001FC0000028
:100050001DC0000011241FBECFE5D4E0DEBFCDBF20
:1000600010E0A0E6B0E0E2E0F9E102C005900D92F8
:10007000AC38B107D9F722E0ACE8B0E001C01D927E
:10008000A931B207E1F711D60C947F0CB9CF839B4D
:1000900003C085B78B7F02C085B7846085BF8AB7F0
:1000A00080688ABF8BB780688BBF80E0089510920C
:1000B0008C0080E0089586B38F7390916200891759
:1000C00099F09091930091609093930080936200D7
:1000D00090918D00907C90938D0090918D008095F3
:1000E0008F73892B80938D0080B380729091610013
:1000F000891791F090919300916090939300809371
:100100006100882321F080918D008F7B03C0809156
:100110008D00806480938D00209194008EEF820F7B
:100120008230D8F483B3827090916000891791F087
:100130009091930091609093930080936000882346
:1001400021F080918D008F7703C080918D008068B1
:1001500080938D00233009F429D78AE0089521E2A5
:1001600020939200FC019581E6E6F0E080E0219189
:10017000921728F02081921710F4809392008F5FDD
:100180008132A9F70895D09AD19AA39AA49A089592
:10019000D8980895D9980895AB980895AC9A089581
:1001A000D89A0895D99A0895AB9A0895AC9808956D
:1001B000823051F01CF4813031F00895833029F001
:1001C000843021F00895ECCFEDCFEECFEFCF823029
:1001D00051F01CF4813031F00895833029F08430DF
:1001E00021F00895D5CFD6CFD7CFD8CFAC9B02C0C2
:1001F000AC980895AC9A08950F9380919400833041
:1002000011F4C9D62EC0C5D610928C0000E020E0B3
:1002100030E047E550E060E087E791E00E945E0A49
:1002200081B3837F81BB82B38C6082BB01E020E01D
:1002300030E047E450E060E081ED90E00E945E0A2B
:1002400085B7886085BF839B03C085B78B7F02C05D
:1002500085B7846085BF8AB780688ABF8BB780689E
:100260008BBF8D98959A8D98959AA798B898BD98B8
:10027000D2988B988D988E9888B38F6388BB809125
:1002800094008250823028F4A098D398A298A19824
:10029000A99A01E020E030E04BE550E06AE082EE10
:1002A00090E00E945E0AD09AD898D19AD998A39AE1
:1002B000AB98A49AAC980F9108951F920F920FB625
:1002C0000F9211248F938BB78F778BBF05B602FEE9
:1002D00003C0829B03C006C0829B04C080918E0035
:1002E0008F5F03C080918E00815080938E008F912C
:1002F0000F900FBE0F901F90189580936500863168
:10030000A9F160F48C3038F48A3080F5882399F0B4
:100310008130A9F02DC0843149F12AC0803259F0D2
:1003200028F4883119F18E3131F022C08436E1F0A1
:100330008536E1F01DC0AA98AB98AC9A12C0FB01BB
:10034000868185FF03C0AA98AB9A02C0AB98AA9A8F
:10035000AC9880919400833021F4809163008823CD
:1003600029F01092640007C084E003C081E001C05E
:100370008AE0809364006091640088ED90E00C94C2
:10038000810A1F93CF93DF93CDB7DEB76B970FB67C
:10039000F894DEBF0FBECDBF80916500843109F1B6
:1003A00048F4813079F008F45DC08A50823008F05A
:1003B00059C017C08831A9F08E3151F1863109F04A
:1003C00051C00FC0E09191008BE1E802F0011124CF
:1003D000E556FE4F4581628180EA0E942E0C8AEF2D
:1003E00044C0609191001BE16103B0011124655686
:1003F0007E4F84E182DF209191002103F0011124DE
:10040000E556FE4F448164858FEB0E942E0C26C07A
:100410008FEE89838EE08A83E09191008BE1E80280
:10042000F0011124E556FE4F82818B8383818C83FA
:1004300084818D8385818E8386818F8382858B875E
:1004400083858C8784858D8785858E8786858F8734
:100450008785888BCE0101960E94FF0B833021F4A3
:1004600084E103C080E001C083E06B960FB6F8948E
:10047000DEBF0FBECDBFDF91CF911F910895FC016C
:100480009FEE90838EE08183128213821482158204
:1004900016821286138614861586148A158A27E01A
:1004A000218B128A138A31E0328F938F848F158EBD
:1004B000168E178E10A211A215A216A217A210A6B0
:1004C00043E047A710AA14A615A616A622E025AB5E
:1004D00096AB87AB10AE11AE12AE13AE14AEDF0109
:1004E000A05CBF4F1C9211961C9211961C92119603
:1004F0001C9217962C9311961C92149755E05C93BE
:1005000011961C9211961C9217964C93EF5AFF4F1E
:10051000908381831282138214821582168212863E
:10052000138614861586348B158A218B128A138ABA
:1005300084E0828F0895FC0189B38083118281E079
:10054000828399B393838483858393B3968393E063
:100550009783808783B3818784E082871386089599
:10056000CF93DF93EC0120918F00822F90E0062E35
:1005700002C0959587950A94E2F780FF0EC080919E
:10058000C300833051F481E090E001C0880F6A9588
:10059000EAF78095822380938F004E81842F8B70A1
:1005A00029F49F81842F8473891769F02AE16A8175
:1005B00081EA0E94470C8093C300833021F48E812E
:1005C00084738E838F834D85442351F02AE16A81A1
:1005D00082EA0E94470C8093C300833009F41D8691
:1005E000DF91CF9108959091900096958111905848
:1005F000909390000895CF92DF92EF92FF920F9325
:100600001F93CF93DF931F92CDB7DEB78983142F4B
:10061000790101E001C0000F6A95EAF788E0C82E71
:10062000D12C89818023DFDF81E0C81AD108C9F786
:10063000E12F110FFF0BE95FFD4F8081909190003A
:10064000863028F49F3F19F48F5F80830AC0911190
:1006500008C0853030F01082F701968180E289274A
:1006600086830F90DF91CF911F910F91FF90EF90B4
:10067000DF90CF900895EF92FF920F931F93CF9347
:10068000DF931F92CDB7DEB78983042F11E001C03D
:10069000110F6A95EAF788E0E82EF12C8981812311
:1006A000A2DF81E0E81AF108C9F7E02F002E000C64
:1006B000FF0BE453FF4F808190919000853028F428
:1006C0009F3F19F48F5F808314C0911112C0853051
:1006D00080F010828091DF00081307C09091E00045
:1006E00081E089278093E00002C01092E00000932F
:1006F000DF000F90DF91CF911F910F91FF90EF904E
:100700000895CF92DF92EF92FF920F931F93CF93B2
:10071000DF931F92CDB7DEB78983E42E890181E094
:10072000F82E01C0FF0C6A95EAF788E0C82ED12C9C
:1007300089818F2158DF21E0C21AD108C9F78E2D97
:100740000E2C000C990BFC01ED54FF4F20813091D1
:100750009000253030F43F3F09F042C02F5F2083E6
:100760003FC031113DC010822091E000211120C016
:10077000F8014681F1E0EF1203C020E124270BC00D
:100780000297F4E021E030E0EF1641F001C0220FC3
:100790008A95EAF7242BF801268322C0B90102C00A
:1007A000660F771F8A95E2F7CB018427F80117C0FF
:1007B0002130B1F4F1E0EF1679F0029721E030E05A
:1007C000A90102C0440F551F8A95E2F7CA01F8013A
:1007D0009585892B858704C0F8018681886086838A
:1007E0000F90DF91CF911F910F91FF90EF90DF90CD
:1007F000CF900895AF9AC09AAD9ADA9AA89ADB9AE8
:10080000AA9AA99A939A949A959A969A089584E6A0
:1008100090E0EFE5FAEE3197F1F700C000000197A4
:10082000C1F70895FC014581628180EA0E942E0C87
:100830008093C3006AEF88EB90E063C636996AC084
:1008400090919500992311F1492F50E041505109A1
:1008500024B135B163E0369527956A95E1F7FA0141
:10086000EE0FFF1FEB53FF4F318320838BE1849FFB
:10087000F001859FF00D1124E556FE4F458150E0B3
:100880002417350729F12583CF0115C084B195B10F
:1008900023E0969587952A95E1F79093CC00809375
:1008A000CB002091F10130E08217930749F080934B
:1008B000F1018CEE91E0B6DF80919500811109C0C5
:1008C0003898399A3A9A3B983C98369A81E014C005
:1008D000892F813041F4389A399A3A9A3B983C985A
:1008E000369A82E009C0823051F4389A39983A9A9F
:1008F0003B983C98369A83E0809395000895833026
:1009000049F4389839983A9A3B983C98369A10921C
:10091000950008950895FC014681628181EA9ED781
:100920008093C30008950F931F93CF93DF93CDB7A8
:10093000DEB76B970FB6F894DEBF0FBECDBF8C014C
:100940008FEE89838EE08A83F80182818B83838195
:100950008C8384818D8385818E8386818F8382853C
:100960008B8783858C8784858D8785858E87868513
:100970008F878785888BCE01019641D7833099F088
:1009800063E088EB90E0BDD580916500883121F06F
:100990008E3129F08B3059F4B80184E102C0B801DE
:1009A00081E0ABDC04C064E188EB90E0AAD56B96F3
:1009B0000FB6F894DEBF0FBECDBFDF91CF911F9170
:1009C0000F910895CF93DF93EA01462F682F8AEBAA
:1009D00045D7833079F063E088EB90E092D5809141
:1009E0006500BE01863111F484E101C080E2DF912F
:1009F000CF9183CC64E188EB90E0DF91CF9181C50A
:100A0000FC01448164858FEB29D7833011F063E0CA
:100A100001C064E188EB90E074C5482F4F776AE22B
:100A200088EA1CC7FC0180916500A091E900B091A3
:100A3000EA008A3069F413968C9113978383149695
:100A40008C911497848319968C911997848707C089
:100A500013968C911397887F9381892B83831296A9
:100A60008C9112978283909194008EEF890F82303F
:100A700008F516968C9116978F7D868320918D00B0
:100A800027FF02C080628683268116968C91169776
:100A9000822785FF05C081E085831092630012C024
:100AA000933019F480919C0003C015968C91159792
:100AB000858308C015968C911597858316968C9121
:100AC0001697868317968C911797828718968C9124
:100AD000189783871A968C918587CF0140CBCF9347
:100AE000DF93EC011C821C8660E083E090E0FAD684
:100AF0006C8582E090E0F6D660E084E090E0F2D68B
:100B0000BE0180E2DF91CF91F8CBCF93DF93EC0170
:100B100071D6FC019093EA008093E900892B09F4D7
:100B2000C1C08081823A09F4AFC038F4803A09F438
:100B300080C0813A09F48AC0B1C0843B09F44FC037
:100B4000873E09F0ABC080916500843171F0863139
:100B500009F438C08A3009F0A1C0838185FF9EC0A6
:100B6000CE0160DFBE018BE01DC09C8184819813A3
:100B700095C09C858185981391C083818073803353
:100B8000A9F483859E85981304C02F859485291721
:100B900029F081114BC08485811148C0CE0142DF0C
:100BA000BE0188E1AADBCE01BEDE78C0BE0186E1CF
:100BB000A4DBE091E900F091EA008281AE01682FA8
:100BC00001DF6CC09C818481981368C09C858185FD
:100BD000981364C083818073803341F5DFCF8091A7
:100BE00065008B3071F018F48A3001F157C08831FC
:100BF00041F08E3109F052C081818F3609F04EC02C
:100C000015C081818F3609F049C06C8183E090E086
:100C100069D66C8582E090E065D66B81677084E070
:100C200090E060D6BE0181E068DB38C0CE0157DFBE
:100C300035C080916500813089F591818A81981352
:100C40002DC082818D83CE018ADA28C08091650013
:100C5000813021F591818A81981320C08091940080
:100C600082509281823070F48E81282F292725FFAF
:100C700009C080728E8392819F7D892B8E83CE01E5
:100C80004ADE0CC09E830AC080916500813031F439
:100C900091818A81981302C082818D871092EA0027
:100CA0001092E900DF91CF91089514BE83E0809304
:100CB0009400A0DD1092920088EA90E03CDC68EAA3
:100CC00070E08BE991E0DBDB85E090E003D68535D1
:100CD00051F16BE971E084E610DB60E083E090E0C5
:100CE00001D660E082E090E0FDD560E084E090E035
:100CF000F9D561E087E090E0F5D566E088E090E026
:100D0000F1D566E089E090E0EDD564E08AE090E01E
:100D1000E9D560E18BE090E0E5D56091940086E054
:100D200090E0E0D540C087E090E0D4D58130A1F4D8
:100D300088E090E0CFD5863079F489E090E0CAD59C
:100D4000863051F48AE090E0C5D5843029F48BE0F8
:100D500090E0C0D58031A1F061E087E090E0C2D59D
:100D600066E088E090E0BED566E089E090E0BAD524
:100D700064E08AE090E0B6D560E18BE090E0B2D527
:100D80006BE971E080E0B9DA83E090E0A3D580936D
:100D90009F0182E090E09ED58093A70184E090E0DF
:100DA00099D580939E0181E090E094D58093A9012C
:100DB00080E090E08FD58093AA018BEE90E015D56E
:100DC0001BDA6FD300E020E030E041EC51E060E05E
:100DD00088EB90E073D3789480916500843668F551
:100DE00080919F016BE971E0811104C08091A7019E
:100DF000882311F084E101C080E27FDA459902C0C6
:100E00008ED3FCCFC2E38AE090E07ED388D3C1507A
:100E1000D1F780919F01882311F090E075D38091E4
:100E2000A701882311F090E06FD380916500843191
:100E300031F48BE991E0E4DD02C080E0EEDDA3D97E
:100E4000D89AD99AAB9AB2D916B885B3A9D9DFDCAA
:100E50009FD9DDDCAF9A1092E0008FE090E0909394
:100E6000C6008093C50086B1876C86B938983998DA
:100E70003A9A3B983C98369A2FEF89E698E12150B0
:100E800080409040E1F700C00000CBE9D1E011E0E4
:100E9000E12CF12C8E8184738F8383B32BE931E0B5
:100EA00041E060E0A8DB89B326EB31E042E063E09B
:100EB000A2DB83B321ED31E043E062E09CDB83B34E
:100EC0002CEE31E044E061E096DB83B341E067E083
:100ED000D2DB86B342E060E0CEDB83B343E065E083
:100EE000CADB89B344E062E0C6DB8091DF00082EF4
:100EF000000C990B01978E159F05A1F480B39E01FC
:100F000041E063E0FEDB80B39E0142E064E0F9DB98
:100F100080B39E0143E065E0F4DB80B39E0144E0D2
:100F200066E0EFDB8BDCCE01F0DD8091DF00082E88
:100F3000000C990B01978E159F05A1F48C818111EE
:100F400011C01D821E821D86BE018AE0D6D9AE0167
:100F500060E080E037DD8C81811107C0CE01D5DDF6
:100F600045D9F9CF6E2DCE01FBDA8E8185FD03C008
:100F70008A81811103C0812F1BD902C0812F27D9FB
:100F80002FEFE21AF20A6B961F5F153009F082CF3D
:100F90007CCF16B8089586E487B987EC86B9369970
:100FA000FECF85B110929C00369A0895369945C0BF
:100FB00084B195B190939B0080939A00369A2091CA
:100FC0009A0030919B008091980090919900821B2B
:100FD000930B97FF03C0919581959109039724F096
:100FE00030939900209398002091980030919900B7
:100FF00083E0369527958A95E1F7822F222329F001
:1010000081E0820F8F3708F08EE790919700992347
:1010100019F091509093970090919700911109C009
:1010200090919600981729F0809396008AE080931B
:1010300097008091960080939C0008951F920F92D4
:101040000FB60F9211248F939F9389B78F7D89BF1D
:1010500086B597B580569A4F9093120280931102ED
:1010600080911102909112029BBD8ABD88B7806168
:1010700088BF89B7806189BF84E080931502109290
:1010800016029F918F910F900FBE0F901F90189591
:101090001F920F920FB60F9211240F931F932F934D
:1010A0003F934F935F936F937F938F939F93AF93F0
:1010B000BF93CF93DF93EF93FF93809111029091B1
:1010C000120280549C4F90931202809311028091DF
:1010D0001102909112029BBD8ABD809116028F5F12
:1010E00080931602809115028430C1F5809116021A
:1010F000893068F480911002869580931002459B98
:10110000DAC080911002806880931002D4C088B742
:10111000806288BF89B7806289BF809113029091F5
:101120001402459907C0FC01E957FF4F80818F5F8A
:1011300080830FC040911002FC01E058FF4F3081C6
:1011400021E0230F2083DC01A30FB11D4C9327FD69
:1011500010821092160281E0809315028091150290
:10116000833009F074C098B388B1969582958695BE
:101170008770892780FD04C01092160282E065C046
:1011800080911602893068F48091100280FF02C0BD
:10119000C19801C0C19A8091100286958093100277
:1011A00056C080911602893011F4C19850C08091C8
:1011B0000E028F5F80930E0290910F028917E8F460
:1011C00010921602E0911702F091180280910E021F
:1011D000E80FF11D808180931002C19A8CB59DB5F6
:1011E00080549C4F909312028093110280911102BF
:1011F000909112029BBD8ABD2AC081E080930D02AE
:10120000C0911702D091180200911302109114029C
:10121000CE01DED220E030E0F801E058FF4F281781
:1012200088F4DE01A20FB31F5C91408191E0940F1E
:101230009083D801A40FB11D5C9397FD10822F5F9E
:101240003F4FEDCF1092160281E0809315028091FE
:1012500015028230C9F480911602811102C0C19A30
:1012600013C0809116028F3078F0C1981092160248
:1012700081E080931502E0911302F0911402E5578A
:10128000FF4F80818F5F808380911502813099F4B8
:1012900080911602811106C088B7806288BF89B725
:1012A000806208C080911602883328F010921502DF
:1012B00089B78F7E89BFFF91EF91DF91CF91BF9169
:1012C000AF919F918F917F916F915F914F913F91DE
:1012D0002F911F910F910F900FBE0F901F90189597
:1012E0009093140280931302C198B99A87E188B948
:1012F0001092150288B7806288BF89B7806289BF63
:101300008EB5887F81608EBD08951F93CF93DF9344
:10131000EC01162F5DD280930F0280910F02815055
:1013200010920E029FEF20910E02281768F4209170
:101330000E02FE01E20FF11D2081922720910E0284
:101340002F5F20930E02EFCFFE01E80FF11D908377
:10135000F89480911502813069F480911602612F12
:10136000193308F068E3861728F01092150289B740
:101370008F7E89BF789480911502813039F49091E5
:101380001602943108F056C080E054C080911502D6
:1013900081114DC0F89489B78F7D89BF08B605FECD
:1013A00005C089B7806289BF789441C0C19A8CB565
:1013B0009DB580549C4F90931202809311028091AE
:1013C0001102909112029BBD8ABD7894D0931802AD
:1013D000C093170210920E0210920D028881809322
:1013E000100283E0809315021092160288B7806184
:1013F00088BF89B7806189BF809115028330E1F38E
:1014000080910D02882369F0E0911302F09114029B
:10141000E857FF4F8081918101969183808383E01B
:1014200009C080911502823021F085E003C082E07E
:1014300001C084E0DF91CF911F9108951F920F9218
:101440000FB60F9211248F939F9382EC82BF8091ED
:101450009F008F5F80939F008091A1008F5F8436F3
:1014600018F48093A10007C01092A1008091A00001
:101470008F5F8093A00080919D0090919E00892BAA
:1014800049F080919D0090919E00019790939E005D
:1014900080939D009F918F910F900FBE0F901F9092
:1014A000189582EC82BF88B7816088BF89B7816058
:1014B00089BF83B7887F846083BF08950F93FC0141
:1014C0008FB7F894002359F0A091A200B091A30027
:1014D000B683A583F093A300E093A2000AC0A09175
:1014E000A400B091A500B683A583F093A500E09376
:1014F000A400608354834383328321838FBF0F9181
:101500000895FC016083089590939E0080939D0050
:1015100080919D0090919E00892BD1F708950F93A3
:101520001F93CF93DF938FB7F89400919F00109291
:101530009F001091A0001092A0008FBF011103C066
:10154000111121C03FC08091A2009091A300892B6E
:10155000B9F3C091A200D091A300209789F08881AF
:10156000882351F081508883811106C0EB81FC8172
:1015700089819A81099588830D80DE81C02DEDCF08
:10158000015039F7DDCF8091A4009091A500892BFF
:10159000C9F0C091A400D091A500209789F088815E
:1015A000882351F081508883811106C0EB81FC8132
:1015B00089819A81099588830D80DE81C02DEDCFC8
:1015C000115039F7DF91CF911F910F9108952F920C
:1015D0003F924F925F926F927F928F929F92AF92C3
:1015E000BF92CF92DF92EF92FF920F931F93CF9310
:1015F000DF9300D000D0CDB7DEB79C838B837C0116
:1016000081E8E80EF11C6B807C8090E8690E711C0B
:101610000B811C810E571F4FEB81FC81ED57FF4F53
:101620006F018B819C818C579F4F4C0180E8282E45
:10163000AB80BC8097E8A90EB11CEB81FC81EB5715
:10164000FF4FFA83E983F7018081F30190818917C5
:1016500009F498C0EB81FC81E80FF11D308037FE62
:101660001BC0F8019081891721F0F50190819F5FDF
:101670009083F80180838FEFF6018083832D80763D
:10168000803621F082958F708E5F01C080E0F4017A
:101690008083811106C042C0F401808181113EC067
:1016A0003082F8012081F4013081822F90E0830F95
:1016B000911D8138910594F1422C421AF894F3015E
:1016C0004081F7018081841708F05FC0F8018081B4
:1016D000F42FF81B8F2FF30180837894F70180811A
:1016E000481708F055C0512C50E06B817C81CB012C
:1016F000840D951DE6D0F80180816B817C81680F97
:10170000711DA2018B819C81DCD0F7018081F801E1
:101710009081891BF7018083F8011082F701808195
:101720008F5F8083F8019081282F291B87FF02C0DB
:10173000F7011082F4018081281729F0F6018081D9
:101740008325808380CFF601808138120CC02B81E5
:101750003C81290F311DE981FA81808191810196B7
:101760009183808306C0F50180818F5F808320E0B4
:1017700030E0F7018081F801808321153105F1F215
:10178000C9010FC080E090E00CC0842D840FA3CF6E
:10179000F8018081481B50E06B817C81680F711DCE
:1017A000B1CF0F900F900F900F90DF91CF911F91BD
:1017B0000F91FF90EF90DF90CF90BF90AF909F90F0
:1017C0008F907F906F905F904F903F902F900895F3
:1017D000FC0180818076803611F4818108958081BA
:1017E000807682958F708E5F08959093A700809386
:1017F000A60076CD8091A6009091A700E8CEEF924A
:10180000FF921F93CF93DF937C0119E1CEE2D1E0E9
:101810006C2FC7017ADD8330D1F0813011F4D0E034
:10182000F7CF8230A8F3823011F4D111F0CFCB3151
:1018300008F0C150115059F7E091A600F091A700AF
:10184000E657FF4F80818F5F808386E001C083E091
:10185000DF91CF911F91FF90EF900895CF93DF9389
:10186000CDB7DEB76B970FB6F894DEBF0FBECDBF16
:1018700089836A834B83CE010196C1DF6B960FB6D5
:10188000F894DEBF0FBECDBFDF91CF910895CF9307
:10189000DF93CDB7DEB76B970FB6F894DEBF0FBE00
:1018A000CDBF89836A834B83622FCE0101962DDDE4
:1018B0006B960FB6F894DEBF0FBECDBFDF91CF9110
:1018C0000895FB01DC0102C001900D92415050408F
:1018D000D8F70895E199FECF9FBB8EBBE09A992778
:1018E0008DB30895262FE199FECF9FBB8EBB2DBBF4
:1018F0000FB6F894E29AE19A0FBE01960895F89413
:02190000FFCF17
:10190200010101010164000305070B0F13171B1FDF
:1019120023272B2F33373B3F43474B4F53575B5FB5
:0C19220063676B6F73777B7F7F7F7F00B4
:00000001FF
