S010000041544D65676131362E737265639E
S113000029C0000043C0000041C000003FC0000000
S11300103DC00000D2C60000FAC6000037C0000090
S113002035C000000C94DD0831C000002FC0000072
S11300302DC000002BC0000029C0000027C0000014
S113004025C0000023C0000021C000001FC0000024
S11300501DC0000011241FBECFE5D4E0DEBFCDBF1C
S113006010E0A0E6B0E0E4E3F6E102C005900D92F2
S1130070A638B107D9F722E0A6E8B0E001C01D9286
S1130080AB33B207E1F703D50C94180BB9CFCF9378
S1130090DF93FC01A1E0B0E0028002C0AA0FBB1F05
S11300A00A94E2F748E050E080918A00880F809338
S11300B08A00C081D181288130E02A233B23232B6D
S11300C019F08F5F80938A004150510969F72381A9
S11300D0348180918A002617370738F4811105C0CE
S11300E02F5F3F4F3483238310C081110AC026172A
S11300F0370759F42F5F3F4F3483238381E090E027
S113010006C08F3F11F41482138280E090E0DF91E7
S1130110CF910895DC01062E000C770B13962C91D9
S1130120139730E0ED91FC91119712964C91621760
S1130130730749F0208181E090E001C0880F4A955F
S1130140EAF7822B09C0208181E090E001C0880F8A
S11301504A95EAF78095822380830895DC01ED9126
S1130160FC911197408121E030E0C90112960C9076
S113017002C0880F991F0A94E2F7842780830895A8
S113018021E220938B00FC019781E1E6F0E080E01E
S11301902191921728F02081921710F480938B00FC
S11301A08F5F8132A9F70895D09AD19AA39AA49A1D
S11301B00895D8980895D89A0895AC9808950F93FF
S11301C01F93CF93DF93FC012FEE20839EE0918356
S11301D0138214821582178214861686178643E0CA
S11301E04683108A128A128E138E57E0578B108E14
S11301F0118E61E062A3C3E3D0E0D68FC58F578F21
S113020011A210A223A394A316A217A210A612A6A9
S113021017A611AA12AA35E031A713AA15AA45AF49
S113022016AE12AE13AE14AEDF01AB5BBF4F82E06D
S11302308C93159706E310E011961C930E93129677
S11302401C92119611961C921E9213962C93119641
S11302509C93119713961C92139714961C921497BF
S113026015961C92159717961C9217971C961C921C
S11302701C971E961C921E971F961C921F971696EB
S11302805C93169750961C92509752961C925297D4
S11302905A968C935A975B961C925B9757963C930D
S11302A0579758961C92589759961C92599792961C
S11302B04C9392975E96DC93CE935D975F963C93B6
S11302C05F9791961C921E929097E759FF4F208357
S11302D091831382148215821782148616861786D8
S11302E099E09683108A128A628F138E878B108E00
S11302F0118E94E092A329E330E0368F258F878F07
S113030011A210A2DF91CF911F910F910895FC01CA
S11303102BE330E031832083128281E083833583B1
S113032024838683878325E330E03187208793E025
S1130330928783873587248784E086871786089584
S1130340369993C040918D00442309F441C0242F71
S113035030E02150310984B195B153E096958795E9
S11303605A95E1F7F901EE0FFF1FE654FF4F918311
S1130370808353E2529FF001539FF00D1124E45601
S1130380FE4F678170E0FC01E61BF70BF7FF03C02B
S1130390F195E195F109339724F48230910508F041
S11303A045C08617970751F053E2529FF001539FBF
S11303B0F00D1124E456FE4F54E0508793E2929FCF
S11303C0F001939FF00D1124E456FE4F87832EC055
S11303D084B195B123E0969587952A95E1F790939A
S11303E0C1008093C00020910C0230E0AC01421B9C
S11303F0530B57FF03C051954195510943305105A3
S11304001CF48230910540F48217930719F024E01C
S113041020930D0280930C023898399A3A9A3B98AB
S11304203C98369A81E080938D000895413041F4E0
S1130430389A399A3A9A3B983C98369A82E0F3CFA4
S1130440423041F4389A39983A9A3B983C98369A13
S113045083E0E9CF433049F4389839983A9A3B9885
S11304603C98369A10928D0008950895CF93DF93A7
S1130470EC01898581110AC08885833039F02AE12D
S11304804F816B8180EA0E94E00A888789858823EE
S113049009F457C08A85833009F444C0898990E0FF
S11304A0805090400E94030B2AE1482F682F80EA75
S11304B00E94E00A2FE788E391E0215080409040B9
S11304C0E1F700C000002AE140E560E580EA0E940F
S11304D0E00A2FE788E391E0215080409040E1F763
S11304E000C000002AE148896D8180EA0E94E00A88
S11304F02FE788E391E0215080409040E1F700C06D
S113050000002AE14C856B8181EA0E94E00A8A8717
S11305102FE788E391E0215080409040E1F700C04C
S113052000000FC08B85833041F02AE140E06B81ED
S113053080EA0E94E00A8B8704C08F81811101C088
S113054019868D85833061F02AE14C856B8181EABF
S11305500E94E00A8D87833019F48C8584738C871C
S11305608B89833051F02AE14A896B8182EA0E94A7
S1130570E00A8B8B833009F41A8ADF91CF910895B6
S113058090918A0096958111905890938A000895CD
S1130590CF92DF92EF92FF920F931F93CF93DF934B
S11305A01F92CDB7DEB78983142F790101E001C012
S11305B0000F6A95EAF788E0C82ED12C8981802340
S11305C0DFDF81E0C81AD108C9F7E12F110FFF0B53
S11305D0E75DFD4F808190918A00863028F49F3F2B
S11305E019F48F5F80830FC091110DC0853058F0CE
S11305F01082F701948580E28927848781E08187CE
S113060084E0828783870F90DF91CF911F910F91B0
S1130610FF90EF90DF90CF900895EF92FF920F93A9
S11306201F93CF93DF931F92CDB7DEB78983042F37
S113063011E001C0110F6A95EAF788E0E82EF12C69
S1130640898181239DDF81E0E81AF108C9F7E02F51
S1130650002E000CFF0BEF53FF4F808190918A0016
S1130660853028F49F3F19F48F5F808314C0911163
S113067012C0853080F010828091D500081307C025
S11306809091D60081E089278093D60002C0109211
S1130690D6000093D5000F90DF91CF911F910F9159
S11306A0FF90EF900895CF92DF92EF92FF920F9315
S11306B01F93CF93DF931F92CDB7DEB78983E42EC8
S11306C0890181E0F82E01C0FF0C6A95EAF788E001
S11306D0C82ED12C89818F2153DF21E0C21AD10881
S11306E0C9F78E2D0E2C000C990BFC01E855FF4F19
S11306F0208130918A00253030F43F3F09F047C013
S11307002F5F208344C0311142C010822091D60053
S1130710211122C024E0F80125874485F1E0EF127D
S113072003C020E124270BC00297F4E021E030E06D
S1130730EF1641F001C0220F8A95EAF7242BF80145
S1130740248725C0B90102C0660F771F8A95E2F796
S1130750CB018427F8011AC02130C9F424E0F80140
S1130760238BF1E0EF1679F0029721E030E0A90144
S113077002C0440F551F8A95E2F7CA01F801928915
S1130780892B828B04C0F8018485886084870F904C
S1130790DF91CF911F910F91FF90EF90DF90CF9059
S11307A00895AF9AC09AAD9ADA9AA89ADB9AAA9A4F
S11307B0A99A939A949A959A969A089584E690E0C1
S11307C0EFE5FAEE3197F1F700C000000197C1F7A9
S11307D00895FC014485638181EAD9D68093B800E9
S11307E00895CF93DF93CDB7DEB7A3970FB6F894F0
S11307F0DEBF0FBECDBFFC018FEE89838EE08A83FE
S113080083818C8384818D8385818E83878188878E
S113081084858D8786858F878785888B8089898B5A
S113082082898B8B84898D8B85898E8BCE010196F1
S11308307FD6833069F080916000883121F08E3159
S113084021F08B3029F484E101C081E080936000C1
S1130850A3960FB6F894DEBF0FBECDBFDF91CF9144
S11308600895462F682F8AEB92D6833049F0809101
S11308706000863111F484E101C080E2809360005D
S11308800895FC01458160898FEB81C6CF93DF9386
S1130890EC01E091E100F091E20083818C836481BA
S11308A06D839185988B9381987F892B8C8382812A
S11308B08B8385818F8386818C8787818E878085D2
S11308C08F8782858A8B8E8190E080509040A3D65A
S11308D0898990E0688980509040DF91CF919BC6D0
S11308E0CF93DF93EC011D82188A8E8190E060E043
S11308F08050904090D6898990E060E0805090408C
S11309008AD680E280936000AE0160E08B81DF9143
S1130910CF91A7CFCF93DF93EC0105D6FC01909341
S1130920E2008093E100892B09F4AEC08081823A11
S113093009F49CC038F4803A09F46DC0813A09F492
S113094077C09EC0843B09F449C0873E09F098C033
S113095080916000843161F0863199F18A3009F028
S11309608FC0838185FF8CC0CE0190DF8BE01CC0DB
S11309709D818481981384C098898185981380C04F
S1130980838180738033A9F483859C89981304C080
S11309902D899485291729F081113AC08485811104
S11309A037C0CE0173DF88E180936000CE0119DF88
S11309B067C086E1809360008281AE01682F51DFB9
S11309C05FC09D81848198135BC098898185981349
S11309D057C0838180738033D9F4E3CF8091600062
S11309E08B3071F018F48A3099F04AC0883141F0A4
S11309F08E3109F045C081818F3609F041C008C0AD
S1130A0081818F3609F03CC081E08093600038C05A
S1130A10CE0166DF35C080916000813089F5918117
S1130A208B8198132DC082818F83CE01A9DB28C0CE
S1130A3080916000813021F591818B81981320C0D1
S1130A4080918C0082509281823070F48C85282FA2
S1130A50292725FF09C080728C8792819F7D892B6D
S1130A608C87CE01B6DE0CC09C870AC080916000E2
S1130A70813031F491818B81981302C082818A8BF9
S1130A801092E2001092E100DF91CF91089514BE1C
S1130A9083E080938C0085DE10928B0089E990E0DE
S1130AA036DC82DB69E970E08CE991E088DB80E088
S1130AB090E0A9D58093B00181E090E0A4D5809323
S1130AC0B10183EE90E02AD5ABD37894459902C066
S1130AD0BFD3FCCFC2E38AE090E0AFD3B9D3C15017
S1130AE0D1F78091A101882311F090E0A6D38091E1
S1130AF0AC01882311F090E0A0D3C9E9D0E061E013
S1130B00CE0108DB249620E0C93AD207C1F756DEAD
S1130B10CCE9D1E004E18E8190E08050904073D51F
S1130B20F82E1989811108C0812F90E080509040DF
S1130B306AD5882309F450C0FD82812F90E080504B
S1130B40904061D5888B009360008D85833049F196
S1130B50CE0197DE8D8781EA90E000DBF6CF4091ED
S1130B60860050918700609188007091890040321E
S1130B70514A67407105C0F4CE01CCDE80918600F5
S1130B8090918700A0918800B09189000196A11DE1
S1130B90B11D8093860090938700A0938800B09342
S1130BA089008B818823D9F21092860010928700E5
S1130BB0109288001092890081110EC08E8190E0FD
S1130BC060E08050904027D5898990E060E08050B3
S1130BD0904021D51D82188AA39622E0C832D207FC
S1130BE009F099CFD89AD99AAB9AE7DA16B8E3DA2A
S1130BF0E5DDDFDAE3DD1092D6008FE090E090933C
S1130C00BB008093BA0086B1876C86B9389839984E
S1130C103A9A3B983C98369A8FEF99E628E18150AE
S1130C2090402040E1F700C0000060E089E990E0D6
S1130C3071DA9AE0D92ECCE9D1E089E9E82E80E096
S1130C40F82E00E010E083B32CE931E041E060E0ED
S1130C509FDC89B32FEB31E042E063E099DC83B39E
S1130C6022EE31E043E062E093DC83B325E032E03E
S1130C7044E061E08DDC83B341E067E0CEDC86B321
S1130C8042E060E0CADC83B343E065E0C6DC89B3DC
S1130C9044E062E0C2DC8091D500082E000C990B80
S1130CA001978017910709F568E873E1CE014D9625
S1130CB0EED9892B31F0CE0113DEC7014FDA109241
S1130CC0D50080B39E0141E063E0EDDC80B39E017A
S1130CD042E064E0E8DC80B39E0143E065E0E3DCED
S1130CE080B39E0144E066E0DEDC2ADBCE0112DE46
S1130CF08091D500082E000C990B0197801791075D
S1130D0009F03FC08D8181113CC08889811139C0AF
S1130D101F821C861A8AD0926000AE0160E0A1DDB9
S1130D208D81811123C08091860090918700A091CC
S1130D308800B091890080329E44A105B105B0F4C9
S1130D40CE01E8DD8091860090918700A091880013
S1130D50B09189000196A11DB11D809386009093E6
S1130D608700A0938800B0938900DACF10928600A0
S1130D701092870010928800109289001092D5007A
S1130D8003C0602FCE0172DB8C8585FD06C08D818A
S1130D90811105C08889811102C060E001C061E051
S1130DA0C701B8D90F5F1F4F84E0E80EF11CA3966A
S1130DB00430110509F047CF3ECF1F920F920FB6B2
S1130DC00F9211248F939F9389B78F7D89BF86B526
S1130DD097B580569A4F9093340280933302809152
S1130DE03302909134029BBD8ABD88B7806188BF6D
S1130DF089B7806189BF84E08093370210923802FA
S1130E009F918F910F900FBE0F901F9018951F9276
S1130E100F920FB60F9211240F931F932F933F93AA
S1130E204F935F936F937F938F939F93AF93BF93EE
S1130E30CF93DF93EF93FF93809133029091340229
S1130E4080549C4F909334028093330280913302F8
S1130E50909134029BBD8ABD809138028F5F80934C
S1130E603802809137028430C1F58091380289308C
S1130E7068F480913202869580933202459BDAC0F1
S1130E8080913202806880933202D4C088B7806235
S1130E9088BF89B7806289BF8091350290913602FC
S1130EA0459907C0FC01E957FF4F80818F5F80831C
S1130EB00FC040913202FC01E058FF4F308121E025
S1130EC0230F2083DC01A30FB11D4C9327FD108257
S1130ED01092380281E08093370280913702833088
S1130EE009F074C098B388B19695829586958770F9
S1130EF0892780FD04C01092380282E065C0809189
S1130F003802893068F48091320280FF02C0C198AF
S1130F1001C0C19A8091320286958093320256C0F4
S1130F2080913802893011F4C19850C08091300208
S1130F308F5F80933002909131028917E8F4109208
S1130F403802E0913902F0913A0280913002E80FC0
S1130F50F11D808180933202C19A8CB59DB5805475
S1130F609C4F90933402809333028091330290918A
S1130F7034029BBD8ABD2AC081E080932F02C091B8
S1130F803902D0913A020091350210913602CE0115
S1130F90B8D220E030E0F801E058FF4F281788F479
S1130FA0DE01A20FB31F5C91408191E0940F908306
S1130FB0D801A40FB11D5C9397FD10822F5F3F4FA2
S1130FC0EDCF1092380281E080933702809137028E
S1130FD08230C9F480913802811102C0C19A13C0D1
S1130FE0809138028F3078F0C1981092380281E0F5
S1130FF080933702E0913502F0913602E557FF4FB6
S113100080818F5F808380913702813099F4809151
S11310103802811106C088B7806288BF89B78062B0
S113102008C080913802883328F01092370289B7BB
S11310308F7E89BFFF91EF91DF91CF91BF91AF91E7
S11310409F918F917F916F915F914F913F912F91DC
S11310501F910F910F900FBE0F901F9018959093B2
S1131060360280933502C198B99A87E188B9109203
S1131070370288B7806288BF89B7806289BF8EB51E
S1131080887F81608EBD08951F93CF93DF93EC0119
S1131090162F37D280933102809131028150109201
S11310A030029FEF20913002281768F4209130021B
S11310B0FE01E20FF11D20819227209130022F5F63
S11310C020933002EFCFFE01E80FF11D9083F894D6
S11310D080913702813069F480913802612F19338D
S11310E008F068E3861728F01092370289B78F7EDC
S11310F089BF789480913702813039F49091380215
S1131100943108F056C080E054C0809137028111B8
S11311104DC0F89489B78F7D89BF08B605FE05C018
S113112089B7806289BF789441C0C19A8CB59DB556
S113113080549C4F90933402809333028091330205
S1131140909134029BBD8ABD7894D0933A02C093A7
S113115039021092300210922F0288818093320259
S113116083E0809337021092380288B7806188BF89
S113117089B7806189BF809137028330E1F3809120
S11311802F02882369F0E0913502F0913602E85786
S1131190FF4F8081918101969183808383E009C010
S11311A080913702823021F086E003C082E001C0E2
S11311B085E0DF91CF911F9108951F920F920FB692
S11311C00F9211248F939F9382EC82BF80919000A1
S11311D08F5F80939000809192008F5F843618F423
S11311E08093920007C010929200809191008F5FCB
S11311F08093910080918E0090918F00892B49F00B
S113120080918E0090918F00019790938F0080932E
S11312108E009F918F910F900FBE0F901F90189585
S113122082EC82BF88B7816088BF89B7816089BF3B
S113123083B7887F846083BF089590938F008093E1
S11312408E0080918E0090918F00892BD1F70895A4
S11312500F931F93CF93DF938FB7F894009190006F
S11312601092900010919100109291008FBF011183
S113127003C0111121C03FC080919300909194004C
S1131280892BB9F3C0919300D0919400209789F0F1
S11312908881882351F081508883811106C0EB81B5
S11312A0FC8189819A81099588830D80DE81C02D16
S11312B0EDCF015039F7DDCF8091950090919600E4
S11312C0892BC9F0C0919500D0919600209789F0A0
S11312D08881882351F081508883811106C0EB8175
S11312E0FC8189819A81099588830D80DE81C02DD6
S11312F0EDCF115039F7DF91CF911F910F910895E0
S11313002F923F924F925F926F927F928F929F9211
S1131310AF92BF92CF92DF92EF92FF920F931F93FF
S1131320CF93DF9300D000D0CDB7DEB79C838B83FF
S11313307C0181E8E80EF11C6B807C8090E8690EEA
S1131340711C0B811C810E571F4FEB81FC81ED57E3
S1131350FF4F6F018B819C818C579F4F4C0180E81C
S1131360282EAB80BC8097E8A90EB11CEB81FC81D0
S1131370EB57FF4FFA83E983F7018081F3019081F2
S1131380891709F498C0EB81FC81E80FF11D3080C6
S113139037FE1BC0F8019081891721F0F501908177
S11313A09F5F9083F80180838FEFF6018083832D04
S11313B08076803621F082958F708E5F01C080E048
S11313C0F4018083811106C042C0F401808181113F
S11313D03EC03082F8012081F4013081822F90E0F8
S11313E0830F911D8138910594F1422C421AF8948F
S11313F0F3014081F7018081841708F05FC0F80190
S11314008081F42FF81B8F2FF30180837894F701E8
S11314108081481708F055C0512C50E06B817C81C5
S1131420CB01840D951DE6D0F80180816B817C8110
S1131430680F711DA2018B819C81DCD0F701808132
S1131440F8019081891BF7018083F8011082F7016C
S113145080818F5F8083F8019081282F291B87FF6B
S113146002C0F7011082F4018081281729F0F601E7
S113147080818325808380CFF601808138120CC05F
S11314802B813C81290F311DE981FA818081918171
S113149001969183808306C0F50180818F5F8083EC
S11314A020E030E0F7018081F801808321153105C7
S11314B0F1F2C9010FC080E090E00CC0842D840FCC
S11314C0A3CFF8018081481B50E06B817C81680FB9
S11314D0711DB1CF0F900F900F900F90DF91CF91AE
S11314E01F910F91FF90EF90DF90CF90BF90AF903E
S11314F09F908F907F906F905F904F903F902F9030
S11315000895FC0180818076803611F481810895EC
S11315108081807682958F708E5F08959093980075
S1131520809397009CCD8091970090919800E8CE8D
S1131530EF92FF921F93CF93DF937C0119E1CEE2E8
S1131540D1E06C2FC701A0DD8330D1F0813011F4DC
S1131550D0E0F7CF8230A8F3823011F4D111F0CF6C
S1131560CB3108F0C150115059F7E0919700F09138
S11315709800E657FF4F80818F5F808387E001C02A
S113158083E0DF91CF911F91FF90EF900895CF9367
S1131590DF93CDB7DEB7A3970FB6F894DEBF0FBEC7
S11315A0CDBF89836A834B83CE010196C1DFA396A5
S11315B00FB6F894DEBF0FBECDBFDF91CF91089573
S11315C0CF93DF93CDB7DEB7A3970FB6F894DEBF02
S11315D00FBECDBF89836A834B83622FCE010196F0
S11315E053DDA3960FB6F894DEBF0FBECDBFDF91D7
S11315F0CF910895FB01DC0102C001900D9241508E
S11316005040D8F70895E199FECF9FBB8EBBE09A76
S113161099278DB30895262FE199FECF9FBB8EBBEA
S11316202DBB0FB6F894E29AE19A0FBE0196089585
S1071630F894FFCF58
S113163464000305070B0F13171B1F23272B2F33DA
S1131644373B3F43474B4F53575B5F63676B6F7342
S1091654777B7F7F7F7F9E
S9030000FC
