:1000000029C0000042C00000F8C000003EC000004F
:100010003CC0000008C4000030C4000036C000002E
:1000200034C0000008C6000030C000002EC0000030
:100030002CC000002AC0000028C0000026C000001C
:1000400024C0000022C0000020C000001EC000002C
:100050001CC0000011241FBECFE5D4E0DEBFCDBF21
:1000600010E0A0E6B0E0EAEAFEE002C005900D92E2
:10007000A636B107D9F721E0A6E6B0E001C01D928F
:10008000AB39B207E1F7A2D20EC7BACF839B03C048
:1000900085B78B7F02C085B7846085BF8AB78068CB
:1000A0008ABF8BB780688BBF80E00895109266008E
:1000B00080E0089586B38F7390916200891799F05C
:1000C00090916B00916090936B008093620090918F
:1000D0006700907C909367009091670080958F7384
:1000E000892B8093670080B380729091610089179B
:1000F00091F090916B00916090936B008093610000
:10010000882321F0809167008F7B03C08091670076
:1001100080648093670020916C008EEF820F8230A4
:10012000D8F483B3827090916000891791F0909118
:100130006B00916090936B0080936000882321F0A6
:10014000809167008F7703C08091670080688093FB
:100150006700233009F41FD38AE008950F9380913C
:100160006C00833011F40CD32CC008D310926600BD
:1001700000E020E030E046E550E060E089E291E018
:100180009AD581B3837F81BB82B38C6082BB01E04F
:1001900020E030E046E450E060E086E890E08BD577
:1001A00085B7886085BF839B03C085B78B7F02C0FE
:1001B00085B7846085BF8AB780688ABF8BB780683F
:1001C0008BBF8D98959A8D98959A87B3807C87BBC5
:1001D00088B38F6388BB80916C008250823010F4AA
:1001E000A198A99A01E020E030E04AE550E06AE0F9
:1001F00084E990E060D50F9108951F920F920FB699
:100200000F9211248F938BB78F778BBF05B602FEA9
:1002100003C0829B03C006C0829B04C0809168001B
:100220008F5F03C0809168008150809368008F9138
:100230000F900FBE0F901F90189580936500863128
:10024000A9F160F48C3038F48A3080F5882399F075
:100250008130A9F02DC0843149F12AC0803259F093
:1002600028F4883119F18E3131F022C08436E1F062
:100270008536E1F01DC0AA98AB98AC9A12C0FB017C
:10028000868185FF03C0AA98AB9A02C0AB98AA9A50
:10029000AC9880916C00833021F4809163008823B6
:1002A00029F01092640007C084E003C081E001C01F
:1002B0008AE080936400609164008DE890E01EC540
:1002C0001F93CF93DF93CDB7DEB763970FB6F89444
:1002D000DEBF0FBECDBF80916500843101F148F4CF
:1002E000813079F008F45AC08A50823008F056C044
:1002F00016C08831A1F08E3141F1863109F04EC02F
:100300000EC0E091690083E1E802F0011124ED5B89
:10031000FE4F4581628180EA98D58AEF42C06091A4
:10032000690013E16103B00111246D5B7E4F84E12C
:1003300084DF209169002103F0011124ED5BFE4F61
:10034000448161858FEB81D525C08FEE89838EE056
:100350008A83E091690083E1E802F0011124ED5BFA
:10036000FE4F82818B8383818C8384818D83858101
:100370008E8386818F838781888780858987818521
:100380008A8782858B8783858C8784858D87CE013C
:1003900001962CD5833021F484E103C080E001C0B4
:1003A00083E063960FB6F894DEBF0FBECDBFDF913A
:1003B000CF911F910895FC01A081B1819FEE9C9384
:1003C000A081B1818EE011968C93A081B1811296AB
:1003D0001C92A081B18113961C92A081B1811496C8
:1003E0001C92A081B18115961C92A081B1811696B4
:1003F0001C92A081B18117961C92A081B1811896A0
:100400001C92A081B18119961C92A081B1811A968B
:100410001C92A081B1811F961C92A081B18127E01E
:100420001E962C93A081B18151961C92A081B1811E
:100430002BB352962C93A281B3819C93A281B3815A
:1004400011968C93A281B38112961C92A281B381E2
:1004500013961C92A281B38114961C92A281B3813F
:1004600015961C92A281B38116961C92A281B3812B
:1004700017961C92A281B38118961C92A281B38117
:1004800019961C92A281B3811A961C92A281B38103
:1004900033E01F963C93A281B3811E961C92A281E9
:1004A000B38121E051962C93A281B3814BB3529634
:1004B0004C93A481B5819C93A481B58111968C93B2
:1004C000A481B58112961C92A481B58113961C92C9
:1004D000A481B58114961C92A481B58115961C92B5
:1004E000A481B58116961C92A481B58117961C92A1
:1004F000A481B58118961C92A481B58119961C928D
:10050000A481B5811A961C92A481B5811F962C9363
:10051000A481B58124E01E962C93A481B5815196C7
:100520003C93A481B58135B352963C93A681B781A3
:100530009C93A681B78111968C93A681B781129660
:100540001C92A681B78113961C92A681B78114963E
:100550001C92A681B78115961C92A681B78116962A
:100560001C92A681B78117961C92A681B781189616
:100570001C92A681B78119961C92A681B7811A9602
:100580001C92A681B78182E01F968C93A681B781C9
:100590001E968C93A681B78151962C930680F78185
:1005A000E02D85B3828B0895FC01448161858FEB3A
:1005B0004CD4833011F063E001C064E18FE790E038
:1005C0009DC3482F4F776AE288EA3FC414BEA598BE
:1005D000AD9A9D9B02C083E001C081E080936C00D6
:1005E00010926A0083E491E0E6DE85E090E046D474
:1005F000853551F163E471E084E61FDE60E083E05D
:1006000090E044D460E082E090E040D460E084E098
:1006100090E03CD461E087E090E038D466E088E088
:1006200090E034D466E089E090E030D464E08AE081
:1006300090E02CD460E18BE090E028D460916C00D5
:1006400086E090E023D440C087E090E017D481306A
:10065000A1F488E090E012D4863079F489E090E04B
:100660000DD4863051F48AE090E008D4843029F427
:100670008BE090E003D48031A1F061E087E090E06E
:1006800005D466E088E090E001D466E089E090E07F
:10069000FDD364E08AE090E0F9D360E18BE090E084
:1006A000F5D363E471E080E0C8DD83E090E0E6D359
:1006B0008093470182E090E0E1D380934C0184E095
:1006C00090E0DCD38093460181E090E0D7D3809323
:1006D0004E0180E090E0D2D380934F018DE990E00D
:1006E00080D33CDDDBD200E020E030E040E651E0AA
:1006F00060E08FE790E0DFD27894809165008436E7
:1007000068F58091470163E471E0811104C0809134
:100710004C01882311F084E101C080E28EDD45990F
:1007200002C0FAD2FCCFC2E38AE090E0EAD2F4D26F
:10073000C150D1F780914701882311F090E0E1D2B8
:1007400080914C01882311F090E0DBD2809165000C
:10075000843131F483E491E027DF02C080E031DFAF
:10076000A49AA39AD09AD19A9A99D89A9A9BD898EF
:100770009999D99A9999F8CFD998F6CF16B808953A
:1007800080E487B986EC86B93699FECF85B11092A0
:100790007300369A0895369945C084B195B1909307
:1007A000720080937100369A20917100309172002E
:1007B00080916F0090917000821B930B97FF03C094
:1007C000919581959109039724F0309370002093BF
:1007D0006F0020916F003091700083E0369527956F
:1007E0008A95E1F7822F222329F081E0820F8F374B
:1007F00008F08EE790916E00992319F09150909334
:100800006E0090916E00911109C090916D00891752
:1008100029F080936D008AE080936E0080916D00D6
:100820008093730008951F920F920FB60F921124B8
:100830008F939F9389B78F7D89BF86B597B589566A
:100840009D4F909394018093930180919301909197
:1008500094019BBD8ABD88B7806188BF89B78061DC
:1008600089BF84E080939701109298019F918F91A6
:100870000F900FBE0F901F9018951F920F920FB6FA
:100880000F9211240F931F932F933F934F935F93D6
:100890006F937F938F939F93AF93BF93CF93DF9388
:1008A000EF93FF93809193019091940186549E4F12
:1008B000909394018093930180919301909194017E
:1008C0009BBD8ABD809198018F5F80939801809134
:1008D00097018430C1F580919801893068F4809146
:1008E0009201869580939201459BDBC08091920195
:1008F000806880939201D5C088B7806288BF89B72D
:10090000806289BF8091950190919601459907C0B9
:10091000FC01E957FF4F80818F5F80830FC04091BA
:100920009201FC01E058FF4F308121E0230F20832A
:10093000DC01A30FB11D4C9327FD1082109298018A
:1009400081E08093970180919701833009F075C011
:1009500082B398B192959695977082958F708927FA
:1009600080FD04C01092980182E065C080919801DA
:10097000893068F48091920180FF02C0949801C090
:10098000949A8091920186958093920156C08091AD
:100990009801893011F4949850C0809190018F5F34
:1009A00080939001909191018917E8F41092980139
:1009B000E0919901F0919A0180919001E80FF11D69
:1009C000808180939201949A8CB59DB5885A9E4FF0
:1009D000909394018093930180919301909194015D
:1009E0009BBD8ABD2AC081E080938F01C09199018F
:1009F000D0919A010091950110919601CE01E4D118
:100A000020E030E0F801E058FF4F281788F4DE01BD
:100A1000A20FB31F5C91408191E0940F9083D801A5
:100A2000A40FB11D5C9397FD10822F5F3F4FEDCF58
:100A30001092980181E08093970180919701823014
:100A4000C9F480919801811102C0949A13C08091D9
:100A500098018F3078F094981092980181E08093FB
:100A60009701E0919501F0919601E557FF4F808144
:100A70008F5F808380919701813099F480919801F4
:100A8000811106C088B7806288BF89B7806208C0BC
:100A900080919801883328F01092970189B78F7E52
:100AA00089BFFF91EF91DF91CF91BF91AF919F915E
:100AB0008F917F916F915F914F913F912F911F91F6
:100AC0000F910F900FBE0F901F9018959093960165
:100AD0008093950194988C9A87E188B91092970138
:100AE00088B7806288BF89B7806289BF8EB5887FEA
:100AF00081608EBD08950F931F93CF93DF931F9254
:100B0000CDB7DEB78C0169835FD18093910180916D
:100B100091018150109290019FEF69812091900185
:100B2000281768F420919001F801E20FF11D20814F
:100B30009227209190012F5F20939001EFCFF80131
:100B4000E80FF11D9083F89480919701813061F452
:100B500080919801693308F068E3861728F01092B5
:100B6000970189B78F7E89BF7894809197018130F2
:100B700039F490919801943108F057C080E055C045
:100B80008091970181114EC0F89489B78F7D89BFFC
:100B900008B605FE05C089B7806289BF789442C057
:100BA000949A8CB59DB5885A9E4F909394018093EA
:100BB000930180919301909194019BBD8ABD78949B
:100BC00010939A01009399011092900110928F0155
:100BD000F80180818093920183E0809397011092C5
:100BE000980188B7806188BF89B7806189BF80918B
:100BF00097018330E1F380918F01882369F0E091C0
:100C00009501F0919601E857FF4F808191810196FF
:100C10009183808383E009C080919701823021F025
:100C200085E003C082E001C084E00F90DF91CF91A6
:100C30001F910F9108951F920F920FB60F921124DA
:100C40008F939F9384EE82BF809176008F5F809315
:100C50007600809178008F5F843618F48093780056
:100C600007C010927800809177008F5F80937700A3
:100C70008091740090917500892B49F080917400E7
:100C800090917500019790937500809374009F91E7
:100C90008F910F900FBE0F901F90189584EE82BF1A
:100CA00088B7816088BF89B7816089BF83B7887F33
:100CB000846083BF08950F93FC018FB7F8940023DD
:100CC00059F0A0917900B0917A00B683A583F09392
:100CD0007A00E09379000AC0A0917B00B0917C007B
:100CE000B683A583F0937C00E0937B0060835483FC
:100CF0004383328321838FBF0F910895FC0160836A
:100D00000895909375008093740080917400909181
:100D10007500892BD1F708950F931F93CF93DF931D
:100D20008FB7F894009176001092760010917700BA
:100D3000109277008FBF011103C0111121C03FC075
:100D40008091790090917A00892BB9F3C091790054
:100D5000D0917A00209789F08881882351F08150C2
:100D60008883811106C0EB81FC8189819A81099574
:100D700088830D80DE81C02DEDCF015039F7DDCFA6
:100D800080917B0090917C00892BC9F0C0917B0001
:100D9000D0917C00209789F08881882351F0815080
:100DA0008883811106C0EB81FC8189819A81099534
:100DB00088830D80DE81C02DEDCF115039F7DF9192
:100DC000CF911F910F910895FC018081807680362C
:100DD00011F4818108958081807682958F708E5F75
:100DE000089590937E0080937D0070CEEF92FF92E5
:100DF0001F93CF93DF937C0119E1CEE2D1E06C2FFA
:100E0000C70179DE8330D1F0813011F4D0E0F7CF23
:100E10008230A8F3823011F4D111F0CFCB3108F039
:100E2000C150115059F7E0917D00F0917E00E657D6
:100E3000FF4F80818F5F808386E001C083E0DF9178
:100E4000CF911F91FF90EF900895CF93DF93CDB78F
:100E5000DEB763970FB6F894DEBF0FBECDBF8983B0
:100E60006A834B83CE010196C1DF63960FB6F89477
:100E7000DEBF0FBECDBFDF91CF910895E199FECFC8
:100E80009FBB8EBBE09A99278DB30895262FE199D9
:100E9000FECF9FBB8EBB2DBB0FB6F894E29AE19AB2
:0A0EA0000FBE01960895F894FFCFED
:060EAA00010101010164D9
:00000001FF
