S010000041544D65676131362E737265639E
S113000029C0000042C0000041C000003EC0000002
S11300103CC000009CC00000C4C0000036C000000A
S113002034C00000FAC1000030C000002EC000003F
S11300302CC000002AC0000028C0000026C0000018
S113004024C0000022C0000020C000001EC0000028
S11300501CC0000011241FBECFE5D4E0DEBFCDBF1D
S113006010E0A0E6B0E0EEE9F4E002C005900D92E5
S1130070A036B107D9F721E0A0E6B0E001C01D9297
S1130080AD36B207E1F72FD008C2BACF1F920F9254
S11300900FB60F9211248F938BB78F778BBF05B652
S11300A002FE0EC0829B06C0809160008150809346
S11300B0600013C0809160008F5F809360000DC06A
S11300C0829B06C0809160008F5F8093600005C0B2
S11300D0809160008150809360008F910F900FBEDB
S11300E00F901F90189514BE9D9B04C083E08093CD
S11300F0620003C081E08093620010926100E4E931
S1130100F0E09FEE90838EE081831282138214824A
S1130110158216821782108611861286E4E8F0E0B2
S1130120908381831282138214821582168217822D
S1130130108611861286A49AA29A9999AC9A999BD0
S1130140AC989B99AA9A9B99F8CFAA98F6CF1F923C
S11301500F920FB60F9211248F939F9389B78F7DBF
S113016089BF86B597B589569D4F90936601809354
S1130170650180916501909166019BBD8ABD88B738
S1130180806188BF89B7806189BF84E080936901F9
S113019010926A019F918F910F900FBE0F901F9044
S11301A018951F920F920FB60F9211240F931F935D
S11301B02F933F934F935F936F937F938F939F936B
S11301C0AF93BF93CF93DF93EF93FF938091650138
S11301D09091660186549E4F9093660180936501C9
S11301E080916501909166019BBD8ABD80916A01F1
S11301F08F5F80936A0180916901843009F03FC068
S113020080916A01893068F48091640186958093B5
S11302106401459BEDC08091640180688093640112
S1130220E7C088B7806288BF89B7806289BF459973
S11302300AC0E0916701F0916801E957FF4F80819E
S11302408F5F808317C04091640180916701909112
S11302506801FC01E058FF4F308121E0230F208327
S1130260FC01E30FF11D4083222324F4FC01E05838
S1130270FF4F108210926A0181E08093690180919E
S11302806901833009F07FC082B398B19295969545
S1130290977082958F70892780FD06C010926A013D
S11302A082E0809369016FC080916A01893068F4AB
S11302B08091640180FF02C0949801C0949A809157
S11302C064018695809364015EC080916A018930DF
S11302D011F4949858C0809162018F5F80936201F9
S11302E0909163018917E8F410926A01E0916B011F
S11302F0F0916C0180916201E80FF11D808180937F
S11303006401949A8CB59DB5885A9E4F909366016A
S11303108093650180916501909166019BBD8ABDC2
S113032032C081E080936101C0916B01D0916C0176
S11303300091670110916801CE01A2D08823F1F0E9
S11303408150682F70E06F5F7F4F20E030E0F8014C
S1130350E058FF4FDE01A20FB31F8C91408191E062
S1130360940F9083D801A40FB11D8C9399230CF49E
S113037010822F5F3F4F2617370761F710926A01EB
S113038081E080936901809169018230C9F4809190
S11303906A01811102C0949A13C080916A018F305E
S11303A078F0949810926A0181E080936901E09159
S11303B06701F0916801E557FF4F80818F5F80836B
S11303C0809169018130A1F480916A01811107C093
S11303D088B7806288BF89B7806289BF09C080916D
S11303E06A01883328F01092690189B78F7E89BF2A
S11303F0FF91EF91DF91CF91BF91AF919F918F9139
S11304007F916F915F914F913F912F911F910F9128
S11304100F900FBE0F901F9018951F920F920FB65A
S11304200F9211248F939F9384EE82BF8091650075
S11304308F5F80936500809167008F5F843618F426
S11304408093670007C010926700809166008F5FF9
S1130450809366008091630090916400892B49F039
S1130460809163009091640001979093640080935D
S113047063009F918F910F900FBE0F901F9018955E
S1130480FC0190819076903611F4818108958081E9
S1110490807682958F708E5F0895F894FFCF6A
S9030000FC
