:10000000ADC00000C7C00000BFC10000C3C00000F9
:10001000C1C0000078C50000A0C50000BBC0000042
:10002000B9C0000087C70000B5C00000B3C0000021
:10003000B1C00000AFC00000ADC00000ABC0000008
:10004000A9C00000A7C00000A5C00000A3C0000018
:10005000A1C00000FB0101022602260226022602A0
:1000600026022602260226021A021A022602260268
:100070002602260226022602260226021A0226024C
:100080001A0226021A022602260226022602260248
:10009000FB012602FB012602260226022602260278
:1000A0002602260226022602260226022602260210
:1000B0002602260226022602260226022602260200
:1000C00026022602260226022602260226022602F0
:1000D00026022602260226022602260226022602E0
:1000E00026022602260226022602260226022602D0
:1000F00026022602260226022602260226022602C0
:1001000026022602260226022602260226022602AF
:100110002602260226022602260226021E022202AB
:100120004702990299029902990299029902990249
:10013000990255025502990299029902990299026F
:1001400099029902990255029902550299025502A3
:10015000990299029902990299026E0211241FBE16
:10016000CFE5D4E0DEBFCDBF10E0A0E6B0E0ECEC20
:10017000F1E102C005900D92A636B107D9F721E052
:10018000A6E6B0E001C01D92A53BB207E1F776D329
:100190000C94E40835CF839B04C085B78B7F85BF63
:1001A00003C085B7846085BF8AB780688ABF8BB774
:1001B00080688BBF80E008951092660080E008950B
:1001C00086B38F7390916200891799F090917200B5
:1001D0009160909372008093620090916700907C90
:1001E000909367009091670080958F73892B80931F
:1001F000670080B38072909161008917A1F090919F
:10020000720091609093720080936100882331F0B6
:10021000809167008F7B8093670005C080916700A5
:10022000806480936700809173009EEF980F9230F6
:10023000D0F493B39270209160009217A1F02091B6
:10024000720021602093720090936000992331F036
:10025000909167009F779093670005C09091670029
:10026000906890936700833009F404D48AE008957D
:10027000D09AD19AA39AA49A0895D89A0895D99A0F
:100280000895AB9A0895AC9A0895D8980895D9988E
:100290000895AB980895AC980895D89B02C0D8985B
:1002A0000895D89A0895D99B02C0D9980895D99AEB
:1002B0000895AB9B02C0AB980895AB9A0895AC9B90
:1002C00002C0AC980895AC9A08950F938091730082
:1002D000833011F4C4D32DC0C0D31092660000E067
:1002E00020E030E04CED50E060E082E391E062D647
:1002F00081B3837F81BB82B38C6082BB01E020E04D
:1003000030E04BEC50E060E08EE890E053D685B7EB
:10031000886085BF839B04C085B78B7F85BF03C082
:1003200085B7846085BF8AB780688ABF8BB78068CD
:100330008BBF8D98959A8D98959AA798B898BC98E8
:10034000D2988B988D988E9888B38F6388BB809154
:1003500073008250823028F4A098D398A298A19874
:10036000A99A01E020E030E040EE50E06AE08DE93B
:1003700090E020D6D09AD898D19AD998A39AAB98E1
:10038000A49AAC980F9108951F920F920FB60F92F6
:1003900011248F938BB78F778BBF05B602FE0EC0EB
:1003A000829B06C08091680081508093680013C0D2
:1003B000809168008F5F809368000DC0829B06C0AB
:1003C000809168008F5F8093680005C0809168000D
:1003D0008150809368008F910F900FBE0F901F90F7
:1003E00018958093650090E08636910578F5FC01BC
:1003F000E65DFF4FCEC6AA98AB98AC9A1092640007
:1004000028C0FB01868185FF03C0AA98AB9A02C071
:10041000AB98AA9AAC9880917300833041F4809194
:100420006300811104C081E08093640012C01092C7
:1004300064000FC081E0809364000BC084E080936F
:10044000640007C081E08093640003C08AE0809369
:1004500064006091640085E990E0CFC508951F9322
:10046000CF93DF93CDB7DEB766970FB6F894DEBFB4
:100470000FBECDBFE09165008E2F90E0FC0131975B
:10048000EE31F10508F055C0E057FF4F82C6E0910C
:10049000700086E1E802F0011124E15BFE4F458126
:1004A000628180EA5DD68AEF47C06091700016E1F4
:1004B0006103B0011124615B7E4F84E192DF2091E2
:1004C00070002103F0011124E15BFE4F448161853E
:1004D0008FEB46D6833079F584E12EC08FEE898389
:1004E0008EE08A83E091700086E1E802F001112439
:1004F000E15BFE4F82818B8383818C8384818D833A
:1005000085818E8386818F8387818887808589878F
:1005100081858A8782858B8783858C8784858D8773
:10052000CE010196E3D5833011F484E105C083E068
:1005300003C080E001C083E066960FB6F894DEBF8A
:100540000FBECDBFDF91CF911F910895FC019FEEAB
:1005500090838EE081831282138214821582168228
:100560001782108611861286118A128A27E0268742
:100570001786108A148A2BB3258B968B878B108E47
:10058000118E128E138E148E158E168E178E10A24B
:1005900053E057A310A614A215A216A241E042A749
:1005A0002BB323A794A785A716A617A610AA11AA4E
:1005B00012AA13AA14AA15AA16AA32E035AF16AECB
:1005C00024E022AF13AE14AEDF01A05CBF4F5C93FA
:1005D00055B311965C93EE5BFF4F9083818312823B
:1005E0001382148215821682178210861186128653
:1005F000418B128A36871786108A248B85B3858BA8
:100600000895882339F080916F00869580588093F3
:100610006F00089580916F00869580936F00089514
:10062000EF92FF920F931F93CF93DF931F92CDB75B
:10063000DEB78983E62E81E0F82E01C0FF0C6A95B3
:10064000EAF708E010E089818F21DBDF0150110912
:10065000D1F780916B0090916C00A0916D00B091EA
:100660006E008A319105A105B10584F420916F00D7
:100670002F3F61F40196A11DB11D80936B009093F3
:100680006C00A0936D00B0936E002EC020916F009F
:1006900021112AC04997A105B10534F110926B00D0
:1006A00010926C0010926D0010926E0087E0E812BC
:1006B00005C081E080936900F0DD16C0E11005C03F
:1006C00082E080936900EFDD0FC084E0E81205C08E
:1006D00083E080936900EDDD07C082E0E81204C08A
:1006E00084E080936900EBDD0F90DF91CF911F9143
:1006F0000F91FF90EF900895EF92FF920F931F9349
:10070000CF93DF931F92CDB7DEB7898380916900C5
:10071000882309F47CC0E62E81E0F82E01C0FF0C8E
:100720006A95EAF708E010E089818F216ADF0150BD
:100730001109D1F780916A008A3144F490916F00D9
:100740009F3F21F48F5F80936A0061C089310CF470
:100750005EC080916F0081115AC010926A00809132
:1007600069008130A1F483E0E81202C08EDD4FC041
:1007700084E0E81202C08BDD4AC085E0E81202C0C6
:1007800088DD45C086E0E81242C07DDD40C0823091
:10079000A1F483E0E81202C070DD39C084E0E81201
:1007A00002C06DDD34C085E0E81202C06ADD2FC0F2
:1007B00086E0E8122CC06FDD2AC0833099F4E8127D
:1007C00002C063DD24C084E0E81202C060DD1FC007
:1007D00085E0E81202C05DDD1AC086E0E81217C0AD
:1007E00052DD15C0843099F483E0E81202C045DD83
:1007F0000EC084E0E81202C042DD09C085E0E812C4
:1008000002C03FDD04C086E0E81201C044DD0F9065
:10081000DF91CF911F910F91FF90EF900895AF9AC4
:10082000C09AC49ADA9AA89ADB9AAA9AA99A939A31
:10083000949A959A969A089584E690E0EFEFFBE6F5
:100840003197F1F700C000000197C1F70895FC014E
:10085000448161858FEB84D4833029F063E086E89E
:1008600090E0CBC3089564E186E890E0C6C30895A4
:10087000482F4F776AE288EA73C4089514BE83E074
:1008800080937300CCDF109271008FE491E05EDE04
:1008900085E090E084D4853551F16FE471E084E621
:1008A000A0DD60E083E090E082D460E082E090E050
:1008B0007ED460E084E090E07AD461E087E090E06C
:1008C00076D466E088E090E072D466E089E090E05B
:1008D0006ED464E08AE090E06AD460E18BE090E05E
:1008E00066D46091730086E090E061D43FC087E0F9
:1008F00090E055D48130A1F488E090E050D4863067
:1009000079F489E090E04BD4863051F48AE090E0AD
:1009100046D4843029F48BE090E041D48031A1F0BA
:1009200061E087E090E043D466E088E090E03FD467
:1009300066E089E090E03BD464E08AE090E037D460
:1009400060E18BE090E033D46FE471E080E049DD5A
:1009500083E090E024D4CFE4D1E08C8382E090E087
:100960001ED4898784E090E01AD48B8381E090E0E4
:1009700016D4CFE4D1E08B8780E090E010D48C8750
:1009800086EA90E0ADD3A1DC08D300E020E030E0BF
:100990004FE252E060E086E890E00CD378948091DA
:1009A0006500843688F580915301811104C08091DF
:1009B0005801882329F06FE471E084E112DD04C05E
:1009C0006FE471E080E20DDD459945C024D3459B7D
:1009D000FDCF41C08AE090E013D31DD3C150D1F7C1
:1009E00080915301882311F090E00AD3809158013F
:1009F000882311F090E004D380916500843131F4B4
:100A00008FE491E024DF02C080E032DF31DCD89A4D
:100A1000D99AAB9A40DC16B885B337DC0DDF2DDCF4
:100A20000BDFAF9A83B367E0FBDD86B360E0F8DDF0
:100A300086B364E0F5DD89B362E0F2DD80B363E0A4
:100A40005BDE80B364E058DE80B365E055DE80B3E2
:100A500066E052DEE7CFC2E3BDCF16B8089586E464
:100A600087B986EC86B93699FECF85B110927A00A7
:100A7000369A0895369946C084B195B1909379001D
:100A800080937800369A4091780050917900809157
:100A9000760090917700841B950B9C0122F422270D
:100AA0003327281B390B2330310524F0509377006E
:100AB0004093760020917600309177003695279507
:100AC0003695279536952795822F222311F081E0C0
:100AD000820F90917500992329F0915090937500A1
:100AE00091110CC08F3708F08EE790917400981721
:100AF00029F0809374008AE08093750080917400DF
:100B000080937A0008951F920F920FB60F921124CE
:100B10008F939F9389B78F7D89BF86B597B5895687
:100B20009D4F9093AE018093AD018091AD01909166
:100B3000AE019BBD8ABD88B7806188BF89B78061DF
:100B400089BF84E08093B1011092B2019F918F918F
:100B50000F900FBE0F901F9018951F920F920FB617
:100B60000F9211240F931F932F933F934F935F93F3
:100B70006F937F938F939F93AF93BF93CF93DF93A5
:100B8000EF93FF938091AD019091AE0186549E4FFB
:100B90009093AE018093AD018091AD019091AE0133
:100BA0009BBD8ABD8091B2018F5F8093B20180911D
:100BB000B101843009F03FC08091B201893068F4FE
:100BC0008091AC0186958093AC01459BEBC08091F0
:100BD000AC0180688093AC01E5C088B7806288BFB3
:100BE00089B7806289BF45990AC0E091AF01F09151
:100BF000B001E957FF4F80818F5F808317C040911C
:100C0000AC018091AF019091B001FC01E058FF4F21
:100C1000308121E0230F2083FC01E30FF11D40838D
:100C2000222324F4FC01E058FF4F10821092B201FD
:100C300081E08093B1018091B101833009F07DC0E2
:100C400098B388B19695829586958770892780FD9F
:100C500006C01092B20182E08093B1016EC0809113
:100C6000B201893068F48091AC0180FF02C0C19864
:100C700001C0C19A8091AC0186958093AC015DC0A2
:100C80008091B201893011F4C19857C08091AA01B6
:100C90008F5F8093AA019091AB018917E8F41092BD
:100CA000B201E091B301F091B4018091AA01E80F83
:100CB000F11D80818093AC01C19A8CB59DB5885A95
:100CC0009E4F9093AE018093AD018091AD019091C4
:100CD000AE019BBD8ABD31C081E08093A901C09166
:100CE000B301D091B4010091AF011091B001CE01D8
:100CF000EAD18823E9F08150682F70E06F5F7F4F61
:100D000080E090E0F801E058FF4FDE01A80FB91F26
:100D10004C91308121E0230F2083D801A30FB11D16
:100D20004C9322230CF4108201968617970769F7DB
:100D30001092B20181E08093B1018091B1018230C3
:100D4000C9F48091B201811102C0C19A13C080918F
:100D5000B2018F3078F0C1981092B20181E0809397
:100D6000B101E091AF01F091B001E557FF4F8081F3
:100D70008F5F80838091B1018130A1F48091B201B5
:100D8000811107C088B7806288BF89B7806289BF38
:100D900009C08091B201883328F01092B10189B75F
:100DA0008F7E89BFFF91EF91DF91CF91BF91AF917E
:100DB0009F918F917F916F915F914F913F912F9173
:100DC0001F910F910F900FBE0F901F901895909349
:100DD000B0018093AF01C198B99A87E188B91092A8
:100DE000B10188B7806288BF89B7806289BF8EB53C
:100DF000887F81608EBD08951F93CF93DF93EC01B0
:100E0000162F61D18093AB012091AB01215010923C
:100E1000AA018091AA01821790F49FEF8091AA0104
:100E2000FE01E80FF11D808198278091AA018F5F54
:100E30008093AA018091AA01821780F301C09FEFDD
:100E4000FE01E20FF11D9083F8948091B101813091
:100E500061F48091B201193308F018E3811728F08A
:100E60001092B10189B78F7E89BF78948091B101CA
:100E7000813039F49091B201943108F057C080E08C
:100E800055C08091B10181114EC0F89489B78F7D12
:100E900089BF08B605FE06C089B7806289BF78940D
:100EA00082E044C0C19A8CB59DB5885A9E4F9093FC
:100EB000AE018093AD018091AD019091AE019BBDDB
:100EC0008ABD7894D093B401C093B3011092AA0163
:100ED0001092A90188818093AC0183E08093B101D5
:100EE0001092B20188B7806188BF89B7806189BFDD
:100EF0008091B1018330E1F38091A901882369F0E9
:100F0000E091AF01F091B001E857FF4F80819181EE
:100F100001969183808383E009C08091B101823082
:100F200021F085E003C082E001C084E0DF91CF9131
:100F30001F9108951F920F920FB60F9211248F9355
:100F40009F9384EE82BF80917D008F5F80937D00B0
:100F500080917F008F5F843618F480937F0007C0F4
:100F600010927F0080917E008F5F80937E00809141
:100F70007B0090917C00892B49F080917B009091BF
:100F80007C00019790937C0080937B009F918F91D0
:100F90000F900FBE0F901F90189584EE82BF88B7F8
:100FA000816088BF89B7816089BF83B7887F84608B
:100FB00083BF08950F93FC018FB7F894002359F075
:100FC000A0918000B0918100B683A583F093810049
:100FD000E09380000AC0A0918200B0918300B683A4
:100FE000A583F0938300E09382006083548343835E
:100FF000328321838FBF0F910895FC016083089590
:1010000090937C0080937B0080917B0090917C008A
:10101000892BD1F708950F931F93CF93DF938FB749
:10102000F89400917D0010927D0010917E00109246
:101030007E008FBF002301F180918000909181009C
:10104000892BD1F0C0918000D0918100209791F040
:101050008881882351F081508883811106C0EB81FB
:10106000FC8189819A81099588830D80DE81C02D5C
:10107000209771F7015031F7112301F1809182001F
:1010800090918300892BD1F0C0918200D091830090
:10109000209791F08881882351F0815088838111B5
:1010A00006C0EB81FC8189819A81099588830D8036
:1010B000DE81C02D209771F7115031F7DF91CF916C
:1010C0001F910F910895FC0190819076903611F454
:1010D000818108958081807682958F708E5F0895DA
:1010E000909385008093840072CE0895DF92EF92F2
:1010F000FF920F931F93CF93DF938C010F2EF9E193
:10110000EF2EF02DCEE2DD24D394F12C13C0DF2D91
:101110006C2FC80171DE8330D1F08130C1F3C0F390
:10112000823011F4D111F4CFCB3108F0C150EA94E0
:10113000EE2011F0DD2DECCFE0918400F0918500E0
:10114000E657FF4F80818F5F808386E001C083E098
:10115000DF91CF911F910F91FF90EF90DF90089555
:10116000CF93DF93CDB7DEB766970FB6F894DEBFA7
:101170000FBECDBF89836A834B83CE010196B6DF54
:1011800066960FB6F894DEBF0FBECDBFDF91CF914C
:101190000895EE0FFF1F0590F491E02D0994E19959
:1011A000FECF9FBB8EBBE09A99278DB30895262F63
:1011B000E199FECF9FBB8EBB2DBB0FB6F894E29A90
:0C11C000E19A0FBE01960895F894FFCF4D
:0611CC00010101010164B4
:00000001FF
