S010000041544D65676131362E737265639E
S1130000ADC00000C6C0000098C10000C2C000001E
S1130010C0C0000037C400005FC40000BAC00000C4
S1130020B8C0000048C60000B4C00000B2C0000060
S1130030B0C00000AEC00000ACC00000AAC0000008
S1130040A8C00000A6C00000A4C00000A2C0000018
S1130050A0C00000D401DA01FF01FF01FF01FF018C
S1130060FF01FF01FF01FF01F301F301FF01FF01A4
S1130070FF01FF01FF01FF01FF01FF01F301FF0188
S1130080F301FF01F301FF01FF01FF01FF01FF0184
S1130090D401FF01D401FF01FF01FF01FF01FF01B2
S11300A0FF01FF01FF01FF01FF01FF01FF01FF014C
S11300B0FF01FF01FF01FF01FF01FF01FF01FF013C
S11300C0FF01FF01FF01FF01FF01FF01FF01FF012C
S11300D0FF01FF01FF01FF01FF01FF01FF01FF011C
S11300E0FF01FF01FF01FF01FF01FF01FF01FF010C
S11300F0FF01FF01FF01FF01FF01FF01FF01FF01FC
S1130100FF01FF01FF01FF01FF01FF01FF01FF01EB
S1130110FF01FF01FF01FF01FF01FF01F701FB01E7
S1130120200272027202720272027202720272027D
S113013072022E022E0272027202720272027202A3
S11301407202720272022E0272022E0272022E02D7
S113015072027202720272027202470211241FBEFC
S1130160CFE5D4E0DEBFCDBF10E0A0E6B0E0EEE422
S1130170FFE002C005900D92A636B107D9F721E041
S1130180A6E6B0E001C01D92A13BB207E1F73CD264
S1130190DCC636CF839B04C085B78B7F85BF03C085
S11301A085B7846085BF8AB780688ABF8BB780684B
S11301B08BBF80E008951092660080E0089586B3B6
S11301C08F7390916200891799F090916E009160FD
S11301D090936E008093620090916700907C90935E
S11301E067009091670080958F73892B80936700D7
S11301F080B38072909161008917A1F090916E0094
S1130200916090936E0080936100882331F0809117
S113021067008F7B8093670005C0809167008064CE
S11302208093670080916F009EEF980F9230D0F416
S113023093B39270209160009217A1F020916E0008
S1130240216020936E0090936000992331F0909187
S113025067009F779093670005C09091670090684E
S113026090936700833009F4C4D28AE00895D09A49
S1130270D19AA39AA49A0895AC9808950F93809163
S11302806F00833011F4AAD22DC0A6D2109266005A
S113029000E020E030E04BED50E060E08EE291E0E1
S11302A04AD581B3837F81BB82B38C6082BB01E07A
S11302B020E030E04AEC50E060E08AE890E03BD592
S11302C085B7886085BF839B04C085B78B7F85BF56
S11302D003C085B7846085BF8AB780688ABF8BB73F
S11302E080688BBF8D98959A8D98959AA798B898A1
S11302F0BC98D2988B988D988E9888B38F6388BB5E
S113030080916F008250823028F4A098D398A198ED
S1130310A298A99A01E020E030E04FED50E06AE0B5
S113032089E990E008D5D09AD898D19AD998A39A17
S1130330AB98A49AAC980F9108951F920F920FB6A0
S11303400F9211248F938BB78F778BBF05B602FE64
S11303500EC0829B06C08091680081508093680023
S113036013C0809168008F5F809368000DC0829BEA
S113037006C0809168008F5F8093680005C08091FB
S113038068008150809368008F910F900FBE0F908A
S11303901F9018958093650090E08636910578F556
S11303A0FC01E65DFF4FB6C5AA98AB98AC9A1092D3
S11303B0640028C0FB01868185FF03C0AA98AB9A1C
S11303C002C0AB98AA9AAC9880916F00833041F434
S11303D080916300811104C081E08093640012C0A5
S11303E0109264000FC081E0809364000BC084E02D
S11303F08093640007C081E08093640003C08AE0B6
S1130400809364006091640081E990E0B7C408952A
S11304101F93CF93DF93CDB7DEB766970FB6F894EB
S1130420DEBF0FBECDBFE09165008E2F90E0FC01D2
S11304303197EE31F10508F055C0E057FF4F6AC51A
S1130440E0916C0086E1E802F0011124E55BFE4FC7
S11304504581628180EA45D58AEF47C060916C008E
S113046016E16103B0011124655B7E4F84E192DFE4
S113047020916C002103F0011124E55BFE4F4481BF
S113048061858FEB2ED5833079F584E12EC08FEE14
S113049089838EE08A83E0916C0086E1E802F001B2
S11304A01124E55BFE4F82818B8383818C8384815D
S11304B08D8385818E8386818F83878188878085DC
S11304C0898781858A8782858B8783858C878485C4
S11304D08D87CE010196CBD4833011F484E105C01D
S11304E083E003C080E001C083E066960FB6F89411
S11304F0DEBF0FBECDBFDF91CF911F910895FC01E8
S11305009FEE90838EE0818312821382148215827F
S113051016821782108611861286118A128A27E0A3
S113052026871786108A148A2BB3258B968B878B84
S1130530108E118E128E138E148E158E168E178EAB
S113054010A233E037A310A614A215A216A221E02C
S113055022A74BB343A794A785A716A617A610AA4C
S113056011AA12AA13AA14AA15AA16AA25AF16AE7E
S113057024E022AF13AE14AEDF01A05CBF4F3C9366
S113058035B311963C93EE5BFF4F908381831282C7
S1130590138214821582168217821086118612869F
S11305A082E0818B128A86871786108A248B85B312
S11305B0858B0895861741F0909169009C3320F44F
S11305C09F5F9093690008951092690080936B0077
S11305D0813011F480936A000895FC01448161859F
S11305E08FEB7FD4833029F063E082E890E0C6C3C8
S11305F0089564E182E890E0C1C30895482F4F77DD
S11306006AE288EA6EC4089514BE83E080936F00A2
S113061010926D008BE491E072DF85E090E080D46D
S1130620853551F16BE471E084E6B4DE60E083E08B
S113063090E07ED460E082E090E07AD460E084E0F0
S113064090E076D461E087E090E072D466E088E0E0
S113065090E06ED466E089E090E06AD464E08AE0D9
S113066090E066D460E18BE090E062D460916F002A
S113067086E090E05DD43FC087E090E051D48130C3
S1130680A1F488E090E04CD4863079F489E090E0DD
S113069047D4863051F48AE090E042D4843029F47F
S11306A08BE090E03DD48031A1F061E087E090E000
S11306B03FD466E088E090E03BD466E089E090E0D7
S11306C037D464E08AE090E033D460E18BE090E0DA
S11306D02FD46BE471E080E05DDE83E090E020D411
S11306E0CBE4D1E08C8382E090E01AD4898784E063
S11306F090E016D48B8381E090E012D4CBE4D1E077
S11307008B8780E090E00CD48C8782EA90E0A9D3B8
S1130710B5DD04D300E020E030E048E052E060E0E2
S113072082E890E008D3789480916500843688F557
S113073080914F01811104C080915401882329F0D4
S11307406BE471E084E126DE04C06BE471E080E2D6
S113075021DE45993FC020D3459BFDCF3BC08AE0B5
S113076090E00FD319D3C150D1F780914F01882362
S113077011F090E006D380915401882311F090E0A9
S113078000D380916500843131F48BE491E025DF5E
S113079002C080E033DF6BDDD89AD99AAB9A6CDD66
S11307A016B885B3C0E0CB9B05C089B383FB88270B
S11307B080F901C08C2F60916B00FCDE80916B008E
S11307C08111F1CF80916A00813069F7D99AC09381
S11307D06A00E9CFC2E3C3CF16B8089586E487B9A7
S11307E086EC86B93699FECF85B110927600369A9A
S11307F00895369946C084B195B19093750080935D
S11308007400369A40917400509175008091720082
S113081090917300841B950B9C0122F422273327AB
S1130820281B390B2330310524F050937300409377
S11308307200209172003091730036952795369599
S1130840279536952795822F222311F081E0820F78
S113085090917100992329F0915090937100911116
S11308600CC08F3708F08EE790917000981729F02C
S1130870809370008AE0809371008091700080936F
S1130880760008951F920F920FB60F9211248F9342
S11308909F9389B78F7D89BF86B597B589569D4F3C
S11308A09093AA018093A9018091A9019091AA0132
S11308B09BBD8ABD88B7806188BF89B7806189BFC5
S11308C084E08093AD011092AE019F918F910F90BF
S11308D00FBE0F901F9018951F920F920FB60F9294
S11308E011240F931F932F933F934F935F936F9311
S11308F07F938F939F93AF93BF93CF93DF93EF93A4
S1130900FF938091A9019091AA0186549E4F9093E0
S1130910AA018093A9018091A9019091AA019BBD8C
S11309208ABD8091AE018F5F8093AE018091AD014D
S1130930843009F03FC08091AE01893068F4809121
S1130940A80186958093A801459BEDC08091A801DC
S113095080688093A801E7C088B7806288BF89B7A0
S1130960806289BF45990AC0E091AB01F091AC0166
S1130970E957FF4F80818F5F808317C04091A801A2
S11309808091AB019091AC01FC01E058FF4F3081A4
S113099021E0230F2083FC01E30FF11D4083222378
S11309A024F4FC01E058FF4F10821092AE0181E064
S11309B08093AD018091AD01833009F07FC082B393
S11309C098B192959695977082958F70892780FD3E
S11309D006C01092AE0182E08093AD016FC0809199
S11309E0AE01893068F48091A80180FF02C0949818
S11309F001C0949A8091A80186958093A8015EC055
S1130A008091AE01893011F4949858C08091A60168
S1130A108F5F8093A6019091A7018917E8F4109243
S1130A20AE01E091AF01F091B0018091A601E80F11
S1130A30F11D80818093A801949A8CB59DB5885A44
S1130A409E4F9093AA018093A9018091A90190914E
S1130A50AA019BBD8ABD32C081E08093A501C091EB
S1130A60AF01D091B0010091AB011091AC01CE0166
S1130A70EBD18823F1F08150682F70E06F5F7F4FD6
S1130A8020E030E0F801E058FF4FDE01A20FB31F71
S1130A908C91408191E0940F9083D801A40FB11DF3
S1130AA08C9399230CF410822F5F3F4F261737073E
S1130AB061F71092AE0181E08093AD018091AD01A8
S1130AC08230C9F48091AE01811102C0949A13C09E
S1130AD08091AE018F3078F094981092AE0181E04D
S1130AE08093AD01E091AB01F091AC01E557FF4F6C
S1130AF080818F5F80838091AD018130A1F48091EA
S1130B00AE01811107C088B7806288BF89B780624F
S1130B1089BF09C08091AE01883328F01092AD01DD
S1130B2089B78F7E89BFFF91EF91DF91CF91BF91FC
S1130B30AF919F918F917F916F915F914F913F9171
S1130B402F911F910F910F900FBE0F901F9018952A
S1130B509093AC018093AB0194988C9A87E188B907
S1130B601092AD0188B7806288BF89B7806289BF5F
S1130B708EB5887F81608EBD08951F93CF93DF93D8
S1130B80EC01162F61D18093A7018091A7018150B8
S1130B901092A6019091A601981790F42FEF9091CE
S1130BA0A601FE01E90FF11D908129279091A6016C
S1130BB09F5F9093A6019091A601981780F301C0BE
S1130BC02FEFFE01E80FF11D2083F8948091AD0111
S1130BD0813061F48091AE01193308F018E3811774
S1130BE028F01092AD0189B78F7E89BF78948091E7
S1130BF0AD01813039F49091AE01943108F057C0C1
S1130C0080E055C08091AD0181114EC0F89489B740
S1130C108F7D89BF08B605FE06C089B7806289BF8B
S1130C20789482E044C0949A8CB59DB5885A9E4FBE
S1130C309093AA018093A9018091A9019091AA019E
S1130C409BBD8ABD7894D093B001C093AF0110923C
S1130C50A6011092A50188818093A80183E0809366
S1130C60AD011092AE0188B7806188BF89B78061F9
S1130C7089BF8091AD018330E1F38091A501882380
S1130C8069F0E091AB01F091AC01E857FF4F80812E
S1130C90918101969183808383E009C08091AD01A5
S1130CA0823021F085E003C082E001C084E0DF915E
S1130CB0CF911F9108951F920F920FB60F92112496
S1130CC08F939F9384EE82BF809179008F5F80938E
S1130CD0790080917B008F5F843618F480937B00C9
S1130CE007C010927B0080917A008F5F80937A0016
S1130CF08091770090917800892B49F0809177005A
S1130D0090917800019790937800809377009F9159
S1130D108F910F900FBE0F901F90189584EE82BF95
S1130D2088B7816088BF89B7816089BF83B7887FAE
S1130D30846083BF08950F93FC018FB7F894002358
S1130D4059F0A0917C00B0917D00B683A583F09307
S1130D507D00E0937C000AC0A0917E00B0917F00EA
S1130D60B683A583F0937F00E0937E006083548371
S1130D704383328321838FBF0F910895FC016083E5
S1130D8008959093780080937700809177009091F4
S1130D907800892BD1F708950F931F93CF93DF9396
S1130DA08FB7F894009179001092790010917A002D
S1130DB010927A008FBF002301F180917C00909102
S1130DC07D00892BD1F0C0917C00D0917D002097CB
S1130DD091F08881882351F081508883811106C065
S1130DE0EB81FC8189819A81099588830D80DE815C
S1130DF0C02D209771F7015031F7112301F1809133
S1130E007E0090917F00892BD1F0C0917E00D0911B
S1130E107F00209791F08881882351F08150888346
S1130E20811106C0EB81FC8189819A8109958883AF
S1130E300D80DE81C02D209771F7115031F7DF91BD
S1130E40CF911F910F910895FC0190819076903677
S1130E5011F4818108958081807682958F708E5FF0
S1130E600895909381008093800072CE0895DF925C
S1130E70EF92FF920F931F93CF93DF938C010F2E6A
S1130E80F9E1EF2EF02DCEE2DD24D394F12C13C042
S1130E90DF2D6C2FC80171DE8330D1F08130C1F3B6
S1130EA0C0F3823011F4D111F4CFCB3108F0C1502A
S1130EB0EA94EE2011F0DD2DECCFE0918000F0916A
S1130EC08100E657FF4F80818F5F808386E001C0F9
S1130ED083E0DF91CF911F910F91FF90EF90DF900E
S1130EE00895CF93DF93CDB7DEB766970FB6F89426
S1130EF0DEBF0FBECDBF89836A834B83CE010196CB
S1130F00B6DF66960FB6F894DEBF0FBECDBFDF9195
S1130F10CF910895EE0FFF1F0590F491E02D0994F1
S1130F20E199FECF9FBB8EBBE09A99278DB30895BC
S1130F30262FE199FECF9FBB8EBB2DBB0FB6F89435
S1110F40E29AE19A0FBE01960895F894FFCF4D
S1090F4E01010101016430
S9030000FC
