:10000000ADC00000C6C0000091C10000C2C0000029
:10001000C0C0000056C400007EC40000BAC000008A
:10002000B8C0000067C60000B4C00000B2C0000045
:10003000B0C00000AEC00000ACC00000AAC000000C
:10004000A8C00000A6C00000A4C00000A2C000001C
:10005000A0C00000CD01D301F801F801F801F801BA
:10006000F801F801F801F801EC01EC01F801F801E0
:10007000F801F801F801F801F801F801EC01F801C4
:10008000EC01F801EC01F801F801F801F801F801C0
:10009000CD01F801CD01F801F801F801F801F801EE
:1000A000F801F801F801F801F801F801F801F80188
:1000B000F801F801F801F801F801F801F801F80178
:1000C000F801F801F801F801F801F801F801F80168
:1000D000F801F801F801F801F801F801F801F80158
:1000E000F801F801F801F801F801F801F801F80148
:1000F000F801F801F801F801F801F801F801F80138
:10010000F801F801F801F801F801F801F801F80127
:10011000F801F801F801F801F801F801F001F40123
:1001200019026B026B026B026B026B026B026B02B9
:100130006B02270227026B026B026B026B026B02DF
:100140006B026B026B0227026B0227026B02270213
:100150006B026B026B026B026B02400211241FBE2A
:10016000CFE5D4E0DEBFCDBF10E0A0E6B0E0ECE824
:10017000FFE002C005900D92A636B107D9F721E045
:10018000A6E6B0E001C01D92A93AB207E1F750D24D
:10019000FBC636CF839B04C085B78B7F85BF03C06A
:1001A00085B7846085BF8AB780688ABF8BB780684F
:1001B0008BBF80E008951092660080E0089586B3BA
:1001C0008F7390916200891799F090916B00916004
:1001D00090936B008093620090916700907C909365
:1001E00067009091670080958F73892B80936700DB
:1001F00080B38072909161008917A1F090916B009B
:10020000916090936B0080936100882331F080911E
:1002100067008F7B8093670005C0809167008064D2
:100220008093670080916C009EEF980F9230D0F41D
:1002300093B39270209160009217A1F020916B000F
:10024000216020936B0090936000992331F090918E
:1002500067009F779093670005C090916700906852
:1002600090936700833009F4E3D28AE008950F93F6
:1002700080916C00833011F4D0D22DC0CCD210927A
:10028000660000E020E030E04BED50E060E08BE203
:1002900091E070D581B3837F81BB82B38C6082BBD8
:1002A00001E020E030E04AEC50E060E087E890E0D8
:1002B00061D585B7886085BF839B04C085B78B7F78
:1002C00085BF03C085B7846085BF8AB780688ABF51
:1002D0008BB780688BBF8D98959A8D98959AA798C3
:1002E000B898BC98D2988B988D988E9888B38F6365
:1002F00088BB80916C008250823028F4A098D398FB
:10030000A198A298A99A01E020E030E04FED50E0DA
:100310006AE086E990E02ED5D09AD898D19AD998FB
:10032000A39AAB98A49AAC980F9108951F920F923C
:100330000FB60F9211248F938BB78F778BBF05B6B3
:1003400002FE0EC0829B06C080916800815080939F
:10035000680013C0809168008F5F809368000DC0B3
:10036000829B06C0809168008F5F8093680005C003
:10037000809168008150809368008F910F900FBE2C
:100380000F901F9018958093650090E08636910538
:1003900078F5FC01E65DFF4FDCC5AA98AB98AC9AF6
:1003A0001092640028C0FB01868185FF03C0AA98D3
:1003B000AB9A02C0AB98AA9AAC9880916C0083303B
:1003C00041F480916300811104C081E08093640056
:1003D00012C0109264000FC081E0809364000BC0D3
:1003E00084E08093640007C081E08093640003C0D0
:1003F0008AE080936400609164008EE890E0DDC440
:1004000008951F93CF93DF93CDB7DEB765970FB6EF
:10041000F894DEBF0FBECDBFE09165008E2F90E057
:10042000FC013197EE31F10508F055C0E057FF4F60
:1004300090C5E091690085E1E802F0011124E95BD3
:10044000FE4F4581628180EA6BD58AEF47C060919B
:10045000690015E16103B0011124695B7E4F84E1FD
:1004600092DF209169002103F0011124E95BFE4F26
:10047000448161858FEB54D5833079F584E12EC0BA
:100480008FEE89838EE08A83E091690085E1E8023E
:10049000F0011124E95BFE4F82818B8383818C8381
:1004A00084818D8385818E8386818F8387818887F0
:1004B0008085898781858A8782858B8783858C87DC
:1004C00084858D87CE010196F1D4833011F484E1C7
:1004D00005C083E003C080E001C083E065960FB6ED
:1004E000F894DEBF0FBECDBFDF91CF911F9108956D
:1004F000FC019FEE90838EE081831282138214822E
:10050000158216821782108611861286108A118A29
:1005100027E026871786138A2BB3248B958B868B2F
:10052000178A108E118E128E138E148E158E168EC3
:10053000178E33E035A316A213A214A221E020A740
:100540004BB341A792A783A714A615A616A617A674
:1005500010AA11AA12AA13AA14AA22AF13AE24E059
:1005600020AF11AE35AF35B336AF97AFDF01A05C2A
:10057000BF4F8C9311961C9211961C9211961C924F
:1005800011961C9211961C9211961C9211961C9217
:1005900011961C9211961C92169682E08C931196DD
:1005A0001C9213978C9311961C9214962C9385B3DE
:1005B000ED5AFF4F808308959F9B04C081E0FA01AC
:1005C00080830895FA018081882339F0F9018081C0
:1005D000811103C0FA011082D89A089521153105BE
:1005E00079F0839B04C081E0FA0180830895FA01C9
:1005F0008081882329F0F9011082FA011082D898AD
:100600000895FC01448161858FEB8AD4833029F001
:1006100063E08FE790E0D1C3089564E18FE790E055
:10062000CCC30895482F4F776AE288EA79C40895C9
:10063000CF93DF9300D0CDB7DEB714BE83E08093B5
:100640006C0010926A0087E491E052DF85E090E050
:1006500086D4853551F167E471E084E694DE60E08C
:1006600083E090E084D460E082E090E080D460E0B9
:1006700084E090E07CD461E087E090E078D466E0AC
:1006800088E090E074D466E089E090E070D464E0A3
:100690008AE090E06CD460E18BE090E068D46091F7
:1006A0006C0086E090E063D442C087E090E057D4CD
:1006B0008130A1F488E090E052D4863079F489E06A
:1006C00090E04DD4863051F48AE090E048D48430F4
:1006D00029F48BE090E043D48031A1F061E087E021
:1006E00090E045D466E088E090E041D466E089E09F
:1006F00090E03DD464E08AE090E039D460E18BE0A2
:1007000090E035D467E471E080E03DDE83E090E086
:1007100026D407E411E0F801848382E090E01FD43E
:10072000F801818784E090E01AD4F801838381E0A6
:1007300090E015D407E411E0F801838780E090E0B1
:100740000ED4F80184878FE990E0AAD390DD05D319
:1007500000E020E030E041E052E060E08FE790E030
:1007600009D3789480916500843688F580914B0197
:10077000811104C080915001882329F067E471E061
:1007800084E101DE04C067E471E080E2FCDD4599AC
:1007900040C021D3459BFDCF3CC08AE090E010D300
:1007A0001AD31150D1F780914B01882311F090E0BA
:1007B00007D380915001882311F090E001D38091FC
:1007C0006500843131F487E491E01BDF02C080E0F2
:1007D00029DFA49AA39AD09AD19A85B389831A82E1
:1007E0000DE411E09E012E5F3F4F46E551E0BE0152
:1007F0006F5F7F4F85E591E0DFDE26E531E0AE01FA
:100800004E5F5F4FBE016F5F7F4F85E591E0E6DE93
:10081000E7CF12E3C2CF16B8089586E487B986EC15
:1008200086B93699FECF85B110927300369A089535
:10083000369946C084B195B190937200809371004F
:10084000369A409171005091720080916F009091A2
:100850007000841B950B9C0122F422273327281B50
:10086000390B2330310524F05093700040936F0012
:1008700020916F0030917000369527953695279519
:1008800036952795822F222311F081E0820F9091D7
:100890006E00992329F0915090936E0091110CC035
:1008A0008F3708F08EE790916D00981729F08093AC
:1008B0006D008AE080936E0080916D0080937300DC
:1008C00008951F920F920FB60F9211248F939F934A
:1008D00089B78F7D89BF86B597B589569D4F90930F
:1008E000A2018093A1018091A1019091A2019BBDE1
:1008F0008ABD88B7806188BF89B7806189BF84E07D
:100900008093A5011092A6019F918F910F900FBE29
:100910000F901F9018951F920F920FB60F921124EF
:100920000F931F932F933F934F935F936F937F93F7
:100930008F939F93AF93BF93CF93DF93EF93FF93E7
:100940008091A1019091A20186549E4F9093A201A3
:100950008093A1018091A1019091A2019BBD8ABDCC
:100960008091A6018F5F8093A6018091A5018430BC
:1009700009F03FC08091A601893068F48091A00100
:1009800086958093A001459BEDC08091A001806871
:100990008093A001E7C088B7806288BF89B7806272
:1009A00089BF45990AC0E091A301F091A401E957DC
:1009B000FF4F80818F5F808317C04091A00180919D
:1009C000A3019091A401FC01E058FF4F308121E088
:1009D000230F2083FC01E30FF11D4083222324F425
:1009E000FC01E058FF4F10821092A60181E0809335
:1009F000A5018091A501833009F07FC082B398B131
:100A000092959695977082958F70892780FD06C084
:100A10001092A60182E08093A5016FC08091A6018B
:100A2000893068F48091A00180FF02C0949801C0D1
:100A3000949A8091A00186958093A0015EC08091D8
:100A4000A601893011F4949858C080919E018F5F5F
:100A500080939E0190919F018917E8F41092A6015E
:100A6000E091A701F091A80180919E01E80FF11D8E
:100A700080818093A001949A8CB59DB5885A9E4F31
:100A80009093A2018093A1018091A1019091A20174
:100A90009BBD8ABD32C081E080939D01C091A701BA
:100AA000D091A8010091A3011091A401CE01EBD136
:100AB0008823F1F08150682F70E06F5F7F4F20E056
:100AC00030E0F801E058FF4FDE01A20FB31F8C9118
:100AD000408191E0940F9083D801A40FB11D8C93B5
:100AE00099230CF410822F5F3F4F2617370761F7C9
:100AF0001092A60181E08093A5018091A50182302A
:100B0000C9F48091A601811102C0949A13C080910A
:100B1000A6018F3078F094981092A60181E080931E
:100B2000A501E091A301F091A401E557FF4F808159
:100B30008F5F80838091A5018130A1F48091A6010F
:100B4000811107C088B7806288BF89B7806289BF7A
:100B500009C08091A601883328F01092A50189B7B9
:100B60008F7E89BFFF91EF91DF91CF91BF91AF91C0
:100B70009F918F917F916F915F914F913F912F91B5
:100B80001F910F910F900FBE0F901F90189590938B
:100B9000A4018093A30194988C9A87E188B910925C
:100BA000A50188B7806288BF89B7806289BF8EB58A
:100BB000887F81608EBD08951F93CF93DF93EC01F2
:100BC000162F61D180939F0180919F0181501092D7
:100BD0009E0190919E01981790F42FEF90919E01A5
:100BE000FE01E90FF11D9081292790919E019F5FE1
:100BF00090939E0190919E01981780F301C02FEF72
:100C0000FE01E80FF11D2083F8948091A501813049
:100C100061F48091A601193308F018E3811728F0D8
:100C20001092A50189B78F7E89BF78948091A50124
:100C3000813039F49091A601943108F057C080E0DA
:100C400055C08091A50181114EC0F89489B78F7D60
:100C500089BF08B605FE06C089B7806289BF78944F
:100C600082E044C0949A8CB59DB5885A9E4F90936B
:100C7000A2018093A1018091A1019091A2019BBD4D
:100C80008ABD7894D093A801C093A70110929E01C9
:100C900010929D0188818093A00183E08093A5013B
:100CA0001092A60188B7806188BF89B7806189BF2B
:100CB0008091A5018330E1F380919D01882369F043
:100CC000E091A301F091A401E857FF4F8081918149
:100CD00001969183808383E009C08091A5018230D1
:100CE00021F085E003C082E001C084E0DF91CF9174
:100CF0001F9108951F920F920FB60F9211248F9398
:100D00009F9384EE82BF809176008F5F8093760000
:100D1000809178008F5F843618F48093780007C044
:100D200010927800809177008F5F80937700809198
:100D3000740090917500892B49F080917400909116
:100D40007500019790937500809374009F918F9127
:100D50000F900FBE0F901F90189584EE82BF88B73A
:100D6000816088BF89B7816089BF83B7887F8460CD
:100D700083BF08950F93FC018FB7F894002359F0B7
:100D8000A0917900B0917A00B683A583F0937A00A0
:100D9000E09379000AC0A0917B00B0917C00B683FB
:100DA000A583F0937C00E0937B00608354834383AE
:100DB000328321838FBF0F910895FC0160830895D2
:100DC00090937500809374008091740090917500E9
:100DD000892BD1F708950F931F93CF93DF938FB78C
:100DE000F89400917600109276001091770010929E
:100DF00077008FBF002301F18091790090917A00F4
:100E0000892BD1F0C0917900D0917A00209791F090
:100E10008881882351F081508883811106C0EB813D
:100E2000FC8189819A81099588830D80DE81C02D9E
:100E3000209771F7015031F7112301F180917B0068
:100E400090917C00892BD1F0C0917B00D0917C00E7
:100E5000209791F08881882351F0815088838111F7
:100E600006C0EB81FC8189819A81099588830D8078
:100E7000DE81C02D209771F7115031F7DF91CF91AE
:100E80001F910F910895FC0190819076903611F496
:100E9000818108958081807682958F708E5F08951C
:100EA00090937E0080937D0072CE0895DF92EF9242
:100EB000FF920F931F93CF93DF938C010F2EF9E1D5
:100EC000EF2EF02DCEE2DD24D394F12C13C0DF2DD4
:100ED0006C2FC80171DE8330D1F08130C1F3C0F3D3
:100EE000823011F4D111F4CFCB3108F0C150EA9423
:100EF000EE2011F0DD2DECCFE0917D00F0917E0031
:100F0000E657FF4F80818F5F808386E001C083E0DA
:100F1000DF91CF911F910F91FF90EF90DF90089597
:100F2000CF93DF93CDB7DEB765970FB6F894DEBFEA
:100F30000FBECDBF89836A834B83CE010196B6DF96
:100F400065960FB6F894DEBF0FBECDBFDF91CF918F
:100F50000895EE0FFF1F0590F491E02D0994E1999B
:100F6000FECF9FBB8EBBE09A99278DB30895262FA5
:100F7000E199FECF9FBB8EBB2DBB0FB6F894E29AD2
:0C0F8000E19A0FBE01960895F894FFCF8F
:060F8C00010101010164F6
:00000001FF
