S010000041544D65676131362E737265639E
S1130000ADC00000C6C000009CC10000C2C000001A
S1130010C0C0000070C4000098C40000BAC0000052
S1130020B8C000007FC60000B4C00000B2C0000029
S1130030B0C00000AEC00000ACC00000AAC0000008
S1130040A8C00000A6C00000A4C00000A2C0000018
S1130050A0C00000D801DE01030203020302030270
S11300600302030203020302F701F701030203027E
S1130070030203020302030203020302F701030261
S1130080F7010302F701030203020302030203025E
S1130090D8010302D801030203020302030203028C
S11300A00302030203020302030203020302030224
S11300B00302030203020302030203020302030214
S11300C00302030203020302030203020302030204
S11300D003020302030203020302030203020302F4
S11300E003020302030203020302030203020302E4
S11300F003020302030203020302030203020302D4
S113010003020302030203020302030203020302C3
S1130110030203020302030203020302FB01FF01C1
S1130120240276027602760276027602760276025D
S11301307602320232027602760276027602760283
S113014076027602760232027602320276023202B7
S1130150760276027602760276024B0211241FBEE4
S1130160CFE5D4E0DEBFCDBF10E0A0E6B0E0ECEB1D
S1130170FFE002C005900D92A636B107D9F721E041
S1130180A6E6B0E001C01D92A13BB207E1F77ED222
S113019013C736CF839B04C085B78B7F85BF03C04D
S11301A085B7846085BF8AB780688ABF8BB780684B
S11301B08BBF80E008951092660080E0089586B3B6
S11301C08F7390916200891799F090916E009160FD
S11301D090936E008093620090916700907C90935E
S11301E067009091670080958F73892B80936700D7
S11301F080B38072909161008917A1F090916E0094
S1130200916090936E0080936100882331F0809117
S113021067008F7B8093670005C0809167008064CE
S11302208093670080916F009EEF980F9230D0F416
S113023093B39270209160009217A1F020916E0008
S1130240216020936E0090936000992331F0909187
S113025067009F779093670005C09091670090684E
S113026090936700833009F4FDD28AE00895D09A10
S1130270D19AA39AA49A0895D89A0895D8980895DB
S1130280AC9808950F9380916F00833011F4DFD2FE
S11302902DC0DBD21092660000E020E030E04BED90
S11302A050E060E08EE291E07DD581B3837F81BB35
S11302B082B38C6082BB01E020E030E04AEC50E085
S11302C060E08AE890E06ED585B7886085BF839B3F
S11302D004C085B78B7F85BF03C085B7846085BFA5
S11302E08AB780688ABF8BB780688BBF8D98959AD0
S11302F08D98959AA798B898BC98D2988B988D9811
S11303008E9888B38F6388BB80916F00825082304F
S113031028F4A098D398A298A198A99A01E020E083
S113032030E04FED50E06AE089E990E03BD5D09AA7
S1130330D898D19AD998A39AAB98A49AAC980F91CB
S113034008951F920F920FB60F9211248F938BB7BB
S11303508F778BBF05B602FE0EC0829B06C08091CC
S1130360680081508093680013C0809168008F5F9B
S1130370809368000DC0829B06C0809168008F5FE7
S11303808093680005C08091680081508093680064
S11303908F910F900FBE0F901F901895809365005A
S11303A090E08636910578F5FC01E65DFF4FE9C5DE
S11303B0AA98AB98AC9A1092640028C0FB0186817D
S11303C085FF03C0AA98AB9A02C0AB98AA9AAC98CE
S11303D080916F00833041F480916300811104C0E7
S11303E081E08093640012C0109264000FC081E029
S11303F0809364000BC084E08093640007C081E0B4
S11304008093640003C08AE0809364006091640078
S113041081E990E0EAC408951F93CF93DF93CDB7A9
S1130420DEB766970FB6F894DEBF0FBECDBFE0917E
S113043065008E2F90E0FC013197EE31F10508F054
S113044055C0E057FF4F9DC5E0916C0086E1E8027E
S1130450F0011124E55BFE4F4581628180EA78D585
S11304608AEF47C060916C0016E16103B00111246A
S1130470655B7E4F84E192DF20916C002103F001E3
S11304801124E55BFE4F448161858FEB61D5833098
S113049079F584E12EC08FEE89838EE08A83E09122
S11304A06C0086E1E802F0011124E55BFE4F8281D5
S11304B08B8383818C8384818D8385818E838681E4
S11304C08F83878188878085898781858A878285CC
S11304D08B8783858C8784858D87CE010196FED496
S11304E0833011F484E105C083E003C080E001C0DF
S11304F083E066960FB6F894DEBF0FBECDBFDF91E2
S1130500CF911F910895FC019FEE90838EE081832B
S11305101282138214821582168217821086118623
S11305201286118A128A27E026871786108A148A6F
S11305302BB3258B968B878B108E118E128E138E78
S1130540148E158E168E178E10A253E057A310A684
S113055014A215A216A241E042A72BB323A794A785
S113056085A716A617A610AA11AA12AA13AA14AA36
S113057015AA16AA32E035AF16AE24E022AF13AEA8
S113058014AEDF01A05CBF4F5C9355B311965C932E
S1130590EE5BFF4F90838183128213821482158253
S11305A016821782108611861286418B128A36872C
S11305B01786108A248B85B3858B0895882339F098
S11305C080916B008695805880936B00089580918C
S11305D06B00869580936B000895CF93DF93C8E0FA
S11305E0D0E083B38078EADF2197D9F780916A005D
S11305F0811108C080916B00811116C081E0809345
S11306006A0012C0813081F480916B008F3F61F4E5
S113061080916900811104C031DE10926A0004C027
S11306201092690010926A00DF91CF910895AF9AF9
S1130630C09AC49ADA9AA89ADB9AAA9AA99A939A1F
S1130640949A959A969A089584E690E0EFEFFBE6E3
S11306503197F1F700C000000197C1F70895FC013C
S1130660448161858FEB74D4833029F063E082E8A0
S113067090E0BBC3089564E182E890E0B6C30895B6
S1130680482F4F776AE288EA63C4089514BE83E072
S113069080936F00CCDF10926D008BE491E033DF28
S11306A085E090E074D4853551F16BE471E084E623
S11306B075DE60E083E090E072D460E082E090E078
S11306C06ED460E084E090E06AD461E087E090E07A
S11306D066D466E088E090E062D466E089E090E069
S11306E05ED464E08AE090E05AD460E18BE090E06C
S11306F056D460916F0086E090E051D43FC087E00B
S113070090E045D48130A1F488E090E040D4863074
S113071079F489E090E03BD4863051F48AE090E0AB
S113072036D4843029F48BE090E031D48031A1F0C8
S113073061E087E090E033D466E088E090E02FD475
S113074066E089E090E02BD464E08AE090E027D46E
S113075060E18BE090E023D46BE471E080E01EDE86
S113076083E090E014D4CBE4D1E08C8382E090E089
S11307700ED4898784E090E00AD48B8381E090E0F2
S113078006D4CBE4D1E08B8780E090E000D48C8762
S113079082EA90E09DD376DDF8D200E020E030E0FC
S11307A04CE052E060E082E890E0FCD278948091E2
S11307B06500843688F580914F01811104C08091D1
S11307C05401882329F06BE471E084E1E7DD04C07F
S11307D06BE471E080E2E2DD459935C014D3459BBA
S11307E0FDCF31C08AE090E003D30DD3C150D1F7DF
S11307F080914F01882311F090E0FAD28091540146
S1130800882311F090E0F4D280916500843131F4B2
S11308108BE491E024DF02C080E032DF28DDD89A47
S1130820D99AAB9A2DDD16B885B328DD0DDF24DD0A
S11308300BDFAF9A63E070E082E090E0CEDE9B993C
S1130840F9CF1ADDF7CFC2E3CDCF16B8089586E409
S113085087B986EC86B93699FECF85B110927600B9
S1130860369A0895369946C084B195B1909375002F
S113087080937400369A4091740050917500809171
S1130880720090917300841B950B9C0122F4222723
S11308903327281B390B2330310524F05093730080
S11308A04093720020917200309173003695279521
S11308B03695279536952795822F222311F081E0CE
S11308C0820F90917100992329F0915090937100B7
S11308D091110CC08F3708F08EE790917000981733
S11308E029F0809370008AE08093710080917000F9
S11308F08093760008951F920F920FB60F921124E1
S11309008F939F9389B78F7D89BF86B597B5895695
S11309109D4F9093AA018093A9018091A901909180
S1130920AA019BBD8ABD88B7806188BF89B78061F1
S113093089BF84E08093AD011092AE019F918F91A5
S11309400F900FBE0F901F9018951F920F920FB625
S11309500F9211240F931F932F933F934F935F9301
S11309606F937F938F939F93AF93BF93CF93DF93B3
S1130970EF93FF938091A9019091AA0186549E4F11
S11309809093AA018093A9018091A9019091AA0151
S11309909BBD8ABD8091AE018F5F8093AE01809133
S11309A0AD01843009F03FC08091AE01893068F414
S11309B08091A80186958093A801459BEBC0809106
S11309C0A80180688093A801E5C088B7806288BFC9
S11309D089B7806289BF45990AC0E091AB01F09163
S11309E0AC01E957FF4F80818F5F808317C040912E
S11309F0A8018091AB019091AC01FC01E058FF4F3C
S1130A00308121E0230F2083FC01E30FF11D40839B
S1130A10222324F4FC01E058FF4F10821092AE010F
S1130A2081E08093AD018091AD01833009F07DC0F8
S1130A3098B388B19695829586958770892780FDAD
S1130A4006C01092AE0182E08093AD016EC0809129
S1130A50AE01893068F48091A80180FF02C0C1987A
S1130A6001C0C19A8091A80186958093A8015DC0B8
S1130A708091AE01893011F4C19857C08091A601CC
S1130A808F5F8093A6019091A7018917E8F41092D3
S1130A90AE01E091AF01F091B0018091A601E80FA1
S1130AA0F11D80818093A801C19A8CB59DB5885AA7
S1130AB09E4F9093AA018093A9018091A9019091DE
S1130AC0AA019BBD8ABD31C081E08093A501C0917C
S1130AD0AF01D091B0010091AB011091AC01CE01F6
S1130AE0EAD18823E9F08150682F70E06F5F7F4F6F
S1130AF080E090E0F801E058FF4FDE01A80FB91F35
S1130B004C91308121E0230F2083D801A30FB11D24
S1130B104C9322230CF4108201968617970769F7E9
S1130B201092AE0181E08093AD018091AD018230DD
S1130B30C9F48091AE01811102C0C19A13C08091A1
S1130B40AE018F3078F0C1981092AE0181E08093AD
S1130B50AD01E091AB01F091AC01E557FF4F80810D
S1130B608F5F80838091AD018130A1F48091AE01CB
S1130B70811107C088B7806288BF89B7806289BF46
S1130B8009C08091AE01883328F01092AD0189B775
S1130B908F7E89BFFF91EF91DF91CF91BF91AF918C
S1130BA09F918F917F916F915F914F913F912F9181
S1130BB01F910F910F900FBE0F901F901895909357
S1130BC0AC018093AB01C198B99A87E188B91092BE
S1130BD0AD0188B7806288BF89B7806289BF8EB54E
S1130BE0887F81608EBD08951F93CF93DF93EC01BE
S1130BF0162F61D18093A7012091A7012150109253
S1130C00A6018091A601821790F49FEF8091A6011E
S1130C10FE01E80FF11D808198278091A6018F5F66
S1130C208093A6018091A601821780F301C09FEFF3
S1130C30FE01E20FF11D9083F8948091AD018130A3
S1130C4061F48091AE01193308F018E3811728F09C
S1130C501092AD0189B78F7E89BF78948091AD01E0
S1130C60813039F49091AE01943108F057C080E09E
S1130C7055C08091AD0181114EC0F89489B78F7D24
S1130C8089BF08B605FE06C089B7806289BF78941B
S1130C9082E044C0C19A8CB59DB5885A9E4F90930A
S1130CA0AA018093A9018091A9019091AA019BBDF9
S1130CB08ABD7894D093B001C093AF011092A6017D
S1130CC01092A50188818093A80183E08093AD01EF
S1130CD01092AE0188B7806188BF89B7806189BFEF
S1130CE08091AD018330E1F38091A501882369F0FF
S1130CF0E091AB01F091AC01E857FF4F8081918105
S1130D0001969183808383E009C08091AD01823094
S1130D1021F085E003C082E001C084E0DF91CF913F
S1130D201F9108951F920F920FB60F9211248F9363
S1130D309F9384EE82BF809179008F5F80937900C6
S1130D4080917B008F5F843618F480937B0007C00A
S1130D5010927B0080917A008F5F80937A0080915B
S1130D60770090917800892B49F0809177009091D9
S1130D707800019790937800809377009F918F91EA
S1130D800F900FBE0F901F90189584EE82BF88B706
S1130D90816088BF89B7816089BF83B7887F846099
S1130DA083BF08950F93FC018FB7F894002359F083
S1130DB0A0917C00B0917D00B683A583F0937D0063
S1130DC0E0937C000AC0A0917E00B0917F00B683BE
S1130DD0A583F0937F00E0937E0060835483438374
S1130DE0328321838FBF0F910895FC01608308959E
S1130DF090937800809377008091770090917800A9
S1130E00892BD1F708950F931F93CF93DF938FB757
S1130E10F894009179001092790010917A00109260
S1130E207A008FBF002301F180917C0090917D00B6
S1130E30892BD1F0C0917C00D0917D00209791F056
S1130E408881882351F081508883811106C0EB8109
S1130E50FC8189819A81099588830D80DE81C02D6A
S1130E60209771F7015031F7112301F180917E0031
S1130E7090917F00892BD1F0C0917E00D0917F00AA
S1130E80209791F08881882351F0815088838111C3
S1130E9006C0EB81FC8189819A81099588830D8044
S1130EA0DE81C02D209771F7115031F7DF91CF917A
S1130EB01F910F910895FC0190819076903611F462
S1130EC0818108958081807682958F708E5F0895E8
S1130ED0909381008093800072CE0895DF92EF9208
S1130EE0FF920F931F93CF93DF938C010F2EF9E1A1
S1130EF0EF2EF02DCEE2DD24D394F12C13C0DF2DA0
S1130F006C2FC80171DE8330D1F08130C1F3C0F39E
S1130F10823011F4D111F4CFCB3108F0C150EA94EE
S1130F20EE2011F0DD2DECCFE0918000F0918100F6
S1130F30E657FF4F80818F5F808386E001C083E0A6
S1130F40DF91CF911F910F91FF90EF90DF90089563
S1130F50CF93DF93CDB7DEB766970FB6F894DEBFB5
S1130F600FBECDBF89836A834B83CE010196B6DF62
S1130F7066960FB6F894DEBF0FBECDBFDF91CF915A
S1130F800895EE0FFF1F0590F491E02D0994E19967
S1130F90FECF9FBB8EBBE09A99278DB30895262F71
S1130FA0E199FECF9FBB8EBB2DBB0FB6F894E29A9E
S10F0FB0E19A0FBE01960895F894FFCF5B
S1090FBC010101010164C2
S9030000FC
