S010000041544D65676131362E737265639E
S113000029C0000043C0000058C100003FC00000E8
S11300103DC000000C9453080C947D0837C00000C8
S113002035C000000C94530A31C000002FC00000FA
S11300302DC000002BC0000029C0000027C0000014
S113004025C0000023C0000021C000001FC0000024
S11300501DC0000011241FBECFE5D4E0DEBFCDBF1C
S113006010E0A0E6B0E0ECE6F9E102C005900D92E4
S1130070AC38B107D9F722E0ACE8B0E001C01D927A
S1130080A533B207E1F749D60C94B40CB9CF839BDE
S113009003C085B78B7F02C085B7846085BF8AB7EC
S11300A080688ABF8BB780688BBF80E00895109208
S11300B08C0080E0089586B38F7390916200891755
S11300C099F09091920091609093920080936200D5
S11300D090918D00907C90938D0090918D008095EF
S11300E08F73892B80938D0080B38072909161000F
S11300F0891791F09091920091609093920080936F
S11301006100882321F080918D008F7B03C0809152
S11301108D00806480938D00209193008EEF820F78
S11301208230D8F483B3827090916000891791F083
S11301309091920091609093920080936000882344
S113014021F080918D008F7703C080918D008068AD
S113015080938D00233009F45ED78AE0089521E26C
S113016020939100FC019581E6E6F0E080E0219186
S1130170921728F02081921710F4809391008F5FDA
S11301808132A9F70895D09AD19AA39AA49A08958E
S1130190D8980895D9980895AB980895AC9A08957D
S11301A0D89A0895D99A0895AB9A0895AC98089569
S11301B0823051F01CF4813031F00895833029F0FD
S11301C0843021F00895ECCFEDCFEECFEFCF823025
S11301D051F01CF4813031F00895833029F08430DB
S11301E021F00895D5CFD6CFD7CFD8CFAC9B02C0BE
S11301F0AC980895AC9A08950F938091930083303E
S113020011F4FED62EC0FAD610928C0000E020E045
S113021030E047E550E060E089E791E00E94930A0E
S113022081B3837F81BB82B38C6082BB01E020E019
S113023030E047E450E060E080ED90E00E94930AF3
S113024085B7886085BF839B03C085B78B7F02C059
S113025085B7846085BF8AB780688ABF8BB780689A
S11302608BBF8D98959A8D98959AA798B898BD98B4
S1130270D2988B988D988E9888B38F6388BB809121
S113028093008250823028F4A098D398A298A19821
S1130290A99A01E020E030E04BE550E06AE083EE0B
S11302A090E00E94930AD09AD898D19AD998A39AA8
S11302B0AB98A49AAC980F9108951F920F920FB621
S11302C00F9211248F938BB78F778BBF05B602FEE5
S11302D003C0829B03C006C0829B04C080918E0031
S11302E08F5F03C080918E00815080938E008F9128
S11302F00F900FBE0F901F90189580936500863164
S1130300A9F160F48C3038F48A3080F5882399F0B0
S11303108130A9F02DC0843149F12AC0803259F0CE
S113032028F4883119F18E3131F022C08436E1F09D
S11303308536E1F01DC0AA98AB98AC9A12C0FB01B7
S1130340828585FF03C0AA98AB9A02C0AB98AA9A8B
S1130350AC9880919300833021F4809163008823CA
S113036029F01092640007C084E003C081E001C05A
S11303708AE0809364006091640088ED90E00C94BE
S1130380B60ACF93DF93CDB7DEB7A0970FB6F89434
S1130390DEBF0FBECDBF80916500843109F148F402
S11303A0813079F008F45EC08A50823008F05AC077
S11303B017C08831A9F08E3159F1863109F052C045
S11303C00FC0E091900080E2E802F0011124EE55A4
S11303D0FE4F4581628180EA0E94630C8AEF45C02A
S11303E06091900080E26802B00111246E557E4F46
S11303F084E183DFE091900080E2E802F0011124BF
S1130400EE55FE4F448160898FEB0E94630C26C039
S11304108FEE89838EE08A83E091900080E2E80287
S1130420F0011124EE55FE4F82818B8383818C83EE
S113043084818D8385818E8382858B8786858F8752
S11304408785888B8089898B81898A8B83898C8B2A
S113045084898D8BCE0101960E94340C833021F463
S113046084E103C080E001C083E0A0960FB6F89455
S1130470DEBF0FBECDBFDF91CF910895FC019FEE8B
S113048090838EE0818312821382148215821286F5
S113049016861786108A118A118E128E27E0268BF3
S11304A0178A108E31E0378F90A381A312A213A272
S11304B014A215A212A616A617A610AA11AA43E002
S11304C041AF12AE16AA17AA10AE22E027AFDF0181
S11304D0A05CBF4F9C9311968C93119712961C921B
S11304E0129713961C92139714961C9214971596B0
S11304F01C9215971A961C921A971E961C921E9778
S11305001F961C921F9750961C92509751961C92BE
S1130510519759962C9359975A961C925A9755E08D
S113052056965C93569757961C92579758961C92DA
S113053058975F964C93E05AFF4F908381831282C1
S1130540138214821582128616861786108A118ADF
S1130550318F128E268B178A108E84E0878F089530
S1130560FC0189B38083118281E0828399B39383F0
S11305708483858393B3968393E09783808783B33F
S1130580818784E0828713860895369986C04091D6
S113059094004423A9F1842F90E0019724B135B14C
S11305A053E0369527955A95E1F7FC01EE0FFF1FAE
S11305B0EC53FF4F3183208375E0880F991F7A95A0
S11305C0E1F7FC01EE55FE4F658170E0F901E61B91
S11305D0F70BF7FF03C0F195E195F10933971CF48C
S11305E022303105D8F52617370729F054E0FC01ED
S11305F0EE55FE4F5683FC01EE55FE4F25832EC06B
S113060084B195B123E0969587952A95E1F7909367
S1130610CB008093CA002091070230E0AC01421B5A
S1130620530B57FF03C05195419551094330510570
S11306301CF48230910540F48217930719F024E0EA
S113064020930802809307023898399A3A9A3B9883
S11306503C98369A81E0809394000895413041F4A7
S1130660389A399A3A9A3B983C98369A82E0F3CF72
S1130670423041F4389A39983A9A3B983C98369AE1
S113068083E0E9CF433049F4389839983A9A3B9853
S11306903C98369A1092940008950895CF93DF936E
S11306A0EC018F8181110AC08E81833039F02AE1F7
S11306B04D816A8180EA0E947C0C8E838F8188231D
S11306C0D1F08885833041F02AE14A856A8181EA44
S11306D00E947C0C88870FC08985833041F02AE111
S11306E040E06A8180EA0E947C0C898704C08D8185
S11306F0811101C01F828B85833061F02AE14A8514
S11307006A8181EA0E947C0C8B87833019F48A8584
S113071084738A878A89833051F02AE149896A81FE
S113072082EA0E947C0C8A8B833009F4198ADF9157
S1130730CF91089590918F00969581119058909340
S11307408F000895CF92DF92EF92FF920F931F9341
S1130750CF93DF931F92CDB7DEB78983142F79012E
S113076001E001C0000F6A95EAF788E0C82ED12C99
S113077089818023DFDF81E0C81AD108C9F7E12F1E
S1130780110FFF0BED5DFD4F808190918F0086303E
S113079028F49F3F19F48F5F80830FC091110DC01F
S11307A0853058F01082F701928580E2892782878C
S11307B081E0878384E0808781870F90DF91CF91E8
S11307C01F910F91FF90EF90DF90CF900895EF92DB
S11307D0FF920F931F93CF93DF931F92CDB7DEB792
S11307E08983042F11E001C0110F6A95EAF788E0AC
S11307F0E82EF12C898181239DDF81E0E81AF1083C
S1130800C9F7E02F002E000CFF0BE553FF4F80814A
S113081090918F00853028F49F3F19F48F5F808377
S113082014C0911112C0853080F010828091DF00D5
S1130830081307C09091E00081E089278093E000CD
S113084002C01092E0000093DF000F90DF91CF917F
S11308501F910F91FF90EF900895CF92DF92EF9246
S1130860FF920F931F93CF93DF931F92CDB7DEB701
S11308708983E42E890181E0F82E01C0FF0C6A957A
S1130880EAF788E0C82ED12C89818F2153DF21E03B
S1130890C21AD108C9F78E2D0E2C000C990BFC013D
S11308A0EE54FF4F208130918F00253030F43F3FCC
S11308B009F047C02F5F208344C0311142C0108229
S11308C02091E000211122C024E0F8012387428511
S11308D0F1E0EF1203C020E124270BC00297F4E0FB
S11308E021E030E0EF1641F001C0220F8A95EAF7CB
S11308F0242BF801228725C0B90102C0660F771F97
S11309008A95E2F7CB018427F8011AC02130C9F493
S113091024E0F801228BF1E0EF1679F0029721E050
S113092030E0A90102C0440F551F8A95E2F7CA01BD
S1130930F8019189892B818B04C0F8018285886034
S113094082870F90DF91CF911F910F91FF90EF90CD
S1130950DF90CF900895AF9AC09AAD9ADA9AA89A88
S1130960DB9AAA9AA99A939A949A959A969A089530
S113097084E690E0EFE5FAEE3197F1F700C000006D
S11309800197C1F70895FC014285628181EA9BD7F2
S11309908093C20008950F931F93CF93DF93CDB735
S11309A0DEB7A0970FB6F894DEBF0FBECDBF8C01A3
S11309B08FEE89838EE08A83F80182818B83838121
S11309C08C8384818D8385818E8382858B878685C4
S11309D08F878785888B8089898B81898A8B838996
S11309E08C8B84898D8BCE0101963ED7833099F010
S11309F063E087EB90E0BAD580916500883121F0FF
S1130A008E3129F08B3059F4B80184E102C0B80169
S1130A1081E073DC04C064E187EB90E0A7D5A09685
S1130A200FB6F894DEBF0FBECDBFDF91CF911F91FB
S1130A300F910895CF93DF93EA01462F682F8AEB35
S1130A4042D7833079F063E087EB90E08FD58091D3
S1130A506500BE01863111F484E101C080E2DF91BA
S1130A60CF914BCC64E187EB90E0DF91CF917EC5D1
S1130A70FC01448160898FEB26D7833011F063E059
S1130A8001C064E187EB90E071C5482F4F776AE2BB
S1130A9088EA19C7FC0180916500A091EB00B09130
S1130AA0EC008A3069F413968C911397838314961F
S1130AB08C911497848319968C911997808B07C015
S1130AC013968C911397887F9381892B8383129635
S1130AD08C9112978283909193008EEF890F8230CC
S1130AE008F516968C9116978F7D828720918D003C
S1130AF027FF02C080628287228516968C91169702
S1130B00822785FF05C081E085831092630012C0AF
S1130B10933019F480919B0003C015968C9115971E
S1130B20858308C015968C911597858316968C91AC
S1130B301697828717968C911797868718968C91AB
S1130B40189787871A968C91818BCF0108CBCF9306
S1130B50DF93EC011C82188A60E083E090E0F7D612
S1130B60688982E090E0F3D660E084E090E0EFD61C
S1130B70BE0180E2DF91CF91C0CBCF93DF93EC0134
S1130B806ED6FC019093EC008093EB00892B09F462
S1130B90C1C08081823A09F4AFC038F4803A09F4C4
S1130BA080C0813A09F48AC0B1C0843B09F44FC0C3
S1130BB0873E09F0ABC080916500843171F08631C5
S1130BC009F438C08A3009F0A1C0838185FF9EC032
S1130BD0CE0160DFBE018BE01DC09C81848198132F
S1130BE095C098898185981391C0838180738033DF
S1130BF0A9F483859B89981304C02C8994852917AB
S1130C0029F081114BC08485811148C0CE0142DF97
S1130C10BE0188E172DBCE01BEDE78C0BE0186E192
S1130C206CDBE091EB00F091EC008281AE01682F67
S1130C3001DF6CC09C818481981368C09889818588
S1130C40981364C083818073803341F5DFCF809132
S1130C5065008B3071F018F48A3001F157C0883187
S1130C6041F08E3109F052C081818F3609F04EC0B7
S1130C7015C081818F3609F049C06C8183E090E012
S1130C8066D6688982E090E062D66B81677084E002
S1130C9090E05DD6BE0181E030DB38C0CE0157DF85
S1130CA035C080916500813089F591818A819813DE
S1130CB02DC082818D83CE0152DA28C080916500D7
S1130CC0813021F591818A81981320C0809193000D
S1130CD082509281823070F48A85282F292725FF3B
S1130CE009C080728A8792819F7D892B8A87CE0171
S1130CF04ADE0CC09A870AC080916500813031F4C5
S1130D0091818A81981302C08281898B1092EC00B0
S1130D101092EB00DF91CF91089514BE83E080938D
S1130D20930019DE1092910087EA90E019DC67EADB
S1130D3070E082EA91E0A2DB85E090E000D68535A0
S1130D4051F162EA71E084E6D8DA60E083E090E091
S1130D50FED560E082E090E0FAD560E084E090E0C7
S1130D60F6D561E087E090E0F2D566E088E090E0B7
S1130D70EED566E089E090E0EAD564E08AE090E0B0
S1130D80E6D560E18BE090E0E2D56091930086E0E7
S1130D9090E0DDD540C087E090E0D1D58130A1F46A
S1130DA088E090E0CCD5863079F489E090E0C7D52E
S1130DB0863051F48AE090E0C2D5843029F48BE087
S1130DC090E0BDD58031A1F061E087E090E0BFD52F
S1130DD066E088E090E0BBD566E089E090E0B7D5B6
S1130DE064E08AE090E0B3D560E18BE090E0AFD5B9
S1130DF062EA71E080E081DA83E090E0A0D580933C
S1130E00A60182E090E09BD58093B20184E090E05B
S1130E1096D58093A50181E090E091D58093B501AA
S1130E2080E090E08CD58093B6018DEE90E012D5F1
S1130E30E3D96CD300E020E030E041EC51E060E025
S1130E4087EB90E070D3789480916500843668F5E0
S1130E508091A60162EA71E0811104C08091B2011F
S1130E60882311F084E101C080E247DA459902C089
S1130E708BD3FCCFC2E38AE090E07BD385D3C1500F
S1130E80D1F78091A601882311F090E072D380916C
S1130E90B201882311F090E06CD380916500843115
S1130EA031F482EA91E0E4DD02C080E0EEDD6BD94A
S1130EB0D89AD99AAB9A7AD916B885B371D958DD2C
S1130EC067D956DDAF9A1092E0008FE090E09093DE
S1130ED0C5008093C40086B1876C86B93898399868
S1130EE03A9A3B983C98369A2FEF89E698E121503C
S1130EF080409040E1F700C00000C2EAD1E011E078
S1130F00E12CF12C83B322EA31E041E060E01ADC09
S1130F1089B322EC31E042E063E014DC83B322EED7
S1130F2031E043E062E00EDC83B322E032E044E0EF
S1130F3061E008DC83B341E067E049DC86B342E06A
S1130F4060E045DC83B343E065E041DC89B344E021
S1130F5062E03DDC8091DF00082E000C990B0197C4
S1130F608E159F05A1F480B39E0141E063E075DC1A
S1130F7080B39E0142E064E070DC80B39E0143E0F4
S1130F8065E06BDC80B39E0144E066E066DCFDDA7C
S1130F90CE01F3DD8091DF00082E000C990B019740
S1130FA08E159F05A1F48C81811111C01D821A86B2
S1130FB0198ABE018AE0A1D9AE0160E080E03ADD81
S1130FC08C81811107C0CE01D8DD10D9F9CF6E2DE7
S1130FD0CE0164DB8A8585FD03C08A81811103C04B
S1130FE0812FE6D802C0812FF2D82FEFE21AF20A3D
S1130FF01F5FA096153009F085CF7FCF16B80895EE
S113100086E487B987EC86B93699FECF85B110920C
S11310109B00369A0895369945C084B195B1909352
S11310209A0080939900369A2091990030919A0001
S11310308091970090919800821B930B97FF03C0B7
S1131040919581959109039724F03093980020930A
S11310509700209197003091980083E0369527956A
S11310608A95E1F7822F222329F081E0820F8F37BE
S113107008F08EE790919600992319F0915090937F
S1131080960090919600911109C09091950098173F
S113109029F0809395008AE08093960080919500D2
S11310A080939B0008951F920F920FB60F92112404
S11310B08F939F9389B78F7D89BF86B597B58056E7
S11310C09A4F90932E0280932D0280912D0290913D
S11310D02E029BBD8ABD88B7806188BF89B78061B5
S11310E089BF84E080933102109232029F918F91E4
S11310F00F900FBE0F901F9018951F920F920FB66E
S11311000F9211240F931F932F933F934F935F9349
S11311106F937F938F939F93AF93BF93CF93DF93FB
S1131120EF93FF9380912D0290912E0280549C4F57
S113113090932E0280932D0280912D0290912E0285
S11311409BBD8ABD809132028F5F80933202809171
S113115031028430C1F580913202893068F4809183
S11311602C02869580932C02459BDAC080912C0238
S1131170806880932C02D4C088B7806288BF89B706
S1131180806289BF80912F0290913002459907C0F7
S1131190FC01E957FF4F80818F5F80830FC040912E
S11311A02C02FC01E058FF4F308121E0230F208303
S11311B0DC01A30FB11D4C9327FD10821092320263
S11311C081E08093310280913102833009F074C050
S11311D098B388B19695829586958770892780FD06
S11311E004C01092320282E065C0809132028930DC
S11311F068F480912C0280FF02C0C19801C0C19A9A
S113120080912C02869580932C0256C080913202E4
S1131210893011F4C19850C080912A028F5F809365
S11312202A0290912B028917E8F410923202E0917D
S11312303302F091340280912A02E80FF11D80817B
S113124080932C02C19A8CB59DB580549C4F909389
S11312502E0280932D0280912D0290912E029BBD2F
S11312608ABD2AC081E080932902C0913302D091C3
S1131270340200912F0210913002CE01DED220E020
S113128030E0F801E058FF4F281788F4DE01A20F80
S1131290B31F5C91408191E0940F9083D801A40F17
S11312A0B11D5C9397FD10822F5F3F4FEDCF1092DD
S11312B0320281E080933102809131028230C9F49C
S11312C080913202811102C0C19A13C0809132020E
S11312D08F3078F0C1981092320281E0809331020D
S11312E0E0912F02F0913002E557FF4F80818F5F2C
S11312F0808380913102813099F48091320281118E
S113130006C088B7806288BF89B7806208C08091B0
S11313103202883328F01092310289B78F7E89BF58
S1131320FF91EF91DF91CF91BF91AF919F918F91F9
S11313307F916F915F914F913F912F911F910F91E9
S11313400F900FBE0F901F901895909330028093CA
S11313502F02C198B99A87E188B91092310288B7EF
S1131360806288BF89B7806289BF8EB5887F8160BB
S11313708EBD08951F93CF93DF93EC01162F5DD29A
S113138080932B0280912B02815010922A029FEFAE
S113139020912A02281768F420912A02FE01E20F04
S11313A0F11D2081922720912A022F5F20932A0287
S11313B0EFCFFE01E80FF11D9083F8948091310284
S11313C0813069F480913202612F193308F068E3A7
S11313D0861728F01092310289B78F7E89BF7894DE
S11313E080913102813039F490913202943108F0C5
S11313F056C080E054C08091310281114DC0F894F0
S113140089B78F7D89BF08B605FE05C089B780629C
S113141089BF789441C0C19A8CB59DB580549C4FC6
S113142090932E0280932D0280912D0290912E0292
S11314309BBD8ABD7894D0933402C093330210923A
S11314402A0210922902888180932C0283E08093DF
S113145031021092320288B7806188BF89B78061F7
S113146089BF809131028330E1F38091290288237E
S113147069F0E0912F02F0913002E857FF4F80812C
S1131480918101969183808383E009C08091310228
S1131490823021F086E003C082E001C085E0DF9164
S11314A0CF911F9108951F920F920FB60F9211249E
S11314B08F939F9382EC82BF80919E008F5F809375
S11314C09E008091A0008F5F843618F48093A00062
S11314D007C01092A00080919F008F5F80939F00AF
S11314E080919C0090919D00892B49F080919C00F3
S11314F090919D00019790939D0080939C009F91F3
S11315008F910F900FBE0F901F90189582EC82BFA1
S113151088B7816088BF89B7816089BF83B7887FB6
S1131520846083BF08950F93FC018FB7F894002360
S113153059F0A091A100B091A200B683A583F093C5
S1131540A200E093A1000AC0A091A300B091A4005E
S1131550B683A583F093A400E093A300608354832F
S11315604383328321838FBF0F910895FC016083ED
S1131570089590939D0080939C0080919C0090918D
S11315809D00892BD1F708950F931F93CF93DF9379
S11315908FB7F89400919E0010929E0010919F00C6
S11315A010929F008FBF011103C0111121C03FC0D1
S11315B08091A1009091A200892BB9F3C091A10060
S11315C0D091A200209789F08881882351F081501E
S11315D08883811106C0EB81FC8189819A810995F8
S11315E088830D80DE81C02DEDCF015039F7DDCF2A
S11315F08091A3009091A400892BC9F0C091A3000D
S1131600D091A400209789F08881882351F08150DB
S11316108883811106C0EB81FC8189819A810995B7
S113162088830D80DE81C02DEDCF115039F7DF9115
S1131630CF911F910F9108952F923F924F925F92F5
S11316406F927F928F929F92AF92BF92CF92DF92CE
S1131650EF92FF920F931F93CF93DF9300D000D0AC
S1131660CDB7DEB79C838B837C0181E8E80EF11C47
S11316706B807C8090E8690E711C0B811C810E5775
S11316801F4FEB81FC81ED57FF4F6F018B819C81D4
S11316908C579F4F4C0180E8282EAB80BC8097E884
S11316A0A90EB11CEB81FC81EB57FF4FFA83E98350
S11316B0F7018081F3019081891709F498C0EB81C7
S11316C0FC81E80FF11D308037FE1BC0F8019081CA
S11316D0891721F0F50190819F5F9083F801808341
S11316E08FEFF6018083832D8076803621F08295FA
S11316F08F708E5F01C080E0F4018083811106C089
S113170042C0F401808181113EC03082F801208101
S1131710F4013081822F90E0830F911D813891056F
S113172094F1422C421AF894F3014081F70180812C
S1131730841708F05FC0F8018081F42FF81B8F2F05
S1131740F30180837894F7018081481708F055C02D
S1131750512C50E06B817C81CB01840D951DE6D02A
S1131760F80180816B817C81680F711DA2018B81DE
S11317709C81DCD0F7018081F8019081891BF701FD
S11317808083F8011082F70180818F5F8083F801E4
S11317909081282F291B87FF02C0F7011082F401D2
S11317A08081281729F0F60180818325808380CFEA
S11317B0F601808138120CC02B813C81290F311D28
S11317C0E981FA818081918101969183808306C0A9
S11317D0F50180818F5F808320E030E0F701808114
S11317E0F801808321153105F1F2C9010FC080E0B1
S11317F090E00CC0842D840FA3CFF8018081481B96
S113180050E06B817C81680F711DB1CF0F900F90F8
S11318100F900F90DF91CF911F910F91FF90EF9058
S1131820DF90CF90BF90AF909F908F907F906F90FC
S11318305F904F903F902F900895FC0180818076B7
S1131840803611F4818108958081807682958F702D
S11318508E5F08959093A6008093A50076CD809125
S1131860A5009091A600E8CEEF92FF921F93CF932C
S1131870DF937C0119E1CEE2D1E06C2FC7017ADD60
S11318808330D1F0813011F4D0E0F7CF8230A8F367
S1131890823011F4D111F0CFCB3108F0C150115086
S11318A059F7E091A500F091A600E657FF4F80811B
S11318B08F5F808387E001C083E0DF91CF911F9128
S11318C0FF90EF900895CF93DF93CDB7DEB7A09745
S11318D00FB6F894DEBF0FBECDBF89836A834B83F6
S11318E0CE010196C1DFA0960FB6F894DEBF0FBEFD
S11318F0CDBFDF91CF910895CF93DF93CDB7DEB7FE
S1131900A0970FB6F894DEBF0FBECDBF89836A835C
S11319104B83622FCE0101962DDDA0960FB6F8946D
S1131920DEBF0FBECDBFDF91CF910895FB01DC0177
S113193002C001900D9241505040D8F70895E199AA
S1131940FECF9FBB8EBBE09A99278DB30895262FB7
S1131950E199FECF9FBB8EBB2DBB0FB6F894E29AE4
S10F1960E19A0FBE01960895F894FFCFA1
S113196C010101010164000305070B0F13171B1F71
S113197C23272B2F33373B3F43474B4F53575B5F47
S10F198C63676B6F73777B7F7F7F7F0046
S9030000FC
